:020000040001F9
:10800000E0350020158101002F8101003181010040
:108010000000000000000000000000000000000060
:10802000000000000000000000000000338101009B
:1080300000000000000000003581010037810100D0
:108040003981010039810100398101003981010044
:10805000398101000000000005880100398101001C
:108060003981010039810100398101003981010024
:108070003981010039810100398101003981010014
:1080800039810100F5880100398101003981010041
:108090001589010061890100798901003981010098
:1080A000398101003981010000000000000000005A
:1080B00000000000000000000000000000000000C0
:1080C0000348854600F0D8F900480047DD960100D6
:1080D000E0350020401E00BF00BF00BF00BF00BF52
:1080E00000BF00BF00BF00BF00BF00BF00BFF1D195
:1080F00070470000401E00BF00BF00BF00BF00BFB0
:1081000000BF00BF00BF00BF00BF00BF00BFF1D174
:10811000704700000321094802680A4302600848CA
:1081200002680A4302600748804707480047FEE7A5
:10813000FEE7FEE7FEE7FEE7FEE70000240500405D
:10814000540500409D890100C180010030B50B46F7
:10815000014600202022012409E00D46D5409D4221
:1081600005D31D469540491B2546954040191546A7
:10817000521E002DF1DC30BDF0B51FB406460020C4
:1081800082B005464024019100901BE001992246EF
:108190000F46304600F017F9049A059B801A994162
:1081A00010D310461946224600F0FDF8361A8F41CA
:1081B0000197224601200021009F00F0F4F83818B2
:1081C0004D4100902046641E0028DFDC019B009892
:1081D0002946324607B0F0BD03460B439B0703D048
:1081E00009E008C9121F08C0042AFAD203E00B787C
:1081F0000370401C491C521EF9D27047D2B201E0F4
:108200000270401C491EFBD270470022F6E710B5F1
:1082100013460A4604461946FFF7F0FF204610BDF4
:108220000FB400B58DB009900B9010A900200091FB
:10823000C0430A9000200C9006480690064807901C
:108240006A4609A80F9900F0E5F80DB008BC04B023
:10825000184700003584010055840100FFB5002750
:10826000FF4383B000205C6801909E681D46A969A9
:108270007F1C049888470090296A88470028F6D117
:108280000098401C0CD0032040028443002E19DDCE
:10829000600614D500982B2809D02D280FD103E0B3
:1082A0000020C04307B0F0BD012080020443A9694B
:1082B0007F1C04988847761E0090002E02DD0098EF
:1082C000302803D00598002825D035E00120400251
:1082D0000443A969761E7F1C049888470090002EED
:1082E00003DD782805D0582803D00598002810D041
:1082F00022E00598002801D010281DD1012040025D
:108300008443A969761E7F1C04988847009010203A
:1083100002E0082000E00A2005900DE0012149025A
:108320000C43059A0199761E514308180190A969DA
:108330007F1C049888470090002E05DD0599009861
:1083400000F052F80028E9DAE96904988847A005A6
:1083500002D40120C043A5E7E00722D1600611D571
:108360006005019800D5404229680A1D2A60096805
:10837000220501D5087014E0220701D5088010E01D
:1083800008600EE02868011D29600068210502D5FB
:108390000199017005E02107019901D5018000E0F4
:1083A000016038467EE710B5202A04DB0146203AFA
:1083B0009140002010BD914020239C1A0346E340C9
:1083C0001943904010BD10B5202A04DB0846203A1E
:1083D000D040002110BD0B46D340D0402024A21A2B
:1083E00091400843194610BD3A2800D23038202366
:1083F00002469A43412A01D310463738884201D3B6
:108400000020C043704700000268137851180160D3
:108410001846704710B5D160044951610449116292
:1084200000211161114600F041F810BD09840100DE
:108430009D8401004268002A08D001680B78491C1D
:10844000002B03D0521E06C0184670470121C160A0
:10845000881E70474268002A0BD0C3680168002B51
:1084600007D183688B4204D0491E521C06C00020ED
:1084700070470020C0437047064C0125064E05E0BA
:10848000E36807CC2B430C3C98471034B442F7D335
:10849000FFF71AFEECA501000CA6010010B50F2194
:1084A000C0B2490200F09CF910BD0000F3B58DB0D8
:1084B00000200A9001200B90002608460C300C4644
:1084C0000990626901210998904705002ED0252D59
:1084D0002DD0216A8847002818D0626901210998A7
:1084E0009047216A88470028F7D1411E62690998A0
:1084F000904700E0761CA1690D988847216A88475B
:108500000028F7D1E1690D988847DAE7A1690D984D
:1085100088470746A84201D1761CD2E7E1690D9849
:1085200088477F1C02D10A98002877D046E10027AF
:1085300062693D463946099890472A280CD16269FC
:10854000012109989047012506E00A214F433F1871
:10855000303FEBD410200543626901210998904710
:10856000014630390A2903D29A498F42DEDCECE712
:10857000E90600D4984F6C280AD04C2810D06828FF
:1085800024D06A282ED074280CD07A280AD00DE086
:1085900062690121099890476C2823D004211CE0CE
:1085A000202005436269012109989047A760656012
:1085B00065284FD026DC582839D01ADC452849D008
:1085C00012DC252834D04128B0D143E06269012172
:1085D00009989047682802D008210D43E6E701205A
:1085E000C002DEE70220DCE7462833D047282CD142
:1085F00030E05B287BD061282CD0632877D06428BA
:1086000023D15EE06F284CD009DC662822D0672891
:1086100020D0692826D06E2817D12EE0CAE0702815
:108620004AD073286CD075284BD078280DD150E0F3
:10863000A1690D9888470546252800D16CE7E169B6
:108640000D9888476D1C00D16DE7B7E00A2248E01D
:108650000A224FE0012023466A46C0430D99C046D6
:10866000C046A0E02846402108436060A807234692
:1086700001D5002235E000223CE02068011D216088
:108680000068290501D506701BE7290701D506807A
:1086900017E7A90703D5F1170660416011E70660E7
:1086A0000FE72846402108436060A807234601D50C
:1086B000082216E008221DE048492846084060606C
:1086C00016E02846402108436060A8072346BFD52E
:1086D000BCE72846402108436060A80708D5234628
:1086E00010220120C0430D99C046C0465BE007E060
:1086F000234610220120C0430D99FFF7AFFD52E041
:1087000000210C910B460091632802D05B2807D012
:1087100043E0E80601D40120A060012000903CE085
:1087200062690121099890475E2805D101200C90CB
:1087300001466269099890472169002906D10B46D4
:1087400001AA8F00491CD3510829FADB002835D033
:10875000216900290ED1C117C90E09184A119300C9
:1087600001AA9A1849094901411A01201368884051
:108770000343136062690121099890475D28E5D1A0
:108780000C98002808D0002001AB81005A58401CEA
:10879000D2435A500828F8DB01AB01202246C043DF
:1087A0000D99C046C04600280ADA401C06D10B9835
:1087B000002803D00020C0430FB0F0BD0A98FBE7AB
:1087C000E90702D10A99491C0A91361800200B903A
:1087D00077E60000CCCCCC0CFFFFFF7FF1F7FFFF6A
:1087E0007F2801D9002207E0054B42089A5CC007A8
:1087F00000D112091207120F012090400840704763
:10880000ACA50100FEB52748056927490020C863CB
:10881000064642E01421426871438C1801218068A9
:10882000B140014237D000270297E0682168C04379
:108830006840084001460190204601F057FB194866
:10884000006921686840084015D02F464740E0681D
:10885000C0437840084001460090204601F046FBA6
:108860000098A168B84301400291009839466268B7
:1088700001400A4017460198A168A84301400298A8
:10888000019A014360682A401040384302460A4377
:1088900001D022699047761CF6B2044841788E4296
:1088A000B8D3FEBD00050050406100404C200020C0
:1088B0008307FF22DB0E9A408907090E99400028A2
:1088C0000BDA0007000F0838830808489B001818C7
:1088D000C36993430B43C3617047830804489B00FB
:1088E0001818036893430B430360704700ED00E0E2
:1088F00000E400E010B50649002008604860886088
:10890000C860034940390860486001F0DFFC10BDD1
:1089100040110140FEB50020C043104D029068692F
:10892000009001A82E6900F0E7FC074600F014FE55
:108930000446002F05D002AA0099019800F0FEFC21
:108940000124029800F052FE002801D1002C02D030
:10895000304600F03BFC00206871FEBD582000202E
:10896000044901220878504008704968002900D065
:10897000084770473820002010B507484068002895
:1089800007D08047002803D00022114600F06AF982
:1089900010BD00F077FD10BD7C20002010B500F068
:1089A000B1FD002805D00E490C4848600D48C91398
:1089B00081610D48018CC9B201290ED1818C090752
:1089C0000BD1018D0906090F042906D1808D0006FF
:1089D000000F02D105490120886010BDDFFF07C0EC
:1089E00000050040006C0040C00F00F00006004091
:1089F00030B47446641E2578641CAB4200D21D4618
:108A0000635D5B00E31830BC184702E008C8121F22
:108A100008C1002AFAD170477047002001E001C167
:108A2000121F002AFBD17047F8B5044600200E46FD
:108A3000107021781546002905D03146204600F0F7
:108A400034FF00287ED1A178002920D0287837462D
:108A5000001D1F2801D90C2017E0684679DF002887
:108A600013D128780322411C29703A5428781922FE
:108A7000411C29703A542878C1196846008801F0D1
:108A800065FC2978401828700020002875D1E1780D
:108A9000022300290DD0297801274A1C2A7073541B
:108AA00029784A1C2A7077542978E7784A1C2A705A
:108AB0007754616800291AD0002008563146844650
:108AC00028780246C01C1F2801D90C200DE0501C3C
:108AD00028708B5428780A23421C2A700B5428785B
:108AE0006246431C2B7032540020002845D1218956
:108AF000002909D02046334606220221083000957D
:108B000001F066FC002838D1218A002909D02046CE
:108B10003346072203211030009501F059FC00284C
:108B20002BD1218B002909D0204633461522142150
:108B30001830009501F04CFC00281ED1236A002B50
:108B400008D000E019E02A463146184600F090FBB4
:108B5000002812D1636A002B06D02A4631461846F7
:108B600000F072FE002808D12C21095D002904D0F4
:108B70002A463146204601F0DBF9F8BDF8B5302130
:108B80002148FFF742FB20480021204F017039782F
:108B9000C17030213030FFF738FB1B4CFD8860344A
:108BA00025801820A08019213846194E8901808817
:108BB000FFF7CCFA3946C96840181649B54204D1C6
:108BC0000A462032A260106001E0A16008600E48F1
:108BD0003030446235200875542048754D20887522
:108BE0002D20C87508490848303100F077F9386100
:108BF000002807D0BFF34F8F08490748C860BFF36C
:108C00004F8FFEE7F8BD00009020002000200020DC
:108C100088580000942300200400FA0500ED00E0CD
:108C200030B587B00D46044618216846FFF7EDFAC7
:108C3000022069460870002201920A720C824D825D
:108C4000684673DF002807D0BFF34F8F04490348FD
:108C5000C860BFF34F8FFEE707B030BD0400FA05D0
:108C600000ED00E0BFF34F8F03490248C860BFF337
:108C70004F8FFEE70400FA0500ED00E038B50C4622
:108C8000A268064B12019D5809786388024600933A
:108C9000204608302369A84738BD0000A0240020E2
:108CA00070B5114DAC68002C06D0002A06D0002803
:108CB00004D000232D7809E0082070BD072070BD86
:108CC00024265E43A65D002E04D05B1CAB42F7DB7E
:108CD000042070BD242501265D4366552C19617062
:108CE000A2610360002070BD58200020FFB581B054
:108CF0000A9F1C4616460D4698070BD1002C09D03A
:108D000001F0D2F8224900208F610D7023460246FF
:108D10008C6009E0072005B0F0BD242701467943A7
:108D20005A54C9180A75401CA842F6DB2420454352
:108D3000174F2B1903207870354618201C46002148
:108D40004543FB601833C8000019027042708670FA
:108D50004360EB18491C0329F5DB0020C043386150
:108D6000BA7001240B48FA70240504600321142012
:108D7000FFF79EFD08480460084C0198A06003219D
:108D80001120FFF795FD606878610020C3E70000BF
:108D90005820002080E200E000E100E000150140E2
:108DA000FEB517461D4A044690680D4600280CD0B3
:108DB00011788C4201D2052D01D20720FEBD21463B
:108DC00024235943435C012B01D00820FEBD081821
:108DD000407801281DD0002601F0BEFAC0000F49DE
:108DE0000190C9684018694601F0E0FA002812D0E5
:108DF000012101700A49446049680830E2C007490E
:108E00000198C96841180098487001F0EBF90020FA
:108E1000FEBD2E46E0E70420FEBD000058200020E5
:108E200000150140F8B5144D0446A868002809D083
:108E300029788C4201D30720F8BD24216143405C8E
:108E4000012801D00820F8BD01F086FAC600E868C4
:108E50006946301801F0AAFA00280AD002210170F0
:108E60004460E86831180098487001F0BBF90020B0
:108E7000F8BD0420F8BD00005820002070B504465D
:108E800049DF1248002242602002114C0830606025
:108E9000012323600F4D2B600F490A60104601E04B
:108EA000401CC0B20E68002E01D1FF28F8D30A6022
:108EB0006B6022604ADFA0684B2109014843FF2113
:108EC000FFF744F94100401880B270BD00730040C4
:108ED00000750040007000400071004030B50C4645
:108EE00093B000216A4611701171002812D0C17828
:108EF000490701D4072200E00022002A02D01046D0
:108F000013B030BD6A4602A9FFF78EFD0028F7D1E5
:108F100002AD00E00025002C0ED0E078002800D043
:108F200007200028ECD101AA0AA92046FFF77CFD02
:108F30000028E5D10AAA00E00022684603790178FA
:108F4000284672DFDCE710B500F0E4FC10BD00003D
:108F500010B5002806D0044881884288891881808D
:108F6000FFF70CFE10BD00000020002070B5054684
:108F700009480C464260152032DF00280BD12946F3
:108F8000152033DF002806D115202EDF002802D15E
:108F9000214603204CDF70BD382000207FB5002320
:108FA00048222149082001F061F8204C204D00287A
:108FB00005D0BFF34F8FEC60BFF34F8FFEE700206B
:108FC0000090694601900870684660DF002805D06F
:108FD000BFF34F8FEC60BFF34F8FFEE70120694670
:108FE000087202A9242068DF002805D0BFF34F8F44
:108FF000EC60BFF34F8FFEE70E4801F02DF800281C
:1090000005D0BFF34F8FEC60BFF34F8FFEE70A48E8
:1090100001F044F8002805D0BFF34F8FEC60BFF398
:109020004F8FFEE77FBD00000C2100200400FA05F1
:1090300000ED00E0478F0100DDA10100F8B53A49DD
:1090400014230A780F205A43541821792569374E82
:10905000241D02291AD004292CD0052963D100F03F
:1090600037FD01462846FFF771F8064600F030FD4F
:109070000146A08871434019401A870800F028FD76
:10908000711C4843A1886288891835E0B0886288DD
:1090900080022169121A0918A388281818180123B8
:1090A0009B029A4202D2920829DF37E0FF22013266
:1090B00029DF33E0A1681C480A01CC30101802896E
:1090C00043894068A84203D160885A4382421CD039
:1090D00095291AD000F0FCFC01462846FFF736F827
:1090E000064600F0F5FC01467143681A870800F057
:1090F000EFFC711C484361883A464919401A8308BD
:109100003146204600F0D4FF08E000F0E1FC0146C3
:109110002846FFF71BF8B188401828DF002802D145
:10912000014901228A70F8BDD4230020402000208C
:1091300010B5084900204A78002A09D0897800290A
:1091400006D1FFF77BFF002802D0112800D10020B4
:1091500010BD0000D423002014225043054A0021F2
:1091600080180171C18094220161C2604161018156
:1091700070470000D4230020F8B5134D069E6C788C
:109180000A2C1FD02F783C19E4B20A2C01D30A3CD8
:10919000E4B214277C43641920710020607162617D
:1091A00003C92161E060E3802681A97800200029BD
:1091B00004D1FFF743FF112800D100206978491C32
:1091C0006970F8BD0420F8BDD4230020F8B5224909
:1091D0000869421C3DD0242250438A6880184768A1
:1091E0001E4844684E69A01B05022D0A0879ED1C33
:1091F000002814D101201A49000448601849403958
:109200004860184940000860174908601749012064
:1092100008602F20FEF76EFF0F4901200871BD4244
:1092200000D23D46A81900020C49000A40310860EE
:109230000A494968001B091B0902090A0002000AC1
:10924000C91C814204D901200649400480390860C4
:10925000F8BD00F029FEF8BD58200020001501409F
:109260004013014080E200E000E100E00010014016
:10927000F8B50D4611780646881D14461F2801D9F9
:109280000C20F8BD3088062813D31927FF01194B8D
:10929000B84201D998420CD17288062A09D3BA4241
:1092A00001D99A4205D1984205D09A4203D0904202
:1092B00001D9072000E000200028E2D1481C052247
:1092C00020706A5420781222411C21702A54207880
:1092D0004119308801F03AF821784018C0B2207066
:1092E0004119708801F032F8217840182070002070
:1092F000F8BD0000FFFF000010B50E4A0023917872
:10930000D478A14212D0491CC9B29170022900D16F
:1093100093709178074B89001C335958016050694C
:1093200008180002000A5061012010BD03600020EF
:1093300010BD00005820002070470000F0B5002448
:109340001BE02423BE686B439B195E68864202D9EA
:10935000301A5860F0BD801B341900265E601E75FF
:109360001E6A3E611E69002E07D00F193F023F0A98
:109370009F60DE6016681E621560024F3D696B1CBF
:10938000DFD1F0BD58200020FEB500243249012075
:10939000C86326460423224610212046009400F08C
:1093A00005FE01272D483F03876001A9042000F036
:1093B0002DFE0028F9D12A481421C66606674667A3
:1093C00086672848FEF721FF002501A9042000F048
:1093D0001DFE002818D06846017921486C300155DF
:1093E000641CE4B200192038C07F0A2801D0102C78
:1093F0000AD31C481CA10C30831E021F0090184881
:109400006C30FEF70DFF03E06D1CEDB2322DDCD3A6
:109410001148C6631148C76002A852DF154D114CB0
:10942000E86860601020FFF729FDE0810298206164
:10943000284600231022211D2C3000F059FC002862
:1094400007D0BFF34F8F0D490B48C860BFF34F8F54
:10945000FEE70B48E880FEBDC02F0040000500502D
:1094600090200020B423002025687825687825689E
:10947000780A0000002000200400FA0500ED00E05A
:1094800088580000F8B51E4E3078002837D0306973
:10949000002807D00025F068002805D00024002D02
:1094A00004D013E00125F6E70124F8E7684651DF10
:1094B000052806D0002806D000221146FFF7D2FB6F
:1094C00004E0012502E0316900988847002C12D1A0
:1094D000708869460880B06861DF052806D00028DA
:1094E00006D000221146FFF7BDFB04E0012402E094
:1094F000F168B0688847002DD1D0002CCFD0F8BDDE
:109500007C2000201049088CC0B2012817D1888C1B
:10951000000714D1088D0006020F03D18A8D1206B0
:10952000120F0ED0000F012803D18A8D1206120FE0
:1095300007D0032803D1888D0006000F01D000203A
:109540007047012070470000C00F00F0800701D075
:109550000020704701207047F8B523480169009149
:10956000467833E02048F100C0680D182C782AE0D6
:10957000182060436968641C0818A978E4B2A14205
:1095800000D100240178022902D003291BD114E064
:10959000154A40682421926841438F18397D00297B
:1095A00011D000F059FE002038750CE02422504301
:1095B000C0180175006A386103E00B4F0021BB68D9
:1095C0003869421CF2D16878A042D1D13046761E6B
:1095D000F6B20028C6D1044801690098814201D042
:1095E0000120F8BD0020F8BD58200020F8B5054640
:1095F000384800270169009146785CE03548F10061
:10960000C2688C1851E0681C07D0324A2420926846
:10961000684329468018056A24E0207818214143D0
:109620006268401CC0B252182070A178884200D1F4
:109630002770284B516824209B684843C018137832
:10964000012B34D1037D002B31D193688360D36823
:10965000C360136903615269C2611E4A5279002ACC
:1096600000D087601B4B82685B6996469C46D31A84
:109670001A02194B120A9A4202D2C368D21808E0A1
:1096800062467346D21A1202C368120A934202D982
:109690009A1A426000E0476087600122C760027545
:1096A000921E0262084600F0A5FD681CABD120782E
:1096B00061788842A7D13046761EF6B200289DD147
:1096C000044801690098814201D00120F8BD0020C2
:1096D000F8BD000058200020FFFF7F000EB50027D6
:1096E0004F4B05220321FF200097FFF7FFFA4D4C57
:1096F0004D4D002805D0BFF34F8FEC60BFF34F8F67
:10970000FEE74A4A01214A48FFF7CAFA002805D075
:10971000BFF34F8FEC60BFF34F8FFEE74448454ADD
:109720000021001FFFF7BCFA002805D0BFF34F8FC0
:10973000EC60BFF34F8FFEE7FFF730FC042077DFCC
:10974000002805D0BFF34F8FEC60BFF34F8FFEE7CB
:10975000394903200863012038490003C86000F03C
:10976000BDF910206946088125200002488134484F
:109770002F490190091D01A800F044FA002805D0E6
:10978000BFF34F8FEC60BFF34F8FFEE7284E0121F0
:10979000203E7761304689022430B76100F046F9F7
:1097A000002805D0BFF34F8FEC60BFF34F8FFEE76B
:1097B0007D21B068C9004843410C7D23C0039B0252
:1097C0000022C01851415A000023FEF7D5FC014683
:1097D0000022306AFFF7E4FA002805D0BFF34F8F6C
:1097E000EC60BFF34F8FFEE7164A02210320FFF71C
:1097F000BDFB002805D0BFF34F8FEC60BFF34F8F48
:10980000FEE7B0684042F060002000F04FFE48DF05
:109810000028FCD0BFF34F8FEC60BFF34F8FFEE703
:10982000542100200400FA0500ED00E0ADA4010081
:109830002020002095A401000007005000050050E2
:1098400039930100518F010070B5054600790E462D
:10985000801C1446C0B21178821C8A181F2A01D9B4
:109860000C2070BD4A1C2270401C70542078FF22CE
:10987000411C2170325420788119288800F066FD3F
:1098800021784018C0B22070AA88002A09D0A9689F
:10989000002908D08019FEF79FFC2078297940180C
:1098A0002070002070BD072070BDF8B51478074601
:1098B000A01C15460E461F2803D87878801C1F2848
:1098C00001D90C20F8BD1D20001B80B269468646D8
:1098D00008803019801C7DDF0028F3D138780228F9
:1098E00005D168460088704501D8092107E07878DD
:1098F0000821002801D0704501D968460088421C23
:109900003255641CE2B2B1542978801C08182870C2
:109910000020F8BD70B501881E294AD1017A582966
:1099200047D1407A812844D1264C2748E18881429A
:1099300003D1A069401CA06101E0E080A0696169D9
:10994000884237D225210902FEF700FC1D4A2C323D
:109950001046083800F040F8002807D0BFF34F8FBA
:109960001B491A48C860BFF34F8FFEE71549194DD0
:10997000002310222C31281D00F0F0F8A08A218B42
:10998000401A6882E069FFF74DFAFF2100228E310C
:10999000E069FFF705FA6088C8280AD9A1696069FB
:1099A000401A102805D974DFA02060801421FFF729
:1099B00037F970BD74DFE069FFF734FA002060808A
:1099C00070BD000000200020825800000400FA054D
:1099D00000ED00E09423002070B5124B1B78002BA3
:1099E00018D0002818D0002A16D00368942B0FD264
:1099F0000D4D1C012E59002E0AD06419258940688E
:109A0000694340186189646869430919814205D82E
:109A1000072070BD082070BD0E2070BD136050601F
:109A2000002070BD40200020A0240020F8B504468E
:109A30001C480E460078002824D0002C24D0206832
:109A400094281DD2184D00012958002918D040191A
:109A500041890289406851430918606881420FD9E1
:109A6000FFF774FD002811D003CC000140194268B3
:109A7000083C8A1A01891046FEF768FB002907D0C6
:109A80000720F8BD0820F8BD0E20F8BD1020F8BD55
:109A9000002002460090334621460420FFF76CFB6D
:109AA000F8BD000040200020A024002010B5074889
:109AB0004469601C06D000F00BF801462046FEF712
:109AC00045FB10BD01200007406910BD00100010CB
:109AD00001200007006980B270470000F8B5002639
:109AE0001C4C1D4FA68066703E707E70BE70354661
:109AF0002846FFF731FB6D1C0A2DF9D36680FFF76E
:109B0000D5FF0546953DFFF7E3FF4543124AA560A3
:109B10000020A680CC320101565089180E818E811A
:109B2000401C4E819428F6D308206070FFF7D0FFC8
:109B30000546FFF7BBFF461EFFF7CAFF70432946E5
:109B4000FEF704FB28DF002802D10121B970217043
:109B5000F8BD000040200020D4230020FFB5274896
:109B600081B000781E4615460C4600281FD0002CF8
:109B70001FD0019800281CD02068942814D2204FB0
:109B80000001395800290FD0C1194A89088949684C
:109B9000424351186268914206D9002D04D0A84270
:109BA00002D3A919814206D9072005B0F0BD0820CB
:109BB000FBE70E20F9E70198FFF7C8FC00281AD050
:109BC0003046FFF7C3FC002815D06068FFF7BEFCE5
:109BD000002810D060682A4681190198FEF7FCFA27
:109BE00000952068002200013D5803212046019B7A
:109BF000A8470020D9E71020D7E700004020002028
:109C0000A0240020F8B5384E044630780D460028D0
:109C10002ED0002C2ED0002D2CD02068002829D04A
:109C2000FFF756FF0146A088814228D3102826D38B
:109C3000E088002823D0FFF739FF471EFFF748FFD1
:109C40004743E088A1884843B1684018874216D34B
:109C5000FFF73EFF0146E088A288504381420BDABD
:109C6000FFF736FFA188FEF771FA002907D103E05C
:109C70000820F8BD0E20F8BD2079800701D007200C
:109C8000F8BD7188304694291BD02960174F82682F
:109C90000B01D9196A604A602268FA50A2880A81C9
:109CA000E2884A81A588E18800264D430446761C57
:109CB000B6B2FFF70DFFA84205D2FFF709FF2D1A34
:109CC00002E00420F8BD0025FFF702FFA16840185C
:109CD000A060002DEBD160880101C9198E81401C64
:109CE00060800020F8BD000040200020A02400205B
:109CF000F8B5044620481E46007815460F46002851
:109D00001DD0002F1DD0002C1BD02068942814D209
:109D10001A4900010A58002A0FD041184A890889B7
:109D20004968424351186268914206D9002D04D017
:109D3000A84202D3A919814205D90720F8BD0820FD
:109D4000F8BD0E20F8BD3846FFF700FC002811D002
:109D50003046FFF7FBFB00280CD06068FFF7F6FBEE
:109D6000002807D02B463A46214602200096FFF7EE
:109D700003FAF8BD1020F8BD40200020A0240020E8
:109D8000F8B50021464F8E46B97801291ED100262C
:109D9000444BBE705A78082A19D03C4625781421C5
:109DA00069430C19022820D003280FD16079401C88
:109DB000C0B26071241D03286AD0FFF73FF9002864
:109DC00004D0112802D02146FEF758FFF8BD022822
:109DD00009D01E70FFF7ACF90028F7D039781422AB
:109DE0005143C91959E05E70F4E72E498888401C38
:109DF00080B288802179241D022905D167888302D9
:109E0000BB4201D3012300E000239C46052901D178
:109E1000072A03D00027042902D003E00127FAE72C
:109E2000072A03D00023042902D007E00123FAE720
:109E300061888002884201D3002A27D000201F4376
:109E400007436046074317D0164815494670868079
:109E50004878401E4870681CC0B208700A2801D3B8
:109E60000A3808701420684341187046091DFEF72F
:109E700005FF2846FFF770F9FFF75AF90028A5D02B
:109E8000074914230A785A43511806E00120D6E7FF
:109E9000387814214843C1190D20091D94E70000AA
:109EA000D42300204020002070B501250B49680410
:109EB00008600B4940108860094940398860094CA6
:109EC00065602F20FEF716F9A560074C00252F20AE
:109ED0006561FEF70FF9257170BD000080E100E0BB
:109EE000401301400010014058200020F0B500222E
:109EF000012703252D043B469340194212D0C66822
:109F00001E4203D1012464041E4301E02C469E43FB
:109F1000C660064B9600F3181E68AE431E601E68AE
:109F200026431E60521C202AE5D3F0BD00070050D6
:109F3000F7B582B002981446806A0F46002833D0E5
:109F4000029800262030009028E00298816A0C20B8
:109F500070430D1820782979421C2270C91C39548D
:109F600020781621421C227039542078C119288883
:109F700000F0ECF921784018C0B22070AA88002ABD
:109F800009D0A96800290FD0C019FEF725F920785B
:109F9000297940182070761C0098F6B2007BB042F8
:109FA000D3D8002005B0F0BD0720FBE7F0B5134E75
:109FB00003278C00A419276000249D00AD192C6094
:109FC0000F4DE9606B61059B0121002B0AD08300D6
:109FD0009B191F6093009B191C602A61A8600848A8
:109FE0004030C1624F2000036862042028600548A9
:109FF0008160016004488460F0BD000000070050EB
:10A00000002500400020004000210040F8B50F4628
:10A01000044601260B4D07E02046641E00280FDB96
:10A020007D20C000FEF756F8A8680128F4D1002C66
:10A0300004DB0020A8600448806938703046F8BD11
:10A040000026F4E7002100400025004010B5084636
:10A050001146C046C04610BD002803D00249C86062
:10A06000002070470E2070477C20002010B500298A
:10A0700001D08C0701D0072010BD064CA160628082
:10A080000549636010DF0028F6D1012020701620FA
:10A090002EDF10BD7C2000204DA00100002803D041
:10A0A00002490861002070470E2070477C20002084
:10A0B000FFB581B0484C0E46039F049A054661786F
:10A0C00003201743002903D1002F0DD00121617017
:10A0D000039AC9B2920000920B00FEF789FC072C8C
:10A0E000071B2E465D6C2C000221F0E7FFF7F0FC09
:10A0F0008708FFF7EDFC70430546FFF7D7FC461EC7
:10A10000FFF7E6FC70433A46294629DF002812D1C2
:10A1100002210FE0304628DF00280CD103990029E6
:10A1200001D0032106E00499002917D129780429D8
:10A1300050D018E0617005B0F0BDFFF7B7FC471EC6
:10A14000FFF7C6FC4743FFF7C3FC70433946039A49
:10A1500029DF0028EFD10499002901D00421E9E783
:10A160002978042925D00521E4E7FFF79FFC471E45
:10A17000FFF7AEFC47436888391800980F18FFF7BF
:10A18000A7FC6988704341180098049A081839465A
:10A1900029DF0028E4D0CEE7FFF79AFC009970434E
:10A1A000401869888A08296929DF0028C3D1002F4F
:10A1B00010D00621BEE7FFF78BFC0646FFF776FCC2
:10A1C000451EFFF785FC68433146FDF7BFFF28DFDA
:10A1D0000028B0D10721ADE74020002010B5FFF7DF
:10A1E000CFFD10BD01200249000508607047000046
:10A1F00000E200E0F0B5174F2421BB684143CD18C1
:10A2000039694A1C09D024244C43E6186A687468EA
:10A21000A24204D8A21A726029623861F0BD0F46CA
:10A2200002E00F46316A121B4C1C0BD024244C4315
:10A23000E61874689442F4D324244C43E418646808
:10A24000A41A74606A60296224214F43F9180862D5
:10A25000F0BD00005820002070B51A4D2B692A4629
:10A260001C461946926806E0814207D00B46242618
:10A2700071438918096A4E1CF6D170BD002EFCD0BE
:10A280008B420CD124204443A018006A2861401C52
:10A2900005D10D4C0120A06000246C616871242060
:10A2A00041438818242441686343006A9B1818625C
:10A2B000431CE2D02423584380184268511841605F
:10A2C00070BD00005820002000100140F8B51D4F5F
:10A2D0003C69601C35D01C48002640687969401AEA
:10A2E00005022D0A19E024204443B868221850685A
:10A2F000A84214D8BB692D1A8619146A002B09D0FC
:10A30000D16990699847002807D000221146FEF7CE
:10A31000A9FC02E09169D0698847601CE3D1B97853
:10A32000F878814206D1401CC0B2F870022801D1F1
:10A330000020F87003490006800D1C310E50FFF715
:10A3400051FFF8BD58200020001501400870000A98
:10A35000487002207047000012494868C005C00DCF
:10A3600019D0103840B2002807DA0207120F083A55
:10A37000920892005118C96904E081080A4A8900CC
:10A38000891809688007C00EC1400806800F01289F
:10A3900003D0032803D0022070470020704701201B
:10A3A0007047000000ED00E000E400E042788378B0
:10A3B000521C934200D100220378934201D1002025
:10A3C00070470A6041684078182250430818704767
:10A3D000F8B51546069C1E4607460222009400F07A
:10A3E0000AF8002806D13346102229463846009440
:10A3F00000F001F8F8BDFFB583B00C9C864600263E
:10A4000020781F463546029036E070464068A90025
:10A41000401801886A4691804088D08000226946B1
:10A4200001A865DF00280FD16846037805988342AC
:10A4300021D1002E01D0002200E0022221789818BC
:10A4400008181F2802D90C2007B0F0BD002E06D135
:10A45000491CC8B2421C0499227039540126207844
:10A460006946C21901A865DF0028EDD16946207848
:10A470000978401820706D1C70460088A842C4DC22
:10A48000002E05D021780298081A0299401E7854AF
:10A490000020D9E774DF04480249C18019218901ED
:10A4A000418070478858000000200020F8B53B4CE0
:10A4B000A168E0684018E0600020A08074DFE1211E
:10A4C0008900E068FDF742FE354D364E002948D13F
:10A4D00025273F0239466069FDF738FE22462C32B7
:10A4E00010460838FFF778FA0004000C05D0BFF3D7
:10A4F0004F8FF560BFF34F8FFEE7FEF745FF6069B2
:10A500003946401C6061FDF721FE244A2C3210467A
:10A510000838FFF761FA0004000C05D0BFF34F8F35
:10A52000F560BFF34F8FFEE71C482C308088800514
:10A5300017D11A48012189022C30FFF777FA606998
:10A5400094218009FDF702FEA0690F46800994213D
:10A550000090FDF7FBFD8F4203D100988001403051
:10A56000A0611920800160800F48E080FEF706FBA3
:10A5700014216088FEF754FBE069FEF753FC0022CB
:10A580004021E069FEF70CFC0004000C05D0BFF38D
:10A590004F8FF560BFF34F8FFEE7F8BD002000201E
:10A5A0000400FA0500ED00E088580000DDDDDDDD87
:10A5B000DCBBBBDDDDDDDDDDDDDDDDDD9888888854
:10A5C00088888888777777777788888885555556FB
:10A5D0006666666666666666666888888333333252
:10A5E00022222222222222222228888D0CA6010049
:10A5F00000200020900000000A8A01009CA60100B3
:10A6000090200020501500001A8A01000600400624
:10A61000000088583C00000000000000000000001E
:10A62000000000000000000000000000000000002A
:10A63000000000000000000000000000000000001A
:10A640000024F400000000000000000000000000F2
:10A6500000000000000000000000000000000000FA
:10A6600000000000000000000000000000000000EA
:10A6700000000000000000000000000000000000DA
:10A6800000000000000000000000000000000000CA
:0CA69000000000000000000000000000BE
:04000005000180C1B5
:00000001FF
