:020000040001F9
:1080000008360020358101004F81010051810100B7
:108010000000000000000000000000000000000060
:10802000000000000000000000000000538101007B
:108030000000000000000000558101005781010090
:1080400059810100598101005981010059810100C4
:108050005981010000000000A98701005981010039
:1080600059810100598101005981010059810100A4
:108070005981010059810100598101005981010094
:10808000598101003989010059810100598101009C
:10809000618901005981010069890100598101004C
:1080A000598101005981010000000000000000001A
:1080B00000000000000000000000000000000000C0
:1080C0000348854600F0AAF900480047899D010051
:1080D00008360020401E00BF00BF00BF00BF00BF29
:1080E00000BF00BF00BF00BF00BF00BF00BFF1D195
:1080F00070470000401E00BF00BF00BF00BF00BFB0
:1081000000BF00BF00BF00BF00BF00BF00BFF1D174
:1081100070470000401E00BF00BF00BF00BF00BF8F
:1081200000BF00BF00BF00BF00BF00BF00BFF1D154
:10813000704700000321094802680A4302600848AA
:1081400002680A4302600748804707480047FEE785
:10815000FEE7FEE7FEE7FEE7FEE70000240500403D
:1081600054050040A1890100C180010030B50B46D3
:10817000014600202022012409E00D46D5409D4201
:1081800005D31D469540491B254695404019154687
:10819000521E002DF1DC30BD70B5002425460028AC
:1081A00001DA01244042002901DA01254942FFF7A2
:1081B000DDFFAC4200D04042002C00D0494270BDEF
:1081C00003460B439B0703D009E008C9121F08C0F0
:1081D000042AFAD203E00B780370401C491C521E9B
:1081E000F9D27047D2B201E00270401C491EFBD2A6
:1081F00070470022F6E710B513460A4604461946B2
:10820000FFF7F0FF204610BD0FB400B58DB0099008
:108210000B9010A900200091C0430A9000200C9000
:1082200006480690064807906A4609A80F9900F08C
:10823000C3F80DB008BC04B018470000D983010092
:10824000F9830100FFB50027FF4383B000205C687D
:1082500001909E681D46A9697F1C0498884700907C
:10826000296A88470028F6D10098401C0CD00320CA
:1082700040028443002E19DD600614D500982B2897
:1082800009D02D280FD103E00020C04307B0F0BD76
:10829000012080020443A9697F1C04988847761E48
:1082A0000090002E02DD0098302803D005980028A9
:1082B00025D035E0012040020443A969761E7F1CC9
:1082C000049888470090002E03DD782805D05828B0
:1082D00003D00598002810D022E00598002801D08E
:1082E00010281DD1012040028443A969761E7F1CFD
:1082F000049888470090102002E0082000E00A203F
:1083000005900DE0012149020C43059A0199761E62
:10831000514308180190A9697F1C04988847009070
:10832000002E05DD0599009800F031F80028E9DA03
:10833000E96904988847A00502D40120C043A5E755
:10834000E00722D1600611D56005019800D54042B2
:1083500029680A1D2A600968220501D5087014E001
:10836000220701D5088010E008600EE02868011D92
:1083700029600068210502D50199017005E02107F7
:10838000019901D5018000E0016038467EE73A2876
:1083900000D23038202302469A43412A01D31046A6
:1083A0003738884201D30020C043704702681378F1
:1083B000511801601846704710B5D16004495161E9
:1083C0000449116200211161114600F041F810BD0D
:1083D000AD830100418401004268002A08D0016891
:1083E0000B78491C002B03D0521E06C0184670475C
:1083F0000121C160881E70474268002A0BD0C36803
:108400000168002B07D183688B4204D0491E521C9F
:1084100006C0002070470020C0437047064C01256D
:10842000064E05E0E36807CC2B430C3C984710341C
:10843000B442F7D3FFF748FEE4BA010004BB0100E1
:1084400010B50F21C0B2490200F09CF910BD000028
:10845000F3B58DB000200A9001200B90002608464D
:108460000C300C460990626901210998904705007B
:108470002ED0252D2DD0216A8847002818D062697A
:10848000012109989047216A88470028F7D1411EA9
:1084900062690998904700E0761CA1690D988847A9
:1084A000216A88470028F7D1E1690D988847DAE703
:1084B000A1690D9888470746A84201D1761CD2E7EA
:1084C000E1690D9888477F1C02D10A98002877D06F
:1084D00046E1002762693D463946099890472A28B7
:1084E0000CD16269012109989047012506E00A2113
:1084F0004F433F18303FEBD4102005436269012100
:1085000009989047014630390A2903D29A498F4287
:10851000DEDCECE7E90600D4984F6C280AD04C2842
:1085200010D0682824D06A282ED074280CD07A283D
:108530000AD00DE062690121099890476C2823D088
:1085400004211CE02020054362690121099890471D
:10855000A760656065284FD026DC582839D01ADC22
:10856000452849D012DC252834D04128B0D143E039
:108570006269012109989047682802D008210D43BB
:10858000E6E70120C002DEE70220DCE7462833D020
:1085900047282CD130E05B287BD061282CD0632881
:1085A00077D0642823D15EE06F284CD009DC6628A0
:1085B00022D0672820D0692826D06E2817D12EE037
:1085C000CAE070284AD073286CD075284BD0782820
:1085D0000DD150E0A1690D9888470546252800D1A6
:1085E0006CE7E1690D9888476D1C00D16DE7B7E035
:1085F0000A2248E00A224FE0012023466A46C0438F
:108600000D99C046C046A0E028464021084360605E
:10861000A807234601D5002235E000223CE020686F
:10862000011D21600068290501D506701BE7290797
:1086300001D5068017E7A90703D5F1170660416049
:1086400011E706600FE72846402108436060A8074D
:10865000234601D5082216E008221DE04849284695
:108660000840606016E02846402108436060A80783
:108670002346BFD5BCE72846402108436060A807D1
:1086800008D5234610220120C0430D99C046C0469C
:108690005BE007E0234610220120C0430D99FFF75D
:1086A000D1FD52E000210C910B460091632802D0CD
:1086B0005B2807D043E0E80601D40120A060012038
:1086C00000903CE062690121099890475E2805D13D
:1086D00001200C90014662690998904721690029A0
:1086E00006D10B4601AA8F00491CD3510829FADB99
:1086F000002835D0216900290ED1C117C90E0918EB
:108700004A11930001AA9A1849094901411A012006
:1087100013688840034313606269012109989047F8
:108720005D28E5D10C98002808D0002001AB81001D
:108730005A58401CD2435A500828F8DB01AB01209C
:108740002246C0430D99C046C04600280ADA401CA4
:1087500006D10B98002803D00020C0430FB0F0BD15
:108760000A98FBE7E90702D10A99491C0A913618D1
:1087700000200B9077E60000CCCCCC0CFFFFFF7FF5
:10878000F1F7FFFF7F2801D9002207E0054B4208DF
:108790009A5CC00700D112091207120F0120904005
:1087A00008407047A4BA0100F0B585B030480569AB
:1087B00000203049C863002654E0142070432E493D
:1087C000096844180120B0402C4909680840002875
:1087D00046D0002002900190E068C04368402168C4
:1087E000084003902046039902F05AFA2048006995
:1087F00068402168084004900498002818D0049824
:1088000068400090E068C0430099484021680840F3
:1088100007463946204602F043FAA068009988438B
:10882000384001906068009908403840029000BFCD
:10883000A068A84303990840019908430190606823
:108840002840039908400299084302900199029830
:108850000843002803D0226901990298904700BF7D
:10886000701CC6B2064800788642A6DB05B0F0BD93
:10887000000500504061004090200020882000202A
:108880008D200020C206D20E01219140014A1160C4
:108890007047000080E200E0C206D20E0121914044
:1088A000014A11607047000000E100E0C206D20EEC
:1088B00001219140014A11607047000000E200E090
:1088C00010B5002819DA1A4A03071B0F083B9B084A
:1088D0009B00D2588307DC0EFF23A3409A438B07EB
:1088E0001B0E8407E40EA3401A43114B0407240F08
:1088F000083CA408A4001A5118E00E4A03231B02E6
:10890000D21883089B00D2588307DC0EFF23A340B4
:108910009A438B071B0E8407E40EA3401A43054BB2
:10892000032424021B198408A4001A5110BD00005E
:108930001CED00E000E100E010B5002007490860F0
:108940000021064841608160C16000200349403930
:108950000860486002F066FE10BD00004011014052
:1089600010B502F00FFD10BD70B50C48006800286E
:1089700010D00A4800688047044600BF2546002DF5
:1089800006D000BF00221146284600F05BF900BF68
:1089900000BF01E001F046F870BD0000C0200020DB
:1089A00010B501F0B9F8002805D00748074948601C
:1089B000C8130749886101F093F8002802D001200C
:1089C0000449886010BD0000DFFF07C000050040BB
:1089D000006C00400006004030B47446641E2578E8
:1089E000641CAB4204D3635D5B00E31830BC1847E2
:1089F0001D46F8E702E008C8121F08C1002AFAD194
:108A000070477047002001E001C1121F002AFBD10E
:108A10007047F8B504460F4615460026002028701A
:108A20002078002809D02A463946204601F0F1FA7C
:108A30000646002E01D03046F8BDA078002808D0A8
:108A40002946384600F02CFA0646002E01D0304662
:108A5000F2E7E07800280ED002212A78501C287016
:108A6000B95401212A78501C2870B954E1782A7829
:108A7000501C2870B954606800280BD00020616831
:108A800008562A46394602F020FE0646002E01D03E
:108A90003046D1E7208900280CDD3B460622022122
:108AA00020460830009502F0A8FE0646002E01D0B0
:108AB0003046C1E7208A00280CDD3B46072203210F
:108AC00020461030009502F098FE0646002E01D098
:108AD0003046B1E7208B00280CDD3B4615221421DF
:108AE00020461830009502F088FE0646002E01D080
:108AF0003046A1E7206A002809D02A463946206A74
:108B000000F05EFD0646002E01D0304694E7606A14
:108B1000002809D02A463946606A01F045FA06461F
:108B2000002E01D0304687E72C20005D002809DDAB
:108B30002A463946204602F023FA0646002E01D086
:108B4000304679E7304677E70146C878042210407E
:108B5000002801D1072070470020FCE710B5302124
:108B60001E48FFF746FB01201C490870082048708A
:108B7000002088701A480078C87030211948FFF723
:108B800038FB194819490880182088801849174867
:108B900081601449486217480078154908751548DE
:108BA000407848751348807888751248C078C87531
:108BB0001148006808600B49084800F0CFF90F49D8
:108BC000086000BF08460368002B05D000BF0022E4
:108BD0001146184600F036F800BF10BD30210020C5
:108BE00054200020602100208158000090210020A6
:108BF000002100200D2000202420002050200020F3
:108C000070B586B004460D4618216846FFF7F1FAA4
:108C100000216846017000200190684601720482BC
:108C2000458273DF064600BF3346002B05D000BFE8
:108C300000221146184600F005F800BFFFF78EFF2E
:108C400006B070BD00BFBFF34F8F04480449C86031
:108C5000BFF34F8F00BF00BFFEE700000400FA051E
:108C600000ED00E0F8B505460C462778A068000145
:108C700005490E58608800902A463946204608303B
:108C80002369B047F8BD00004425002070B50346B5
:108C90000C4619480068002801D1082070BD002A40
:108CA00001D10720FAE7002B01D10720F6E70021C8
:108CB0001CE024204843104D2D68285C002814D166
:108CC0000125242048430C4E36683554242048435F
:108CD000094D2D684019447024204843064D2D68E5
:108CE0004019826119600020D8E7491C03480078C8
:108CF0008142DEDB0420D1E7982000209420002070
:108D0000FFB581B00E4617461C4620468107890FE5
:108D1000002901D1012100E00021002902D1072012
:108D200005B0F0BD002C01D10720F9E701F06AFF82
:108D300026490A98086026480670264804600025DF
:108D40000CE0002124206843224A12681154242098
:108D50006843204A1268801801756D1CB542F0DB2B
:108D600024207043041903201B4908701B48046029
:108D7000183400250CE0E900184A12688818002110
:108D80000170417087704460182179430C196D1C83
:108D9000032DF0DB0020C043114908600020114979
:108DA0000870114908701420FFF76CFD032114208E
:108DB000FFF786FD1420FFF76FFD019801F0F8FE24
:108DC00001F0F0FE094908600020A9E7B820002062
:108DD00094200020982000209C200020A02000202B
:108DE000A4200020B4200020B5200020A8200020CE
:108DF000FEB504460D46164616480068002801D107
:108E00000820FEBD14480078844201D2052D01D20D
:108E10000720F6E7242060430E490968085C012812
:108E200001D00820EDE7242060430A490968401872
:108E30004078012801D1284600E00020074602F0D2
:108E4000B3FC3B462A4621460096019002F0A0FB67
:108E5000D7E70000982000209420002070B5044639
:108E60000D480068002801D1082070BD0B4800782B
:108E7000844201D30720F8E72420604306490968AB
:108E8000085C012801D00820EFE702F08DFC0546C0
:108E9000214602F0A7FBE8E798200020942000205C
:108EA000F8B505460C462078001D1F2801DD0C2072
:108EB000F8BD684679DF0646002E01D03046F7E758
:108EC00003212278501C2070A95419212278501CAB
:108ED0002070A954207841196846008802F00DFCE2
:108EE0002178401820700020E2E7000070B50446A9
:108EF00000201649486020020821084314494860B0
:108F0000012008601349086000201349086000250B
:108F100001E0681CC5B210480068002801D1FF2D8F
:108F2000F7DB00200C49086001200A494860002056
:108F30000749086089684B22120151430846FF2106
:108F4000FFF714F94100401880B270BD0073004073
:108F5000007500400070004000710040F3B593B010
:108F60000D460021129111911398002814D01398E6
:108F7000FFF7EAFD0446002C02D0204615B0F0BDF4
:108F800012AA09A91398FFF744FD0446002C01D04A
:108F90002046F3E709AE00E00026002D13D0284656
:108FA00002F0E2F80446002C01D02046E6E711AAC0
:108FB00001A92846FFF72DFD0446002C01D02046CC
:108FC000DCE701AF00E0002710A803793A46017AF8
:108FD000304672DFD2E7000070B505461C222946F4
:108FE0001448FFF7EDF8002013490870286800289E
:108FF0000BD0082211482968FFF7E2F80F487ADF02
:109000000446002C08D0204670BD0C487BDF044687
:10901000002C01D02046F7E70020C0430849088013
:10902000002008490870084A00210848FFF72EFE72
:10903000EAE700005C240020782000206020002067
:109040006A200020682000200DB701007420002055
:1090500010B50446204601F051F810BD7FB500BFA1
:10906000002348222949082002F03EF8054600BFA7
:109070002B46002B05D000BF002211461846FFF7F3
:10908000E1FD00BF00BF0020029003906946087216
:1090900002A860DF044600BF2346002B05D000BFB6
:1090A000002211461846FFF7CDFD00BF012069469A
:1090B0000870242068DF044600BF2346002B05D03B
:1090C00000BF002211461846FFF7BCFD00BF104844
:1090D00001F0FEFF044600BF2346002B05D000BF71
:1090E000002211461846FFF7ADFD00BF094802F007
:1090F0002FF8044600BF2346002B05D000BF0022F6
:1091000011461846FFF79EFD00BF7FBDD421002009
:10911000519001002DB301000007000F0A2803DA67
:1091200001463031C8B202E001463731C8B270475B
:109130007FB50024354800883549884264D03548D9
:109140000078002860D000200090019002900390E9
:109150003148C188684601800121817000218180E9
:109160002E4802904DE0232109022D480088FFF788
:1091700013F88DB22B4A29462B4801F0A5F9044675
:1091800000BF2346002B05D000BF00221146184621
:10919000FFF758FD00BF002310222249234801F0A9
:1091A0009DFA044600BF2346002B05D000BF0022D5
:1091B00011461846FFF746FD00BF1C48039069465C
:1091C00012480088A6DF04461948844204D0082CBF
:1091D00002D01848844200D114E0002C05D000BF12
:1091E000002211462046FFF72DFD0D48018800881A
:1091F000401E0B4A1080002903D100200549087049
:1092000000E0B0E700BF00BF7FBD000008200020E5
:10921000FFFF00000C200020D82000204E2000205E
:109220004C200020402000202C2000202021002065
:109230000430000001340000F0B587B00F27554816
:109240000078142148435349091D4418E5682078E3
:10925000022804D0042823D005287CD16AE02069A4
:1092600005904D48008886026088801B069005980E
:1092700080190590A0888019451901218902069856
:10928000884206D2069882082846059929DF0746B3
:1092900005E0FF2201322846059929DF07466FE0E5
:1092A000A06800013D49401800890690A0680001AF
:1092B000401840890590A06800014018406804905B
:1092C0000498A84205D105990698484361888842C8
:1092D00002D0A0688D280DD101F0AAF901460390B3
:1092E0002846FEF743FF2C4909884618304628DFF8
:1092F00007461EE001F09CF9014601902846FEF762
:1093000035FF064601F094F97043281A800803904F
:1093100001F08EF9711C484361884919401A800890
:10932000029031462046029B039A01F025FF074632
:1093300000BF25E001F07CF9014604902846FEF7C5
:1093400015FF064601F074F97043A1884919081AFF
:109350008008069000E012E001F06AF9711C4843B1
:10936000A188491962888918401A800805903146F9
:109370002046059B069A01F0FFFE074600E000BF6D
:1093800000BF002F02D1012002498870384607B083
:10939000F0BD000078240020842000204425002017
:1093A00010B500240848407800280BDD0648807876
:1093B000002807D1FFF740FF0446002C02D0112CF3
:1093C00000D10024204610BD782400200023142161
:1093D00041430C4A53541421414389184B808C2338
:1093E0001421414389188B600023142141438918BB
:1093F000CB601421414389180B6114214143891822
:109400008B8070477C240020FFB581B0064617464C
:109410000024224840780A283CD0204800781F4980
:1094200049784018C4B20A2C02DB20460A38C4B27C
:10943000142060431949091D0E5400221420604372
:1094400040184270142060434018076114206043A4
:109450004118029805C8CA608860142161430F4A08
:10946000121D8918049848801421614389180A98AC
:1094700088800025101F8078002805D1FFF7DCFECA
:109480000546112D00D1002504484078401C0349B1
:10949000487000E00425284605B0F0BD782400207F
:1094A00010B500200849088008490870084908706C
:1094B00048708870002403E02046FFF787FF641C93
:1094C0000A2CF9D310BD0000842000208720002042
:1094D00078240020FEB51E480068401C002834D0C7
:1094E0001B480068242148431A4909684018456808
:1094F00001F058FB0190184804682146019801F0DA
:109500001BFFC61C15480078002801D101F05CFB48
:10951000AE4201D2284600E0304604192402240A53
:1095200020460F49086000BF01F03CFB0090019904
:10953000009801F001FFC71C2046019901F0FCFED4
:10954000874201D902F0BCF801E001F05BFBFEBDEF
:10955000A420002098200020A8200020BC2000206B
:109560004015014001460888062808DB08881922B2
:10957000D201904205DD0888104A904201D00720B0
:1095800070474888062808DB48881922D201904293
:1095900005DD4888094A904201D00720F0E7088895
:1095A000064A904208D04888904205D008884A88E8
:1095B000904201DD0720E3E70020E1E7FFFF000024
:1095C000F8B506460D4614462078801D1F2801D99F
:1095D0000C20F8BD3046FFF7C5FF0746002F01D02D
:1095E0003846F6E705212278501C2070A954122134
:1095F0002278501C2070A95422785119308802F02A
:109600007CF821784018207022785119708802F077
:1096100074F82178401820700020DAE7034600BF74
:10962000002211461846FFF70DFB000010B588B068
:109630001C2101A8FEF7DDFD002001900520C003DC
:1096400002900F200004039003216846017400215A
:10965000418201750A4806900A48079001A8FFF761
:10966000BBFC044600BF2346002B05D000BF0022F0
:1096700011461846FFF7E6FA00BF08B010BD00001B
:10968000F5A301001D96010010B514484068C105FE
:10969000C90D002920D00A46103A50B200280DDA30
:1096A0000E4B1C330407240F083CA408A4001B59CC
:1096B0008407E40EE3401B069B0F0BE0084B0324DA
:1096C00024021B198408A4001B598407E40EE340FC
:1096D0001B069B0FD8B210BD0420FCE700ED00E094
:1096E00000E100E0014614480078144A12789042E4
:1096F0001DD011480078401C0F4A107010460078A9
:10970000022801D1002010700B48007880000C4A1C
:10971000105808600B4A086812688018094A1060DF
:10972000104600680002000A106001207047002007
:10973000086000BFFAE70000B4200020B520002038
:10974000AC200020A820002010B5029C10BD000015
:10975000F0B50346002426E0164E366824277E43E3
:10976000154F3F68F01946689E4203D94668F61ABD
:1097700046601DE046689B1B46683419002646601B
:1097800006750C4E35680B4F066A3E600669002E62
:1097900008D00E193602360A86600669C660166859
:1097A0000662156000BF03480068401C0028D3D142
:1097B00000BFF0BDA42000209820002030B585B067
:1097C00000BF6846007A01090901491C02916846F8
:1097D000007AF02188431030029000BF684671DFA4
:1097E0000324694689790811FFF796FC0146224651
:1097F000641C4B48815469468879FFF78DFC01460B
:109800002246641C46488154694649790811FFF78D
:1098100083FC01462246641C4148815469464879CC
:10982000FFF77AFC01462246641C3D488154694694
:1098300009790811FFF770FC01462246641C38487C
:10984000815469460879FFF767FC01462246641C8B
:10985000334881546946C9780811FFF75DFC2146F9
:10986000621CD4B22E4A50546946C878FFF754FCA3
:109870002146621CD4B22A4A50546946897808119C
:10988000FFF74AFC2146621CD4B2254A505469466F
:109890008878FFF741FC2146621CD4B2204A50541C
:1098A000694649780811FFF737FC2146621CD4B29B
:1098B0001B4A505469464878FFF72EFC2146621C2B
:1098C000D4B2174A50540F22154902A87CDF05462E
:1098D00000BF2B46002B05D000BF002211461846C2
:1098E000FFF7B0F900BF00200390049008216846FC
:1098F00081811321C181042101822821418203A891
:109900007ADF054600BF2B46002B05D000BF0022A2
:1099100011461846FFF796F900BF05B030BD0000AC
:109920000D200020FEB5002501203549C863002028
:10993000102302460421009001F068FB0820012159
:109940008140304A916000BF00BF02A9042001F0AD
:1099500091FB0028F9D12C48002101604160816011
:10996000C1602A48016041608160C16000261EE03C
:1099700002A9042001F07EFB002816D06846027A76
:109980002846691CCDB220490A54681E085C0A2882
:1099900001D0102D09DB1D480830831E021F1CA1B9
:1099A00000901948FEF730FC03E0701CC6B2322E5E
:1099B000DEDB00BF00201249C863082000F096FBE0
:1099C00001A852DF15480068104908601020FFF711
:1099D0008DFA0E4948810198C86000231022104872
:1099E00000F094FF044600BF2346002B05D000BFC3
:1099F000002211461846FFF725F900BFFEBD000002
:109A0000C02F0040000500509C210020AC21002008
:109A10002568782568782568780A000024200020C9
:109A200040200020F8B529480078002800D1F8BD72
:109A300027480068002801D1012000E000200546E9
:109A400024480068002801D1012000E000200646DB
:109A500000BF002D14D1684651DF0446052C01D10A
:109A600001250CE0002C06D000BF00221146204644
:109A7000FFF7E8F803E0164900980968884700BF37
:109A8000002E1AD1144800880090694613480068D7
:109A900061DF0446052C01D101260DE0002C06D023
:109AA00000BF002211462046FFF7CCF804E00B4827
:109AB000006808490968884700BF002D02D0002EC1
:109AC00000D000E0C5E700BF00BFB0E7C420002021
:109AD000D4200020D0200020CC200020C82000204E
:109AE0000C48008CC0B2012812D10A48808C0007B3
:109AF000000F00280CD10748806AF0210840402858
:109B000006D10448C06A0840002801D101207047EE
:109B10000020FCE7C00F00F01948008CC0B20128FB
:109B20002CD11748808C0007000F002826D114483C
:109B3000806AF0210840002806D11148C06A084018
:109B4000002801D1012070470D48806AF0210840AB
:109B5000102806D10A48C06A0840002801D1012017
:109B6000F1E70748806AF0210840302806D1044810
:109B7000C06A0840002801D10120E4E70020E2E7A4
:109B8000C00F00F001468807800F002801D1012096
:109B900070470020FCE70000FEB52B4800680190EC
:109BA0002A480078009040E00098C00028490968E1
:109BB0004418257835E01820684361680F18681C40
:109BC000C5B2A078A84200D100253878022802D07A
:109BD000032823D10EE02421786848431D490968F1
:109BE0004618307D002804D0786801F06BFC002016
:109BF000307514E00CE01449096824225143154AD9
:109C000012688818002101750F4A016A116000BFAF
:109C10000D480068401C0028EDD100E000BF00BFE7
:109C200000BF6078A842C6D100BF0098411EC9B2EB
:109C300000910028B8D1044801680198814201D000
:109C40000120FEBD0020FCE7A42000209C20002075
:109C5000A020002098200020FEB507464348006859
:109C6000029043480078019071E00198C00041499A
:109C70000968451863E0781C002807D03E46242078
:109C800070433D4909684418276A29E02978182358
:109C900059436A6850182978491C29702978AA788C
:109CA000914201D100212970466824217143324A32
:109CB00012688C180178012902D1217D002900D079
:109CC0003DE08168A160C168E1600169216141698D
:109CD000E1612A490978002901D00021A16000BF73
:109CE0002749A0680968401A0002000A25498842ED
:109CF00008D22349A068096801F01EFBE1684018FA
:109D0000606011E01E48A168006801F015FB00903A
:109D1000E1680098814204D9E1680098081A6060FF
:109D200001E00020606000BF0020A060E060012032
:109D30002075801E2062304601F056FB00BF781C63
:109D4000002898D128786978884294D100BF01987A
:109D5000411EC9B20191002887D1044801680298C8
:109D6000814201D00120FEBD0020FCE7A42000209C
:109D70009C200020A020002098200020BD20002052
:109D8000A8200020FFFF7F000EB500BF0020794B08
:109D9000052203210090FEF7B3FF054600BF2B46C6
:109DA000002B05D000BF002211461846FEF74AFFDF
:109DB00000BF00BF704A01217048FEF767FF0446EC
:109DC00000BF2346002B05D000BF002211461846D5
:109DD000FEF738FF00BF6A4A00216A48FEF756FFC7
:109DE000044600BF2346002B05D000BF00221146C9
:109DF0001846FEF727FF00BFFFF730F903200521C3
:109E000009070722120289180862082000F06EF97B
:109E1000C82000F049F900F011FC102168460181CA
:109E200023210902418158480190584901A800F0B6
:109E3000CBFC044600BF2346002B05D000BF002208
:109E400011461846FEF7FEFE00BF0020504908608C
:109E500037E04F48008881B24E4A4C4800F034FB4E
:109E6000044600BF2346002B05D000BF0022114648
:109E70001846FEF7E7FE00BF00231022454946487A
:109E800000F02CFC00BF2346002B05D000BF0022B1
:109E900011461846FEF7D6FE00BF3F48001F8168F6
:109EA000C0680023DB4359405840014300D10EE015
:109EB0003948001F3949086035480068401C34495A
:109EC000086033480068232109028842C1D300BFDB
:109ED0002F4800788006800E002823D12C48008867
:109EE00081B22C4A294800F0EFFA044600BF23460D
:109EF000002B05D000BF002211461846FEF7A2FE37
:109F000000BF01218902234800F026FB044600BF60
:109F10002346002B05D000BF002211461846FEF74D
:109F200091FE00BFFFF74AFC00F0FAFEFFF77EFB50
:109F300000F094FE00220121C90310480068FEF7DA
:109F400057FFFFF7EFFC002310221049124800F0E2
:109F5000C5FB0F480068401C0D4908601048008888
:109F600081B210480088FEF74BFE00BF00F09CFA5B
:109F7000FCE700001C22002021B90100582000202D
:109F800001B9010048200020499701002C20002041
:109F90003420002040200020042100202420002024
:109FA0002020002000200020F8B505460E4614466B
:109FB0002879801CC7B22078801CC0191F2801DDB9
:109FC0000C20F8BD781CC1B22278501C2070B1540E
:109FD000FF212278501C2070B154227891192888D2
:109FE00001F08BFB217840182070A88800280EDD36
:109FF000A868002801D10720E3E7AA8823789819E8
:10A00000A968FEF7DDF82078297940182070002033
:10A01000D7E7F7B584B004460F4606980678B01C1B
:10A020001F2803DC6078801C1F2802DD0C2007B08D
:10A03000F0BD1F20801B801E85B20295B11C7818D0
:10A0400002A97DDF03900398002801D00398EEE772
:10A050002078022808D168460089A84204DC09203B
:10A060000190684605890BE008200190607800287F
:10A0700004D06078A84201DC657801E06846058973
:10A08000681CC2B23046711CCEB23A543046721CC3
:10A09000D6B20199395406980178A81C0818C1B2A3
:10A0A000069801700020C2E701B505E00098401E47
:10A0B00000900348FEF71EF800980028F6D108BD6E
:10A0C000E703000010B58A0005231B0707242402BC
:10A0D0001B1984001A5110BD032105221207072302
:10A0E0001B02D2188300D15070470000012181402B
:10A0F000014AD1607047000000050050F0B585B0FE
:10A100000546288819287DD00EDC13287BD006DC74
:10A11000012879D0102878D0112877D1CAE01428E6
:10A1200075D01728F9D1FFE0502871D004DC1E2823
:10A1300007D03928F1D129E152286AD05528ECD12D
:10A1400025E1287A582875D1687A812872D19A48F1
:10A1500000689A490968884263D223210902964817
:10A160000068FEF703F80F46954A964800F0ACF9F0
:10A17000044600BF2346002B05D000BF0022114635
:10A180001846FEF75FFD00BF002310228C498E4861
:10A1900000F0A4FA8948008887490988401A8A494A
:10A1A000091F4882FEF7DAFC83480068401C824998
:10A1B00008600846006881490968884209D374DF4D
:10A1C000044682480068FEF749FE00208049088066
:10A1D00030E07E480068FEF741FE00227D497B4862
:10A1E0000068FEF705FE7A480088C82822DD73481B
:10A1F000006871490968401A10281BD974DF96203D
:10A20000734907E0BCE066E04DE014E0D0E08CE08C
:10A210004CE076E008800A216D480088FEF7F0FCEB
:10A2200008E074DF044669480068FEF717FE002066
:10A2300067490880BDE0A888674908800A20674907
:10A240000880082168460181132141810421818110
:10A250002821C18102A96048008875DF044600BF3B
:10A260002346002B05D000BF002211461846FEF7FA
:10A27000E9FC00BF002000900190042168460180A5
:10A280000021418056480190564AD189508C6A4637
:10A29000A4DF044654480190524AD18A508C6A4641
:10A2A000A4DF044685E0FEF743FF82E0284600F085
:10A2B000B9F87EE00020C0434749088000204749A4
:10A2C000088019208001424908800A2140480088FE
:10A2D000FEF796FC6DE00020444908600B46444AB6
:10A2E00000213D4800887FDF044600BF2346002B45
:10A2F00005D000BF002211461846FEF7A3FC00BFA0
:10A3000057E000231A46194633480088A9DF04465F
:10A3100000BF2346002B05D000BF0022114618467F
:10A32000FEF790FC00BF44E043E03048006800289E
:10A3300013D02E48066800231A4631462648008866
:10A3400082DF044600BF2346002B05D000BF002259
:10A3500011461846FEF776FC11E000231A4619460E
:10A360001D48008882DF044600BF2346002B05D02D
:10A3700000BF002211461846FEF764FC00BF18E03B
:10A38000A879002801D11249088012E000BF1321EA
:10A390001148008876DF044600BF2346002B05D015
:10A3A00000BF002211461846FEF74CFC00BF00E03B
:10A3B00000BF00BF05B0F0BD3820002034200020D1
:10A3C000402000202C2000200421002048200020D4
:10A3D00000200020CD8C0000082000203C20002020
:10A3E0004C200020D82000200D200020BC2100207F
:10A3F0000220002070B50546287800280FD13B21A7
:10A400000748008876DF044600BF2346002B05D0AE
:10A4100000BF002211461846FEF714FC00BF70BDB5
:10A420000820002070B50546AC1D20881A49C9894E
:10A43000884206D1208B022803D1608B17490880FF
:10A4400029E020881449C98A88420CD1208B04282D
:10A4500009D1A07E12490870E07E4870207F887084
:10A46000607FC87017E021880B484089814212D173
:10A47000208B02280FD100BF00BFA17EE27E120216
:10A4800011430846C107C90F06480170007800282B
:10A4900001D0FEF74DFE70BDD82000204C200020DA
:10A4A0000D2000200C20002010B548DF044600BF1E
:10A4B0002346002B05D000BF002211461846FEF7A8
:10A4C000C1FB00BF10BD00003CB5034600BF2048E3
:10A4D0000078002801D108203CBD00BF002B01D12D
:10A4E0000E20F9E7002A01D10E20F5E718688C2824
:10A4F00005D218680001174C2058002801D1072008
:10A50000EAE75C68186801940090019C18680001F3
:10A51000104D40190089484320180190009800010F
:10A520002C4600194089009C240164192489604349
:10A53000009C2401641964680019019CA04201D8A0
:10A540000720C9E7019C0098546010600020C3E711
:10A550008620002044250020F8B504460D4600BFA3
:10A5600027480078002801D10820F8BD00BF002C42
:10A5700001D10E20F9E720688C2805D2206800015F
:10A5800020490858002801D10720EEE72068000183
:10A590001C4940184089216809011A4A891809890B
:10A5A0004843216809018918496840186168884250
:10A5B00001D80720D9E76068FFF7E4FA002801D145
:10A5C0001020D2E723681B010E4FDB1962685B681D
:10A5D000D01A226812013B46D2181189FDF7C6FD38
:10A5E000002901D00720C0E700202B460246214663
:10A5F00000900420FEF708FF06463046B5E700004D
:10A60000862000204425002070B508484469601C5D
:10A61000002807D000F00CF8054629462046FDF733
:10A62000A5FD70BD012000074069FAE70010001089
:10A6300001200007006980B270470000F8B5FEF7FE
:10A640002FFF00201E490880FFF7DEFF05468D3DE5
:10A65000FFF7EEFF45431B48056000201A490880BC
:10A6600000BF0DE000210201184B99500201D218E1
:10A6700011810201D21891810201D2185181401C2E
:10A680008C28EFD3082012490870FFF7D1FF009003
:10A69000FFF7BAFF471EFFF7CBFF47433E46304662
:10A6A0000099FDF763FD054628DF0446002C04D120
:10A6B000012008498870084908702046F8BD00004C
:10A6C0007C200020802000208420002044250020C1
:10A6D000872000207824002086200020FFB581B04C
:10A6E0000C4615461E4600BF35480078002802D1AA
:10A6F000082005B0F0BD00BF002C01D10E20F8E706
:10A700000198002801D10E20F3E720688C2805D29B
:10A71000206800012B490858002801D10720E8E7EC
:10A720002068000127494018408921680901254A0D
:10A73000891809894843216809018918496840181E
:10A740006168884201D80720D3E7002D06D0206831
:10A7500000011C4940180089A84201DA0720C8E717
:10A76000A81921680901174A89180989884201DD59
:10A770000720BEE70198FFF705FA002804D030460D
:10A78000FFF700FA002801D11020B2E76068FFF758
:10A79000F9F9002801D11020ABE7606881192A4639
:10A7A0000198FDF70DFD00952068000105490F583F
:10A7B000002203212046019BB847002099E70000B2
:10A7C0008620002044250020F8B504460D4600BF31
:10A7D0004A480078002801D10820F8BD00BF002CAD
:10A7E00001D10E20F9E7002D01D10E20F5E72068F8
:10A7F000002801D10E20F0E7FFF71AFFA188884258
:10A8000002DBA088102801DA0720E6E7E0880028AC
:10A810001CD0FFF7F9FE471EFFF70AFF4743E08809
:10A82000A188484336490968401887420ED3FFF78C
:10A83000FFFEE188A2885143884209DAFFF7F8FE5B
:10A840000746A188FDF7A8FC002901D00720C4E72E
:10A8500020798007800F002801D00720BDE7294814
:10A8600000888C2801D10420B7E72648008828609A
:10A87000234800686860234909880901224A891829
:10A88000686848601F490988090120685050A088FD
:10A890001C490988090189180881E0881949098833
:10A8A00009018918488100200090A688E1884E435C
:10A8B00000BF0098401C80B20090FFF7B9FEB04284
:10A8C00003D2FFF7B5FE361A00E00026FFF7B0FE10
:10A8D0000B49096840180A490860002EE9D1094966
:10A8E00009880901084A8918009888810548008864
:10A8F000401C0449088000206FE7000086200020EB
:10A90000802000207C20002044250020F8B504464B
:10A910000E4615461F4600BF2F480078002801D17B
:10A920000820F8BD00BF002E01D10E20F9E7002C51
:10A9300001D10E20F5E720688C2805D2206800019F
:10A9400026490858002801D10720EAE720680001BD
:10A9500022494018408921680901204A891809893B
:10A96000484321680901891849684018616888428C
:10A9700001D80720D5E7002D06D02068000117492F
:10A9800040180089A84201DA0720CAE7E8192168BF
:10A990000901124A89180989884201DD0720C0E7A8
:10A9A0003046FFF7EFF8002804D03846FFF7EAF802
:10A9B000002801D11020B4E76068FFF7E3F8002811
:10A9C00001D11020ADE72B463246214602200097E8
:10A9D000FEF71AFDA5E70000862000204425002090
:10A9E000F0B585B0064600256A48807801287DD1FB
:10A9F00000206849887068480078082819D1022E1C
:10AA000003D100206449087002E000206349087007
:10AA1000FEF7C6FC0546002D09D05E4800781422DA
:10AA200050435C4A121D81182846FEF71BF905B0F9
:10AA3000F0BD022E02D0032E7ED183E0554800786F
:10AA4000142148435349091D441855480088401CA7
:10AA5000534908802078022807D1084600888002E0
:10AA60006188884201DB012000E00020039020780B
:10AA7000052805D148480078072801D1012000E0C9
:10AA8000002002902078042805D143480078072848
:10AA900001D1012000E000200190207804280BD192
:10AAA0003F48008880026188884205DB3A48007888
:10AAB000002801D1012000E0002000900298002829
:10AAC00008D10198002805D10098002802D10398E8
:10AAD000002825D02F48077800202F4908703049DA
:10AAE00008802C484078401E2A4900E050E0487019
:10AAF00008460078401C0870084600780A2803DBE6
:10AB0000084600780A38087014207843214A121D3C
:10AB100081182846FEF7A6F83846FEF757FC00BF16
:10AB2000FEF73EFC0546002D0BD01A480078142293
:10AB30005043184A121D00E027E081182846FEF70E
:10AB400091F823E013480078142148431149091D66
:10AB500044186078401CC0B26070032809D1081FF7
:10AB60000078142250430A4681180D20FEF77AF827
:10AB70000AE0FEF761FB0546002D05D0112D03D03C
:10AB800021462846FEF76EF800E000BF00BF00BF78
:10AB900000BF4CE77824002087200020862000207A
:10ABA00084200020014840687047000000150140E3
:10ABB00010B504460348846003211120FDF780FE90
:10ABC00010BD00000015014010B5012000040A4925
:10ABD00048600949403948601120FDF753FE1120B3
:10ABE000FDF75AFE0120054908602F20FDF792FA73
:10ABF00001200349087010BD4013014000100140BE
:10AC0000BC20002010B51120012181400E4A1160A6
:10AC100000BF012000040D4988600C49403988605C
:10AC200001200B4948602F20FDF774FA01200849E4
:10AC300088600020074908602F20FDF76BFA00208C
:10AC40000549087010BD000080E100E0401301409C
:10AC500000100140A8200020BC2000200F480078F0
:10AC600040084000401C0D49087008460078022149
:10AC700088430A490870084600781C2188430C3034
:10AC80000649087008460078202188430349087067
:10AC900007204870102088707047000002200020B4
:10ACA000F0B502460C46002037E0012383401946E8
:10ACB00023460B40002B2FD0D5680D40002D05D129
:10ACC00001235B04D5680D43D56004E003231B0416
:10ACD000D5688D43D56005252D0707263602AD19A9
:10ACE0008600AD5903263604B543052636070727E7
:10ACF0003F02F6198700F55105252D070726360274
:10AD0000AD198600AD591D430526360707273F02BA
:10AD1000F6198700F55100BF401C2028C5D3F0BDAF
:10AD200010B590B000BF0121684681729049018141
:10AD300000BF904A02A90120A0DF044600BF2346BD
:10AD4000002B05D000BF002211461846FDF77AFF00
:10AD500000BF0020089000BF08A800780109090181
:10AD6000491C08A801700078F0218843103008A918
:10AD7000087000BF00BF08A8407801090901491CFC
:10AD800008A841704078F0218843103008A9487025
:10AD900000BF08A8807806218843811C08A881701C
:10ADA0001C2109A8FDF725FA00200A900C900D90AF
:10ADB00008A80079C006C00F002801D008A800E04C
:10ADC00000200E9008A80079C007C00F002801D00D
:10ADD00008A800E000200F900020019000BF684606
:10ADE000007901090901491C684601710079F021C7
:10ADF000884310306946087100BF00BF684640793B
:10AE000001090901491C684641714079F0218843D4
:10AE100010306946487100BF684680790621884332
:10AE2000811C684681718079082188430146684603
:10AE3000817180791021884301466846817180794B
:10AE40004108490068468171142103A8FDF7D1F932
:10AE500008A8007902218843014608A801710079F9
:10AE600008218843014608A8017100791021884310
:10AE7000411808A8017101A8049010216846818238
:10AE80000021C182102101830020079000BF012111
:10AE9000684681723849018100BF02A80390374992
:10AEA00088888B1D03AA09A9A2DF0446142103A8E0
:10AEB000FDF79FF908A8007902218843811C08A8A2
:10AEC0000171007908218843411808A801710079AF
:10AED00010218843014608A8017101A804900221AD
:10AEE000684681820021C1820221018300200790EF
:10AEF00000BF0121684681721F49491E018100BFC0
:10AF000002A803901D4988880B460E3303AA09A99D
:10AF1000A2DF044604216846818208A80079C006A1
:10AF2000C00F002801D008A800E000200E9008A85B
:10AF30000079C007C00F002801D008A800E0002059
:10AF40000F9004206946088300BF01216846817282
:10AF500009491B39018100BF02A80390074988886D
:10AF60000B46163303AA09A9A2DF044610B010BD90
:10AF70000A1800000A200020442A0000D8200020DF
:10AF8000FEB507460E461446B86A002801D10720D0
:10AF9000FEBD0020019032E0B96A0C2201985043B6
:10AFA0000D182879801CC0B200900098401CC1B2D6
:10AFB0002278501C2070B15416212278501C207029
:10AFC000B15422789119288800F097FB2178401815
:10AFD0002070A88800280EDDA868002801D107206D
:10AFE000D6E7AA8823789819A968FDF7E9F82078A8
:10AFF0002979401820700198401CC0B201902C2083
:10B00000C15D01988142C7DC0020C1E7F8B5074661
:10B010000C4615461E462046FFF75EF800213046D6
:10B02000FFF750F81048C4604661069800280DD01C
:10B030003846FFF751F800212846FFF743F80A4841
:10B0400005618760012008494031C8624F20000334
:10B0500005494862042008600120044988600860AE
:10B06000002003498860F8BD002500400020004012
:10B070000021004070B504460D4601260AE0204636
:10B08000641E002804DB7D20C000FDF723F801E0EA
:10B09000002603E0074880680128F0D100BF002C9B
:10B0A00005DB00200349886003488069287030462A
:10B0B00070BD0000002100400025004070B506462C
:10B0C0000C46154629462046C046C04670BD0000C5
:10B0D0000146002901D10E2070470248016000207E
:10B0E000FAE70000D0200020FFB581B00C461646DC
:10B0F0001F46002C02D1072005B0F0BD2046810775
:10B10000890F002901D1012100E00021002901D18E
:10B110000720F1E7094804600948068009480760EC
:10B120000949019810DF0546002D01D02846E3E7C4
:10B1300001200649087016202EDFDDE7C820002018
:10B14000CC200020C0200020BDB00100C420002081
:10B150000146002901D10E207047024801600020FD
:10B16000FAE70000D42000200146C878002801D06A
:10B17000072070470020FCE7FFB583B00446154662
:10B1800003266948007800280BD1002D06D10698C7
:10B19000002803D102206449087002E001206249BE
:10B1A0000870614800780300FDF716FC07B8052019
:10B1B0003D6186A1B800FFF73BFA80080290FFF7D7
:10B1C00037FA049948430190FFF71EFA471EFFF72C
:10B1D0002FFA474300973846029A019929DF06461D
:10B1E000002E02D102205049087098E0049828DF10
:10B1F0000646002E16D1002D11D1069800280AD13E
:10B200002078042803D10720474908700AE0052068
:10B210004549087006E004204349087002E0032015
:10B22000414908707BE0FFF7EFF9471EFFF700FA8E
:10B2300047430297FFF7FCF9049948432A460190D7
:10B24000029929DF0646002E10D1069800280AD15F
:10B250002078042803D106203349087006E0052031
:10B260003149087002E004202F49087057E0FFF7C9
:10B27000CBF9471EFFF7DCF94743A800381861886F
:10B2800040180290FFF7D4F904994843A9004018E8
:10B29000618840180190069A029929DF0646002E1F
:10B2A00009D12078042803D106201F49087002E044
:10B2B00005201D49087032E0FFF7BAF904994843A8
:10B2C000A9004718608882083846216929DF0646A8
:10B2D000002E0BD1002D06D10698002803D107209F
:10B2E0001149087002E006200F49087017E0FFF7C7
:10B2F0009FF90190FFF788F9471EFFF799F9474337
:10B30000009738460199FCF731FF029028DF064686
:10B31000002E02D107200449087000E000BF00BFE2
:10B32000304607B0F0BD00008720002010B504466D
:10B330002046FFF755FB10BD0246501A0002000AD6
:10B340007047000070B504460D480068002812D010
:10B350000B4AE169A06912689047054600BF2E4676
:10B36000002E06D000BF002211463046FDF76AFCD1
:10B3700000BF00BF02E0A169E069884770BD00001E
:10B38000B8200020FEB50020C0430190104804689A
:10B39000104807686846FEF7A5F90546FEF7FCFB6E
:10B3A0000646002D05D001AA21460098FEF7D0F9E7
:10B3B00001260198FEF750FC002800D00126002E3F
:10B3C00002D03846FEF786F8002003490870FEBD1B
:10B3D000A8200020A4200020BD20002010B51420AB
:10B3E000FDF764FA10BD0000F0B50246242050437A
:10B3F000324B1B68C11832480068401C002802D13B
:10B400002F48026059E02E484B68006824246043AE
:10B410002A4C246800194068834217D828480068DD
:10B4200024235843254B1B68C01840684B68C31A37
:10B430002348006824246043204C2468001943609A
:10B440001F48006808621E48026036E04B681C4DC9
:10B450002C6828680DE024254543184E3668AD1940
:10B460006D685B1B044624254543144E3668AD19B0
:10B47000286A451C002D07D0242545430F4E366809
:10B48000AD196D689D42E6D3451C002D0CD02425D6
:10B4900045430A4E3668AD196D68EE1A24254543BA
:10B4A000064F3F68ED196E604B60086224256543C6
:10B4B000024E3668AD192A6200BFF0BD9820002008
:10B4C000A420002070B502462C4C2168084609E0F3
:10B4D000904200D109E0014624244443284D2D68C0
:10B4E0006419206A441C002CF2D100BF441C002CBB
:10B4F00000D170BD814217D1204C246824256C43B3
:10B500001F4D2D686419246A1C4D2C602C4624683C
:10B51000641C002C08D101241A4DAC6000241A4D83
:10B520002C600124194D2C7024244443144D2D68A3
:10B530006419636824244443114D2D686419256AF5
:10B5400024244C430E4E3668A419256224244C430F
:10B550000B4D2D686419206A441C002C0CD0242447
:10B560004443074D2D6864196468E5182424444356
:10B57000034E3668A419656000BFBAE7A420002016
:10B580009820002000100140A8200020BD200020AD
:10B59000FFB581B005460E461746E900104A12680D
:10B5A0008818694600F011F90446002C02D10420E5
:10B5B00005B0F0BD012020706660FFF7F3FAA060CF
:10B5C000E760049820610A986061E900044A126803
:10B5D0008818009900F00FF9FFF700FF0020E7E757
:10B5E000A0200020F8B504460E46E1000C4A12687F
:10B5F0008818694600F0E9F80546002D01D10420BD
:10B60000F8BD022028706E60E100054A12688818B3
:10B61000009900F0F0F8FFF7E1FE0020F0E70000ED
:10B62000A0200020F8B520480068401C00283AD02F
:10B630000027FFF7B7FA04461C4801682046FFF7C9
:10B640007BFE06461848056811E024206843184927
:10B65000096844186068B04200D90BE06068361A87
:10B660006068C719256A2046FFF76CFE00BF681C9A
:10B670000028EAD100BF0F4800780F4909788842B6
:10B6800009D10D480078401CC0B20B49087002284F
:10B6900001D10020087008480078800007490F5049
:10B6A000FFF79CFE00BFF8BDA4200020A8200020CA
:10B6B00098200020B4200020B5200020AC200020DD
:10B6C00010B51120FDF7F2F810BD30B50346107823
:10B6D000C01C1F2801DD0C2030BD02241578681C19
:10B6E00010704C550A241578681C10704C5515784C
:10B6F000681C10704B550020EEE702460A70FF20D0
:10B7000000021040001248700220704738B505460C
:10B7100020480088204988423BD020480078401CBF
:10B720001E4908701E48007B097888420FDB1D49BE
:10B730001848008875DF0446002C07D01848806937
:10B74000002803D0164881692046884721E0002060
:10B75000124908701248007C00280FD03B210D4888
:10B76000008876DF0446002C07D00D488069002849
:10B7700003D00B4881692046884700BF08484069CC
:10B78000002806D000200090054841696846884797
:10B7900000BF38BD6A200020FFFF000068200020A5
:10B7A0005C2400206020002010B5FDF76DFF01280B
:10B7B00002D0032804D101E0002403E0012401E0C9
:10B7C000022400BF00BF204610BD70B502460B46E4
:10B7D0005078411C9078884200D10021107888422E
:10B7E00001D1002070BD196050781826704355684B
:10B7F0002C182046F6E741707047FFB581B0074628
:10B8000015460A9E009602223846049B029900F0D3
:10B8100014F80446002C02D0204605B0F0BD009676
:10B82000102229463846049B00F007F80446002CF5
:10B8300001D02046F1E70020EFE7FFB587B00646CC
:10B840001D46109C0020069020780590002747E0B8
:10B85000B900706841180A886846028149884181A8
:10B86000002203A902A865DF04900498002802D0F2
:10B8700004980BB0F0BD6846017B099881422ED137
:10B880000698002801D0002000E0022001902078D6
:10B890006946097B4118019808181F2801DD0C2012
:10B8A000E7E70698002809D12078401C207022780C
:10B8B000511C08982170A854012006902078421944
:10B8C00003A902A865DF04900498002801D0049819
:10B8D000CFE720786946097B4018207000BF7F1CA5
:10B8E0003088B842B4DC0698002806D02178059844
:10B8F000401C081AC1B2059829540020B9E700007D
:10B9000010B5044674DF19208001044908800A211B
:10B9100002480088FDF774F910BD000000200020E7
:10B9200070B5054656480068401C554908605548A2
:10B93000016853480068FCF719FC002975D152488A
:10B9400000885249884217D013214F48008876DF7B
:10B9500084B200BF2346002B05D000BF0022114651
:10B960001846FDF76FF900BF0020C0434649088024
:10B9700000204749088000E074DF23210902454880
:10B980000068FCF7F3FB0E46434A4448FEF79CFD73
:10B9900084B200BF2346002B05D000BF0022114611
:10B9A0001846FDF74FF900BFFDF7BCFF39480068A6
:10B9B000401C384908602321090236480068FCF71A
:10B9C000D5FB0E46344A3548FEF77EFD84B200BFF3
:10B9D0002346002B05D000BF002211461846FDF774
:10B9E00031F900BF2C4880888005800D00280FD1D8
:10B9F000012189022848FEF7AFFD00BF2346002B36
:10BA000005D000BF002211461846FDF71BF900BF04
:10BA1000FDF7A4F819208001214908800A21204857
:10BA20000088FDF7EDF82AE0FFE71D48008819219E
:10BA30008901884202DBFDF791F820E01448008874
:10BA400000281CD012480088401E11490880084672
:10BA50000088002813D113210B48008876DF84B2B8
:10BA600000BF2346002B05D000BF00221146184618
:10BA7000FDF7E8F800BF0020C0430349088070BD0F
:10BA8000242000202020002008200020FFFF0000AC
:10BA90003C20002034200020402000202C200020CA
:10BAA00000200020DDDDDDDDDCBBBBDDDDDDDDDD3F
:10BAB000DDDDDDDD988888888888888877777777E6
:10BAC00077888888855555566666666666666666B2
:10BAD000666888888333333222222222222222225D
:10BAE0002228888D04BB010000200020D80000001F
:10BAF000F4890100DCBB0100D820002030150000D3
:10BB0000048A01004006000000000000FFFF000062
:10BB10000035543A00000000000000000000000062
:10BB2000B004000000010000000000000000000060
:10BB30000000000000000000000000000000000005
:10BB400000000000000000000000000000000000F5
:10BB5000FF221000000000000600000000000000AE
:10BB60000024F400000000000000000000000000BD
:10BB700000000000000000000000000000000000C5
:10BB800000000000000000000000000000000000B5
:10BB900000000000000000000000000000000000A5
:10BBA0000000000000000000000000000000000095
:10BBB0000000000000000000000000000000000085
:10BBC0000000000000000000000000000000000075
:0CBBD00000000000000000000000000069
:04000005000180C1B5
:00000001FF
