:020000040001F9
:10800000C82C0020158101002F8101003181010061
:108010000000000000000000000000000000000060
:10802000000000000000000000000000338101009B
:1080300000000000000000003581010037810100D0
:108040003981010039810100398101003981010044
:1080500039810100000000002D88010039810100F4
:108060003981010039810100398101003981010024
:108070003981010039810100398101003981010014
:1080800039810100BD890100398101003981010078
:10809000E5890100ED890100198A0100398101009B
:1080A000398101003981010000000000000000005A
:1080B00000000000000000000000000000000000C0
:1080C0000348854600F0ECF9004800477D9B01001D
:1080D000C82C0020401E00BF00BF00BF00BF00BF73
:1080E00000BF00BF00BF00BF00BF00BF00BFF1D195
:1080F00070470000401E00BF00BF00BF00BF00BFB0
:1081000000BF00BF00BF00BF00BF00BF00BFF1D174
:10811000704700000321094802680A4302600848CA
:1081200002680A4302600748804707480047FEE7A5
:10813000FEE7FEE7FEE7FEE7FEE70000240500405D
:1081400054050040518A0100C180010030B50B4642
:10815000014600202022012409E00D46D5409D4221
:1081600005D31D469540491B2546954040191546A7
:10817000521E002DF1DC30BD70B5002425460028CC
:1081800001DA01244042002901DA01254942FFF7C2
:10819000DDFFAC4200D04042002C00D0494270BD0F
:1081A000F0B51FB40646002082B005464024019178
:1081B00000901BE0019922460F46304600F017F967
:1081C000049A059B801A994110D3104619462246FD
:1081D00000F0FDF8361A8F41019722460120002158
:1081E000009F00F0F4F838184D4100902046641EBE
:1081F0000028DFDC019B00982946324607B0F0BD1D
:1082000003460B439B0703D009E008C9121F08C0AF
:10821000042AFAD203E00B780370401C491C521E5A
:10822000F9D27047D2B201E00270401C491EFBD265
:1082300070470022F6E710B513460A460446194671
:10824000FFF7F0FF204610BD0FB400B58DB00990C8
:108250000B9010A900200091C0430A9000200C90C0
:1082600006480690064807906A4609A80F9900F04C
:10827000E5F80DB008BC04B0184700005D840100AB
:108280007D840100FFB50027FF4383B000205C68B8
:1082900001909E681D46A9697F1C0498884700903C
:1082A000296A88470028F6D10098401C0CD003208A
:1082B00040028443002E19DD600614D500982B2857
:1082C00009D02D280FD103E00020C04307B0F0BD36
:1082D000012080020443A9697F1C04988847761E08
:1082E0000090002E02DD0098302803D00598002869
:1082F00025D035E0012040020443A969761E7F1C89
:10830000049888470090002E03DD782805D058286F
:1083100003D00598002810D022E00598002801D04D
:1083200010281DD1012040028443A969761E7F1CBC
:10833000049888470090102002E0082000E00A20FE
:1083400005900DE0012149020C43059A0199761E22
:10835000514308180190A9697F1C04988847009030
:10836000002E05DD0599009800F052F80028E9DAA2
:10837000E96904988847A00502D40120C043A5E715
:10838000E00722D1600611D56005019800D5404272
:1083900029680A1D2A600968220501D5087014E0C1
:1083A000220701D5088010E008600EE02868011D52
:1083B00029600068210502D50199017005E02107B7
:1083C000019901D5018000E0016038467EE710B5D3
:1083D000202A04DB0146203A9140002010BD914044
:1083E00020239C1A0346E3401943904010BD10B56A
:1083F000202A04DB0846203AD040002110BD0B465D
:10840000D340D0402024A21A91400843194610BD01
:108410003A2800D23038202302469A43412A01D319
:1084200010463738884201D30020C043704700000F
:1084300002681378511801601846704710B5D16072
:10844000044951610449116200211161114600F093
:1084500041F810BD31840100C58401004268002A42
:1084600008D001680B78491C002B03D0521E06C0AF
:10847000184670470121C160881E70474268002A73
:108480000BD0C3680168002B07D183688B4204D0EE
:10849000491E521C06C0002070470020C043704790
:1084A000064C0125064E05E0E36807CC2B430C3C47
:1084B00098471034B442F7D3FFF706FEE8B1010045
:1084C00008B2010010B50F21C0B2490200F09CF9BA
:1084D00010BD0000F3B58DB000200A9001200B9074
:1084E000002608460C300C46099062690121099863
:1084F000904705002ED0252D2DD0216A88470028D1
:1085000018D06269012109989047216A884700289C
:10851000F7D1411E62690998904700E0761CA16975
:108520000D988847216A88470028F7D1E1690D989E
:108530008847DAE7A1690D9888470746A84201D124
:10854000761CD2E7E1690D9888477F1C02D10A9812
:10855000002877D046E1002762693D4639460998F0
:1085600090472A280CD1626901210998904701257A
:1085700006E00A214F433F18303FEBD4102005435B
:108580006269012109989047014630390A2903D2CE
:108590009A498F42DEDCECE7E90600D4984F6C285C
:1085A0000AD04C2810D0682824D06A282ED07428ED
:1085B0000CD07A280AD00DE0626901210998904711
:1085C0006C2823D004211CE020200543626901218E
:1085D00009989047A760656065284FD026DC582829
:1085E00039D01ADC452849D012DC252834D041285E
:1085F000B0D143E06269012109989047682802D010
:1086000008210D43E6E70120C002DEE70220DCE797
:10861000462833D047282CD130E05B287BD0612816
:108620002CD0632877D0642823D15EE06F284CD00B
:1086300009DC662822D0672820D0692826D06E2839
:1086400017D12EE0CAE070284AD073286CD0752864
:108650004BD078280DD150E0A1690D988847054688
:10866000252800D16CE7E1690D9888476D1C00D181
:108670006DE7B7E00A2248E00A224FE001202346D6
:108680006A46C0430D99C046C046A0E02846402136
:1086900008436060A807234601D5002235E0002288
:1086A0003CE02068011D21600068290501D50670A5
:1086B0001BE7290701D5068017E7A90703D5F1179E
:1086C0000660416011E706600FE728464021084335
:1086D0006060A807234601D5082216E008221DE0A5
:1086E000484928460840606016E028464021084373
:1086F0006060A8072346BFD5BCE728464021084351
:108700006060A80708D5234610220120C0430D99B8
:10871000C046C0465BE007E0234610220120C0436C
:108720000D99FFF7AFFD52E000210C910B4600912F
:10873000632802D05B2807D043E0E80601D401207B
:10874000A060012000903CE06269012109989047F7
:108750005E2805D101200C90014662690998904776
:108760002169002906D10B4601AA8F00491CD3516B
:108770000829FADB002835D0216900290ED1C1175C
:10878000C90E09184A11930001AA9A18490949010A
:10879000411A012013688840034313606269012174
:1087A000099890475D28E5D10C98002808D0002052
:1087B00001AB81005A58401CD2435A500828F8DBBC
:1087C00001AB01202246C0430D99C046C046002897
:1087D0000ADA401C06D10B98002803D00020C043C1
:1087E0000FB0F0BD0A98FBE7E90702D10A99491CCE
:1087F0000A91361800200B9077E60000CCCCCC0C08
:10880000FFFFFF7FF1F7FFFF7F2801D9002207E07C
:10881000054B42089A5CC00700D112091207120FDB
:108820000120904008407047A8B10100F0B585B024
:108830003048056900203049C863002654E0142000
:1088400070432E49096844180120B0402C4909683A
:108850000840002846D0002002900190E068C04304
:1088600068402168084003902046039901F052FFB8
:108870002048006968402168084004900498002856
:1088800018D0049868400090E068C04300994840C0
:108890002168084007463946204601F03BFFA068A2
:1088A000009988433840019060680099084038403A
:1088B000029000BFA068A8430399084001990843AB
:1088C000019060682840039908400299084302908B
:1088D000019902980843002803D02269019902985F
:1088E000904700BF701CC6B2064800788642A6DBDF
:1088F00005B0F0BD00050050406100406020002040
:10890000582000205D200020C206D20E0121914097
:10891000014A11607047000080E200E0C206D20EFA
:1089200001219140014A11607047000000E100E020
:10893000C206D20E01219140014A11607047000029
:1089400000E200E010B5002819DA1A4A03071B0FED
:10895000083B9B089B00D2588307DC0EFF23A340F3
:108960009A438B071B0E8407E40EA3401A43114B56
:108970000407240F083CA408A4001A5118E00E4A6A
:1089800003231B02D21883089B00D2588307DC0EF6
:10899000FF23A3409A438B071B0E8407E40EA340DA
:1089A0001A43054B032424021B198408A4001A51FE
:1089B00010BD00001CED00E000E100E010B500205B
:1089C000074908600021064841608160C1600020BD
:1089D000034940390860486002F02EFA10BD0000DB
:1089E0004011014010B502F0D7F810BD10B508488D
:1089F00000780121484006490870064800680028B0
:108A000004D00846007803490968884710BD000073
:108A1000442000204820002070B50C480068002841
:108A200010D00A4800688047044600BF2546002D44
:108A300006D000BF00221146284600F075F900BF9D
:108A400000BF01E000F0E8FE70BD000090200020B3
:108A500010B500F05BFF002805D0074807494860C3
:108A6000C8130749886100F035FF002802D00120B3
:108A70000449886010BD0000DFFF07C0000500400A
:108A8000006C004000060040F8B582B28BB2040CC6
:108A90000D0C10465843002126465E43370C360421
:108AA0008019794116466E43370C36048019794196
:108AB00026466E438919F8BD30B47446641E257885
:108AC000641CAB4204D3635D5B00E31830BC184701
:108AD0001D46F8E702E008C8121F08C1002AFAD1B3
:108AE00070477047002001E001C1121F002AFBD12E
:108AF0007047F8B504460F4615460026002028703A
:108B00002078002809D02A463946204601F051F93C
:108B10000646002E01D03046F8BDA078002808D0C7
:108B20002946384600F02EFA0646002E01D030467F
:108B3000F2E7E07800280ED002212A78501C287035
:108B4000B95401212A78501C2870B954E1782A7848
:108B5000501C2870B954606800280BD00020616850
:108B600008562A46394602F0BAF90646002E01D0C8
:108B70003046D1E7208900280CDD3B460622022141
:108B800020460830009502F0F4F90646002E01D088
:108B90003046C1E7208A00280CDD3B46072203212E
:108BA00020461030009502F0E4F90646002E01D070
:108BB0003046B1E7208B00280CDD3B4615221421FE
:108BC00020461830009502F0D4F90646002E01D058
:108BD0003046A1E7206A002809D02A463946206A93
:108BE00000F0CCFC0646002E01D0304694E7606AC7
:108BF000002809D02A463946606A01F0A5F80646E1
:108C0000002E01D0304687E72C20005D002809DDCA
:108C10002A463946204601F0BDFD0646002E01D009
:108C2000304679E7304677E70146C878042210409D
:108C3000002801D1072070470020FCE710B5302143
:108C40001F48FFF7F6FA00201D4908701D480078FC
:108C5000C87030211C48FFF7ECFA1C4800881C49FA
:108C60000880182088801B4919488160164948628D
:108C7000352018490875542048754D2088752D20D9
:108C8000C8751921890114480088FFF775FA13493E
:108C9000096840180F4908600B49094800F0D4F9E9
:108CA0000F49086000BF08460368002B05D000BFCD
:108CB00000221146184600F037F800BF10BD000032
:108CC000C82000203C200020F82000203420002074
:108CD00028210020A8200020022000200C200020B5
:108CE0003820002070B586B004460D46182168462D
:108CF000FFF79FFA022168460170002001900021D1
:108D0000684601720482458273DF064600BF33461F
:108D1000002B05D000BF00221146184600F004F8D1
:108D200000BF06B070BD000000BFBFF34F8F044806
:108D30000449C860BFF34F8F00BF00BFFEE70000CB
:108D40000400FA0500ED00E0F8B505460C4627786A
:108D5000A068000105490E58608800902A463946EF
:108D6000204608302369B047F8BD0000A824002041
:108D700070B503460C4619480068002801D1082048
:108D800070BD002A01D10720FAE7002B01D107208E
:108D9000F6E700211CE024204843104D2D68285C94
:108DA000002814D10125242048430C4E3668355440
:108DB00024204843094D2D6840194470242048431D
:108DC000064D2D684019826119600020D8E7491CC2
:108DD000034800788142DEDB0420D1E768200020D0
:108DE00064200020FFB581B00E4617461C46204681
:108DF0008107890F002901D1012100E0002100290C
:108E000002D1072005B0F0BD002C01D10720F9E701
:108E100001F054FC26490A98086026480670264846
:108E2000046000250CE0002124206843224A1268D7
:108E3000115424206843204A1268801801756D1C63
:108E4000B542F0DB24207043041903201B4908704D
:108E50001B480460183400250CE0E900184A126829
:108E6000881800210170417087704460182179438F
:108E70000C196D1C032DF0DB0020C0431149086064
:108E8000002011490870114908701420FFF73CFDBB
:108E900003211420FFF756FD1420FFF73FFD019832
:108EA00001F0E2FB01F0DAFB094908600020A9E7C4
:108EB0008820002064200020682000206C200020F2
:108EC00070200020742000208420002085200020B5
:108ED00078200020FEB504460D4616461648006868
:108EE000002801D10820FEBD14480078844201D238
:108EF000052D01D20720F6E7242060430E490968BA
:108F0000085C012801D00820EDE7242060430A49CD
:108F1000096840184078012801D1284600E0002067
:108F2000074601F0FDFF3B462A4621460096019088
:108F300001F038FFD7E700006820002064200020FF
:108F400070B504460D480068002801D1082070BDA6
:108F50000B480078844201D30720F8E724206043BF
:108F600006490968085C012801D00820EFE701F0F4
:108F7000D7FF0546214601F03FFFE8E768200020C3
:108F800064200020F8B505460C462078001D1F28F7
:108F900001DD0C20F8BD684679DF0646002E01D0C1
:108FA0003046F7E703212278501C2070A95419217C
:108FB0002278501C2070A9542078411968460088F6
:108FC00001F0A5FF2178401820700020E2E70000A2
:108FD00070B5044649DF0020174948602002082187
:108FE00008431649486001200860154908600020C0
:108FF00014490860002501E0681CC5B211480068EA
:10900000002801D1FF2DF7DB00200E490860012068
:109010000B4948600020094908604ADF0749896810
:109020004B22120151430846FF21FFF78FF8410000
:10903000401880B270BD0000007300400075004011
:109040000070004000710040F3B593B00D46002160
:10905000129111911398002814D01398FFF7E4FD92
:109060000446002C02D0204615B0F0BD12AA09A972
:109070001398FFF73EFD0446002C01D02046F3E78D
:1090800009AE00E00026002D13D0284601F076FC42
:109090000446002C01D02046E6E711AA01A9284683
:1090A000FFF727FD0446002C01D02046DCE701AF86
:1090B00000E0002710A803793A46017A304672DFB3
:1090C000D2E710B50446204600F0DAFE10BD0000DD
:1090D00010B50446002C08D00448008804490988CB
:1090E000401802490880FFF7A9FD10BD02200020AA
:1090F00000200020F8B505460F4616460D480660CC
:10910000152032DF0446002C01D02046F8BD294648
:10911000152033DF0446002C01D02046F6E7152049
:109120002EDF0446002C01D02046EFE7394603200D
:109130004CDFEBE7482000207FB500BF002348222A
:109140002949082001F0DAFB054600BF2B46002B19
:1091500005D000BF002211461846FFF7E5FD00BF0D
:1091600000BF0020029003906946087202A860DFE9
:10917000044600BF2346002B05D000BF0022114645
:109180001846FFF7D1FD00BF012069460870242072
:1091900068DF044600BF2346002B05D000BF002235
:1091A00011461846FFF7C0FD00BF104801F09AFBBA
:1091B000044600BF2346002B05D000BF0022114605
:1091C0001846FFF7B1FD00BF094801F0CBFB04468C
:1091D00000BF2346002B05D000BF002211461846D1
:1091E000FFF7A2FD00BF7FBD54210020C390010006
:1091F00041AB0100F0B587B00F2755480078142126
:1092000048435349091D4418E5682078022804D0D2
:10921000042823D005287CD16AE0206905904D48B8
:10922000008886026088801B06900598801905904A
:10923000A08880194519012189020698884206D222
:10924000069882082846059929DF074605E0FF228F
:1092500001322846059929DF07466FE0A068000122
:109260003D49401800890690A068000140184089D7
:109270000590A06800014018406804900498A84236
:1092800005D10599069848436188884202D0A068B4
:1092900003280DD100F02AFF014603902846FEF76F
:1092A00055FF2C4909884618304628DF07461EE03E
:1092B00000F01CFF014601902846FEF747FF0646D6
:1092C00000F014FF7043281A8008039000F00EFF8E
:1092D000711C484361884919401A80080290314640
:1092E0002046029B039A01F051FB074600BF25E090
:1092F00000F0FCFE014604902846FEF727FF0646D4
:1093000000F0F4FE7043A1884919081A80080690FD
:1093100000E012E000F0EAFE711C4843A188491900
:1093200062888918401A8008059031462046059BBE
:10933000069A01F02BFB074600E000BF00BF002F9C
:1093400002D1012002498870384607B0F0BD000004
:10935000DC23002054200020A824002010B5002485
:109360000848407800280BDD06488078002807D19F
:10937000FFF740FF0446002C02D0112C00D100243E
:10938000204610BDDC2300200023142141430C4A59
:1093900053541421414389184B8002231421414323
:1093A00089188B600023142141438918CB60142154
:1093B000414389180B611421414389188B80704700
:1093C000E0230020FFB581B006461746002422485E
:1093D00040780A283CD0204800781F494978401836
:1093E000C4B20A2C02DB20460A38C4B214206043FF
:1093F0001949091D0E540022142060434018427080
:1094000014206043401807611420604341180298FB
:1094100005C8CA608860142161430F4A121D89186B
:10942000049848801421614389180A98888000258F
:10943000101F8078002805D1FFF7DCFE0546112DAE
:1094400000D1002504484078401C0349487000E0E2
:109450000425284605B0F0BDDC23002010B500200F
:1094600008490880084908700849087048708870E1
:10947000002403E02046FFF787FF641C0A2CF9D381
:1094800010BD00005420002057200020DC230020C5
:10949000FEB51E480068401C002834D01B480068F8
:1094A000242148431A4909684018456801F0D6F854
:1094B0000190184804682146019801F047FBC61C3A
:1094C00015480078002801D101F0DAF8AE4201D247
:1094D000284600E0304604192402240A20460F4999
:1094E000086000BF01F0BAF800900199009801F0FF
:1094F0002DFBC71C2046019901F028FB874201D9AA
:1095000001F0E8FC01E001F0D9F8FEBD7420002074
:1095100068200020782000208C2000204015014089
:1095200001460888062808DB08881922D2019042E3
:1095300005DD0888104A904201D00720704748880E
:10954000062808DB48881922D201904205DD4888A8
:10955000094A904201D00720F0E70888064A904265
:1095600008D04888904205D008884A88904201DD9A
:109570000720E3E70020E1E7FFFF0000F8B506461B
:109580000D4614462078801D1F2801D90C20F8BDF7
:109590003046FFF7C5FF0746002F01D03846F6E7F3
:1095A00005212278501C2070A95412212278501CC9
:1095B0002070A95422785119308801F0A8FC217834
:1095C0004018207022785119708801F0A0FC217891
:1095D000401820700020DAE710B514484068C10533
:1095E000C90D002920D00A46103A50B200280DDAE1
:1095F0000E4B1C330407240F083CA408A4001B597D
:109600008407E40EE3401B069B0F0BE0084B03248A
:1096100024021B198408A4001B598407E40EE340AC
:109620001B069B0FD8B210BD0420FCE700ED00E044
:1096300000E100E0014614480078144A1278904294
:109640001DD011480078401C0F4A10701046007859
:10965000022801D1002010700B48007880000C4ACD
:10966000105808600B4A086812688018094A106090
:10967000104600680002000A1060012070470020B8
:10968000086000BFFAE70000842000208520002049
:109690007C2000207820002010B5029C10BD000026
:1096A000F0B50346002426E0164E366824277E4394
:1096B000154F3F68F01946689E4203D94668F61A6E
:1096C00046601DE046689B1B4668341900264660CC
:1096D00006750C4E35680B4F066A3E600669002E13
:1096E00008D00E193602360A86600669C66016680A
:1096F0000662156000BF03480068401C0028D3D1F3
:1097000000BFF0BD7420002068200020FEB50025B9
:1097100001203649C863002004230246102100902E
:1097200001F07EF80C2001218140314A916000BF98
:1097300000BF02A9042001F0A7F80028F9D12D48A4
:109740000021016041608160C16014212A48FEF758
:1097500070FD00261EE002A9042001F095F8002803
:1097600016D06846027A2846691CCDB221490A54AF
:10977000681E085C0A2801D0102D09DB1E480C3039
:10978000831E021F1DA100901A48FEF75DFD03E035
:10979000701CC6B2322EDEDB00BF00201349C86346
:1097A0000C2000F065FB01A852DF17480068124941
:1097B00048601020FFF70CFC0F49C8810198086130
:1097C00000231022091D114800F0FCFD044600BFD3
:1097D0002346002B05D000BF002211461846FFF794
:1097E000A3FA00BF0A480B490880FEBDC02F004005
:1097F0000005005034210020A8200020256878258D
:1098000068782568780A00000C20002024200020B9
:109810008858000034200020F8B529480078002836
:1098200000D1F8BD27480068002801D1012000E0E0
:109830000020054624480068002801D1012000E0EE
:109840000020064600BF002D14D1684651DF0446B3
:10985000052C01D101250CE0002C06D000BF002210
:1098600011462046FFF760FA03E0164900980968A0
:10987000884700BF002E1AD114480088009069461E
:109880001348006861DF0446052C01D101260DE074
:10989000002C06D000BF002211462046FFF744FAF4
:1098A00004E00B48006808490968884700BF002D9C
:1098B00002D0002E00D000E0C5E700BF00BFB0E737
:1098C00094200020A4200020A02000209C20002024
:1098D000982000200C48008CC0B2012812D10A4800
:1098E000808C0007000F00280CD10748806AF02107
:1098F0000840402806D10448C06A0840002801D129
:10990000012070470020FCE7C00F00F01948008CD0
:10991000C0B201282CD11748808C0007000F002806
:1099200026D11448806AF0210840002806D1114849
:10993000C06A0840002801D1012070470D48806AA4
:10994000F0210840102806D10A48C06A08400028C3
:1099500001D10120F1E70748806AF0210840302852
:1099600006D10448C06A0840002801D10120E4E77C
:109970000020E2E7C00F00F001468807800F0028B2
:1099800001D1012070470020FCE70000FEB52B4804
:10999000006801902A480078009040E00098C000DC
:1099A000284909684418257835E01820684361681B
:1099B0000F18681CC5B2A078A84200D100253878DD
:1099C000022802D0032823D10EE0242178684843DE
:1099D0001D4909684618307D002804D0786801F0D8
:1099E0007BF90020307514E00CE01449096824224A
:1099F0005143154A12688818002101750F4A016AFF
:109A0000116000BF0D480068401C0028EDD100E047
:109A100000BF00BF00BF6078A842C6D100BF009859
:109A2000411EC9B200910028B8D1044801680198CC
:109A3000814201D00120FEBD0020FCE774200020FF
:109A40006C2000207020002068200020FEB5074612
:109A500043480068029043480078019071E0019803
:109A6000C00041490968451863E0781C002807D008
:109A70003E46242070433D4909684418276A29E07E
:109A80002978182359436A6850182978491C297085
:109A90002978AA78914201D10021297046682421B1
:109AA0007143324A12688C180178012902D1217D54
:109AB000002900D03DE08168A160C168E1600169D2
:109AC00021614169E1612A490978002901D0002119
:109AD000A16000BF2749A0680968401A0002000A77
:109AE0002549884208D22349A068096801F02EF868
:109AF000E1684018606011E01E48A168006801F04C
:109B000025F80090E1680098814204D9E168009846
:109B1000081A606001E00020606000BF0020A060C3
:109B2000E06001202075801E2062304601F066F85A
:109B300000BF781C002898D128786978884294D191
:109B400000BF0198411EC9B20191002887D1044885
:109B500001680298814201D00120FEBD0020FCE78F
:109B6000742000206C20002070200020682000203D
:109B70008D20002078200020FFFF7F000EB500BF61
:109B80000020654B052203210090FFF72BF90546C5
:109B900000BF2B46002B05D000BF002211461846FF
:109BA000FFF7C2F800BF00BF5C4A01215C48FFF725
:109BB000DFF8044600BF2346002B05D000BF00227B
:109BC00011461846FFF7B0F800BF564A0021564824
:109BD000FFF7CEF8044600BF2346002B05D000BF98
:109BE000002211461846FFF79FF800BFFFF7A4FABE
:109BF000042077DF044600BF2346002B05D000BFBA
:109C0000002211461846FFF78FF800BF03200521F8
:109C1000090707221202891808630C2000F028F9AE
:109C200000F06AFA102168460181802141813F4895
:109C300001903F4901A800F023FB044600BF2346E2
:109C4000002B05D000BF002211461846FFF76CF824
:109C500000BF0020374908603749086001218902A8
:109C6000334800F0D7F9044600BF2346002B05D047
:109C700000BF002211461846FFF756F800BF2F48D4
:109C800000687D21C90048430121C903FEF7FCFE9D
:109C9000FF23F5330022C51851415A0000232846FE
:109CA000FEF77EFA0746002239461D480068FFF796
:109CB00011F9044600BF2346002B05D000BF002247
:109CC00011461846FFF730F800BF1D4A0221032055
:109CD000FFF710FA044600BF2346002B05D000BF53
:109CE000002211461846FFF71FF800BF134800680E
:109CF000404214490860002001F0D6F900BF48DF57
:109D0000044600BF2346002B05D000BF00221146A9
:109D10001846FFF709F8F2E79C210020A9B00100DE
:109D20003020002079B001002C20002099960100FD
:109D3000142000201C2000202020002008200020CB
:109D4000D19001000C200020F8B505460E461446BF
:109D50002879801CC7B22078801CC0191F2801DD1B
:109D60000C20F8BD781CC1B22278501C2070B15470
:109D7000FF212278501C2070B15422789119288834
:109D800001F0C5F8217840182070A88800280EDD61
:109D9000A868002801D10720E3E7AA88237898194A
:109DA000A968FEF72DFA2078297940182070002044
:109DB000D7E7F7B584B004460F4606980678B01C7E
:109DC0001F2803DC6078801C1F2802DD0C2007B0F0
:109DD000F0BD1F20801B801E85B20295B11C781833
:109DE00002A97DDF03900398002801D00398EEE7D5
:109DF0002078022808D168460089A84204DC09209E
:109E00000190684605890BE00820019060780028E1
:109E100004D06078A84201DC657801E068460589D5
:109E2000681CC2B23046711CCEB23A543046721C25
:109E3000D6B20199395406980178A81C0818C1B205
:109E4000069801700020C2E710B58A0005231B07A1
:109E5000072424021B1984001A5110BD0321052276
:109E6000120707231B02D2188300D150704700004D
:109E700001218140014AD160704700000005005077
:109E800070B5054628881E2864D1287A582860D1E4
:109E9000687A81285DD1314800883149884205D1EE
:109EA00030480068401C2F49086002E02C482B49CC
:109EB00008802C4800682C490968884240D229480B
:109EC00000784106490E294A294800F05BF804460B
:109ED00000BF2346002B05D000BF002211461846C4
:109EE000FEF722FF00BF002310222049214800F086
:109EF00051F91D4800881B490988401A1D49091F4E
:109F000048821D480068FFF71BF800221B491A48C9
:109F10000068FEF7DFFF1A480088C82819DD1248DC
:109F2000006810490968401A102812D974DFA0206F
:109F300013490880642112480088FEF7D3FE08E028
:109F400074DF04460C480068FEF7FAFF00200C4955
:109F5000088000E000BF00BF70BD0000342000207A
:109F600082580000202000201C20002024200020F7
:109F700014200020AC2000202C200020CD8C0000DC
:109F8000002000203CB5034600BF20480078002890
:109F900001D108203CBD00BF002B01D10E20F9E704
:109FA000002A01D10E20F5E71868022805D21868AA
:109FB0000001174C2058002801D10720EAE75C680F
:109FC000186801940090019C18680001104D401918
:109FD0000089484320180190009800012C46001980
:109FE0004089009C2401641924896043009C240159
:109FF000641964680019019CA04201D80720C9E7D0
:10A00000019C0098546010600020C3E75620002097
:10A01000A8240020F8B504460D4600BF2748007864
:10A02000002801D10820F8BD00BF002C01D10E206E
:10A03000F9E72068022805D2206800012049085865
:10A04000002801D10720EEE7206800011C494018D4
:10A050004089216809011A4A8918098948432168F9
:10A0600009018918496840186168884201D80720A9
:10A07000D9E76068FFF780FC002801D11020D2E703
:10A0800023681B010E4FDB1962685B68D01A2268D7
:10A0900012013B46D2181189FEF758F8002901D069
:10A0A0000720C0E700202B460246214600900420EE
:10A0B000FFF788F906463046B5E700005620002035
:10A0C000A824002070B508484469601C002807D007
:10A0D00000F00CF8054629462046FEF737F870BD1B
:10A0E000012000074069FAE7001000100120000776
:10A0F000006980B270470000F8B5FFF7AFF90020A3
:10A100001D490880FFF7DEFFC51EFFF7EFFF45433F
:10A110001A48056000201A49088000BF0DE00021A0
:10A120000201184B99500201D21811810201D21874
:10A1300091810201D2185181401C0228EFD30820DE
:10A1400011490870FFF7D2FF0090FFF7BBFF471ED1
:10A15000FFF7CCFF47433E4630460099FDF7F6FF38
:10A16000054628DF0446002C04D1012007498870E9
:10A17000074908702046F8BD4C20002050200020E0
:10A1800054200020A824002057200020DC23002099
:10A1900056200020FFB581B00C4615461E4600BF74
:10A1A00035480078002802D1082005B0F0BD00BF76
:10A1B000002C01D10E20F8E70198002801D10E20D3
:10A1C000F3E72068022805D2206800012B490858CF
:10A1D000002801D10720E8E720680001274940183E
:10A1E000408921680901254A89180989484321685D
:10A1F00009018918496840186168884201D8072018
:10A20000D3E7002D06D0206800011C4940180089C2
:10A21000A84201DA0720C8E7A81921680901174AEE
:10A2200089180989884201DD0720BEE70198FFF7F8
:10A23000A3FB002804D03046FFF79EFB002801D185
:10A240001020B2E76068FFF797FB002801D11020CB
:10A25000ABE7606881192A460198FDF7D1FF0095A8
:10A260002068000105490F58002203212046019B68
:10A27000B847002099E7000056200020A8240020BD
:10A28000F8B504460D4600BF4A480078002801D1C1
:10A290000820F8BD00BF002C01D10E20F9E7002DE9
:10A2A00001D10E20F5E72068002801D10E20F0E74B
:10A2B000FFF71CFFA188884202DBA088102801DA82
:10A2C0000720E6E7E08800281CD0FFF7FBFE471ECA
:10A2D000FFF70CFF4743E088A188484336490968E7
:10A2E000401887420ED3FFF701FFE188A28851434F
:10A2F000884209DAFFF7FAFE0746A188FDF73CFF1E
:10A30000002901D00720C4E720798007800F0028AA
:10A3100001D00720BDE729480088022801D1042088
:10A32000B7E726480088286023480068686023490A
:10A3300009880901224A8918686848601F49098804
:10A34000090120685050A0881C4909880901891812
:10A350000881E08819490988090189184881002085
:10A360000090A688E1884E4300BF0098401C80B250
:10A370000090FFF7BBFEB04203D2FFF7B7FE361ADC
:10A3800000E00026FFF7B2FE0B49096840180A49B1
:10A390000860002EE9D1094909880901084A89188D
:10A3A0000098888105480088401C044908800020E6
:10A3B0006FE7000056200020502000204C20002095
:10A3C000A8240020F8B504460E4615461F4600BFD7
:10A3D0002F480078002801D10820F8BD00BF002ECA
:10A3E00001D10E20F9E7002C01D10E20F5E72068FD
:10A3F000022805D22068000126490858002801D10A
:10A400000720EAE7206800012249401840892168B6
:10A410000901204A891809894843216809018918D6
:10A42000496840186168884201D80720D5E7002DA7
:10A4300006D020680001174940180089A84201DAB7
:10A440000720CAE7E81921680901124A8918098911
:10A45000884201DD0720C0E73046FFF78DFA00286B
:10A4600004D03846FFF788FA002801D11020B4E75D
:10A470006068FFF781FA002801D11020ADE72B4674
:10A480003246214602200097FEF79CFFA5E7000018
:10A4900056200020A8240020F0B585B006460025EF
:10A4A0006A48807801287DD1002068498870684812
:10A4B0000078082819D1022E03D1002064490870C1
:10A4C00002E0002063490870FEF748FF0546002DB2
:10A4D00009D05E480078142250435C4A121D81184E
:10A4E0002846FEF731FC05B0F0BD022E02D0032E47
:10A4F0007ED183E055480078142148435349091D13
:10A50000441855480088401C534908802078022888
:10A5100007D10846008880026188884201DB01205B
:10A5200000E0002003902078052805D148480078F5
:10A53000072801D1012000E00020029020780428A3
:10A5400005D143480078072801D1012000E0002010
:10A550000190207804280BD13F4800888002618850
:10A56000884205DB3A480078002801D1012000E04C
:10A57000002000900298002808D10198002805D1F9
:10A580000098002802D10398002825D02F4807788A
:10A5900000202F490870304908802C484078401E20
:10A5A0002A4900E050E0487008460078401C0870D6
:10A5B000084600780A2803DB084600780A38087045
:10A5C00014207843214A121D81182846FEF7BCFB4F
:10A5D0003846FEF7D9FE00BFFEF7C0FE0546002D47
:10A5E0000BD01A48007814225043184A121D00E07C
:10A5F00027E081182846FEF7A7FB23E013480078E0
:10A60000142148431149091D44186078401CC0B208
:10A610006070032809D1081F0078142250430A46AD
:10A6200081180D20FEF790FB0AE0FEF7E3FD0546DA
:10A63000002D05D0112D03D021462846FEF784FBBE
:10A6400000E000BF00BF00BF00BF4CE7DC230020DC
:10A650005720002056200020542000200148406848
:10A66000704700000015014010B50446034884609F
:10A6700003211120FEF766F910BD0000001501400E
:10A6800010B5012000040A49486009494039486072
:10A690001120FEF739F91120FEF740F90120054994
:10A6A00008602F20FDF726FD01200349087010BD2A
:10A6B00040130140001001408C20002010B51120F3
:10A6C000012181400E4A116000BF012000040D49A4
:10A6D00088600C494039886001200B4948602F2070
:10A6E000FDF708FD0120084988600020074908603F
:10A6F0002F20FDF7FFFC00200549087010BD000069
:10A7000080E100E04013014000100140782000206B
:10A710008C200020F0B502460C46002037E00123D3
:10A720008340194623460B40002B2FD0D5680D409F
:10A73000002D05D101235B04D5680D43D56004E0ED
:10A7400003231B04D5688D43D56005252D070726F7
:10A750003602AD198600AD5903263604B5430526E9
:10A76000360707273F02F6198700F55105252D0703
:10A7700007263602AD198600AD591D43052636075A
:10A7800007273F02F6198700F55100BF401C20281B
:10A79000C5D3F0BDFEB507460E461446B86A00287C
:10A7A00001D10720FEBD0020019032E0B96A0C22E1
:10A7B000019850430D182879801CC0B20090009871
:10A7C000401CC1B22278501C2070B154162122784E
:10A7D000501C2070B15422789119288800F097FB02
:10A7E000217840182070A88800280EDDA86800286D
:10A7F00001D10720D6E7AA8823789819A968FDF720
:10A80000FFFC20782979401820700198401CC0B2C4
:10A8100001902C20C15D01988142C7DC0020C1E776
:10A82000F8B507460C4615461E462046FFF716FBB0
:10A8300000213046FFF708FB1048C46046610698C7
:10A8400000280DD03846FFF709FB00212846FFF706
:10A85000FBFA0A4805618760012008494031C86257
:10A860004F20000305494862042008600120044984
:10A8700088600860002003498860F8BD002500401A
:10A88000002000400021004070B504460D4601261E
:10A890000AE02046641E002804DB7D20C000FDF78E
:10A8A00019FC01E0002603E0074880680128F0D188
:10A8B00000BF002C05DB0020034988600348806945
:10A8C0002870304670BD0000002100400025004087
:10A8D00070B506460C46154629462046C046C04679
:10A8E00070BD00000146002901D10E2070470248CA
:10A8F00001600020FAE70000A0200020FFB581B031
:10A900000C4616461F46002C02D1072005B0F0BDAC
:10A9100020468107890F002901D1012100E0002193
:10A92000002901D10720F1E70948046009480680A1
:10A93000094807600949019810DF0546002D01D03C
:10A940002846E3E701200649087016202EDFDDE7E0
:10A95000982000209C20002090200020D1A80100F9
:10A96000942000200146002901D10E2070470248A2
:10A9700001600020FAE70000A42000200146C8780A
:10A98000002801D0072070470020FCE7FFB583B006
:10A990000446154603266948007800280BD1002D8F
:10A9A00006D10698002803D102206449087002E00D
:10A9B000012062490870614800780300FEF77CF8C6
:10A9C00007B805203D6186A1B800FFF78FFB80081E
:10A9D0000290FFF78BFB049948430190FFF772FB4D
:10A9E000471EFFF783FB474300973846029A0199B9
:10A9F00029DF0646002E02D102205049087098E057
:10AA0000049828DF0646002E16D1002D11D1069895
:10AA100000280AD12078042803D10720474908706C
:10AA20000AE005204549087006E004204349087003
:10AA300002E00320414908707BE0FFF743FB471E1B
:10AA4000FFF754FB47430297FFF750FB0499484335
:10AA50002A460190029929DF0646002E10D1069859
:10AA600000280AD12078042803D106203349087031
:10AA700006E005203149087002E004202F490870E3
:10AA800057E0FFF71FFB471EFFF730FB4743A800C7
:10AA90003818618840180290FFF728FB0499484352
:10AAA000A9004018618840180190069A029929DF90
:10AAB0000646002E09D12078042803D106201F491C
:10AAC000087002E005201D49087032E0FFF70EFB18
:10AAD00004994843A90047186088820838462169CC
:10AAE00029DF0646002E0BD1002D06D1069800283E
:10AAF00003D107201149087002E006200F490870B1
:10AB000017E0FFF7F3FA0190FFF7DCFA471EFFF7B3
:10AB1000EDFA4743009738460199FDF717FB02907D
:10AB200028DF0646002E02D107200449087000E005
:10AB300000BF00BF304607B0F0BD00005720002026
:10AB400010B504462046FFF7A7FC10BD0246501A78
:10AB50000002000A7047000070B504460D48006806
:10AB6000002812D00B4AE169A06912689047054697
:10AB700000BF2E46002E06D000BF002211463046F0
:10AB8000FEF7D2F800BF00BF02E0A169E069884784
:10AB900070BD000088200020FEB50020C043019059
:10ABA00010480468104807686846FEF743FD0546EC
:10ABB000FEF7ECFE0646002D05D001AA21460098BE
:10ABC000FEF76EFD01260198FEF740FF002800D039
:10ABD0000126002E02D03846FEF75AFC0020034919
:10ABE0000870FEBD78200020742000208D200020F9
:10ABF00010B51420FDF79CFE10BD0000F0B5024614
:10AC000024205043324B1B68C11832480068401C56
:10AC1000002802D12F48026059E02E484B68006896
:10AC2000242460432A4C246800194068834217D8C2
:10AC30002848006824235843254B1B68C0184068E7
:10AC40004B68C31A2348006824246043204C2468BE
:10AC5000001943601F48006808621E48026036E021
:10AC60004B681C4D2C6828680DE024254543184E80
:10AC70003668AD196D685B1B044624254543144EA8
:10AC80003668AD19286A451C002D07D02425454398
:10AC90000F4E3668AD196D689D42E6D3451C002DF8
:10ACA0000CD0242545430A4E3668AD196D68EE1A5E
:10ACB00024254543064F3F68ED196E604B600862DE
:10ACC00024256543024E3668AD192A6200BFF0BDE7
:10ACD000682000207420002070B502462C4C2168AA
:10ACE000084609E0904200D109E00146242444438B
:10ACF000284D2D686419206A441C002CF2D100BF35
:10AD0000441C002C00D170BD814217D1204C246816
:10AD100024256C431F4D2D686419246A1C4D2C603A
:10AD20002C462468641C002C08D101241A4DAC6008
:10AD300000241A4D2C600124194D2C702424444306
:10AD4000144D2D686419636824244443114D2D6803
:10AD50006419256A24244C430E4E3668A4192562D2
:10AD600024244C430B4D2D686419206A441C002C8C
:10AD70000CD024244443074D2D6864196468E518F9
:10AD800024244443034E3668A419656000BFBAE723
:10AD9000742000206820002000100140782000204E
:10ADA0008D200020FFB581B005460E461746E9000C
:10ADB000104A12688818694600F0C3F80446002C4F
:10ADC00002D1042005B0F0BD012020706660FFF7BD
:10ADD00045FCA060E760049820610A986061E90082
:10ADE000044A12688818009900F0C1F8FFF700FFC4
:10ADF0000020E7E770200020F8B504460E46E10089
:10AE00000C4A12688818694600F09BF80546002D28
:10AE100001D10420F8BD022028706E60E100054ACF
:10AE200012688818009900F0A2F8FFF7E1FE0020F0
:10AE3000F0E7000070200020F8B520480068401CB2
:10AE400000283AD00027FFF709FC04461C48016897
:10AE50002046FFF77BFE06461848056811E02420CF
:10AE600068431849096844186068B04200D90BE08B
:10AE70006068361A6068C719256A2046FFF76CFEBD
:10AE800000BF681C0028EAD100BF0F4800780F49B6
:10AE90000978884209D10D480078401CC0B20B499E
:10AEA0000870022801D1002008700848007880004E
:10AEB00007490F50FFF79CFE00BFF8BD742000202B
:10AEC0007820002068200020842000208520002099
:10AED0007C20002010B51120FDF72AFD10BD30B5F3
:10AEE00003461078C01C1F2801DD0C2030BD022451
:10AEF0001578681C10704C550A241578681C107061
:10AF00004C551578681C10704B550020EEE7024632
:10AF10000A70FF20000210400012487002207047A3
:10AF200010B5FEF759FB012802D0032804D101E037
:10AF3000002403E0012401E0022400BF00BF2046FA
:10AF400010BD70B502460B465078411C907888427F
:10AF500000D100211078884201D1002070BD196015
:10AF600050781826704355682C182046F6E7417033
:10AF70007047FFB581B0074615460A9E009602222B
:10AF80003846049B029900F014F80446002C02D0C5
:10AF9000204605B0F0BD0096102229463846049B95
:10AFA00000F007F80446002C01D02046F1E700200D
:10AFB000EFE7FFB587B006461D46109C00200690BF
:10AFC00020780590002747E0B900706841180A888A
:10AFD0006846028149884181002203A902A865DFF1
:10AFE00004900498002802D004980BB0F0BD684685
:10AFF000017B099881422ED10698002801D00020BB
:10B0000000E00220019020786946097B41180198F0
:10B0100008181F2801DD0C20E7E70698002809D151
:10B020002078401C20702278511C08982170A85468
:10B03000012006902078421903A902A865DF049038
:10B040000498002801D00498CFE720786946097B4E
:10B050004018207000BF7F1C3088B842B4DC0698CE
:10B06000002806D021780598401C081AC1B205981E
:10B0700029540020B9E7000010B5044674DF0748E2
:10B08000074908801920800106490880FDF7D6FD90
:10B090000A2104480088FDF725FE10BD88580000ED
:10B0A000342000200020002070B505463648006896
:10B0B000364909684018344908600020344908803E
:10B0C00074DF344800784106490E334A3348FEF7AE
:10B0D00059FF84B200BF2346002B05D000BF0022D9
:10B0E00011461846FDF720FE00BFFEF70FFB29486A
:10B0F0000068401C27490860084600784106490E50
:10B10000254A2648FEF73EFF84B200BF2346002BA7
:10B1100005D000BF002211461846FDF705FE00BF0E
:10B120001D4880888005800D002820D101218902DA
:10B130001948FEF76FFF00BF2346002B05D000BF64
:10B14000002211461846FDF7EFFD00BF11480078B8
:10B150004006C00F124909784906C90F884206D136
:10B160000F4800688009401C80010D490860FDF708
:10B1700065FD192080010B4908800A2109480088D3
:10B18000FDF7B0FD70BD00000C200020082000205D
:10B19000022000201C200020242000201420002059
:10B1A0002020002000200020DDDDDDDDDCBBBBDD5C
:10B1B000DDDDDDDDDDDDDDDD988888888888888857
:10B1C0007777777777888888855555566666666677
:10B1D0006666666666688888833333322222222256
:10B1E000222222222228888D08B20100002000207D
:10B1F000A8000000D48A0100B0B20100A8200020FD
:10B20000200C0000E48A010040060000B0040000A9
:10B21000000100000000000000000000000000002D
:10B22000000000000000000000000000000000001E
:10B23000000000000000000000000000885800002E
:10B2400000000000060000000024F40000000000E0
:10B2500000000000000000000000000000000000EE
:10B2600000000000000000000000000000000000DE
:10B2700000000000000000000000000000000000CE
:10B2800000000000000000000000000000000000BE
:10B2900000000000000000000000000000000000AE
:10B2A000000000000000000000000000000000009E
:04000005000180C1B5
:00000001FF
