:020000040001F9
:1080000028390020F58001000F8101001181010055
:108010000000000000000000000000000000000060
:1080200000000000000000000000000013810100BB
:108030000000000000000000158101001781010010
:108040001981010019810100898A0100198101004B
:1080500019810100000000006987010019810100F9
:1080600019810100198101001981010019810100A4
:108070001981010019810100198101001981010094
:1080800019810100E98901001981010019810100AC
:10809000118A010019810100198A0100198101006A
:1080A000198101001981010000000000000000009A
:1080B00000000000000000000000000000000000C0
:1080C0000348854600F08AF90048004759A7010097
:1080D00028390020401E00BF00BF00BF00BF00BF06
:1080E00000BF00BF00BF00BF00BF00BF00BFF1D195
:1080F000704700000321094802680A4302600848EB
:1081000002680A4302600748804707480047FEE7C5
:10811000FEE7FEE7FEE7FEE7FEE70000240500407D
:1081200054050040518A0100C180010030B50B4662
:10813000014600202022012409E00D46D5409D4241
:1081400005D31D469540491B2546954040191546C7
:10815000521E002DF1DC30BD70B5002425460028EC
:1081600001DA01244042002901DA01254942FFF7E2
:10817000DDFFAC4200D04042002C00D0494270BD2F
:1081800003460B439B0703D009E008C9121F08C030
:10819000042AFAD203E00B780370401C491C521EDB
:1081A000F9D27047D2B201E00270401C491EFBD2E6
:1081B00070470022F6E710B513460A4604461946F2
:1081C000FFF7F0FF204610BD0FB400B58DB0099049
:1081D0000B9010A900200091C0430A9000200C9041
:1081E00006480690064807906A4609A80F9900F0CD
:1081F000C3F80DB008BC04B0184700009983010013
:10820000B9830100FFB50027FF4383B000205C68FD
:1082100001909E681D46A9697F1C049888470090BC
:10822000296A88470028F6D10098401C0CD003200A
:1082300040028443002E19DD600614D500982B28D7
:1082400009D02D280FD103E00020C04307B0F0BDB6
:10825000012080020443A9697F1C04988847761E88
:108260000090002E02DD0098302803D005980028E9
:1082700025D035E0012040020443A969761E7F1C09
:10828000049888470090002E03DD782805D05828F0
:1082900003D00598002810D022E00598002801D0CE
:1082A00010281DD1012040028443A969761E7F1C3D
:1082B000049888470090102002E0082000E00A207F
:1082C00005900DE0012149020C43059A0199761EA3
:1082D000514308180190A9697F1C049888470090B1
:1082E000002E05DD0599009800F031F80028E9DA44
:1082F000E96904988847A00502D40120C043A5E796
:10830000E00722D1600611D56005019800D54042F2
:1083100029680A1D2A600968220501D5087014E041
:10832000220701D5088010E008600EE02868011DD2
:1083300029600068210502D50199017005E0210737
:10834000019901D5018000E0016038467EE73A28B6
:1083500000D23038202302469A43412A01D31046E6
:108360003738884201D30020C04370470268137831
:10837000511801601846704710B5D1600449516129
:108380000449116200211161114600F041F810BD4D
:108390006D830100018401004268002A08D0016851
:1083A0000B78491C002B03D0521E06C0184670479C
:1083B0000121C160881E70474268002A0BD0C36843
:1083C0000168002B07D183688B4204D0491E521CE0
:1083D00006C0002070470020C0437047064C0125AE
:1083E000064E05E0E36807CC2B430C3C984710345D
:1083F000B442F7D3FFF768FEC0CA0100E0CA01002B
:1084000010B50F21C0B2490200F09CF910BD000068
:10841000F3B58DB000200A9001200B90002608468D
:108420000C300C46099062690121099890470500BB
:108430002ED0252D2DD0216A8847002818D06269BA
:10844000012109989047216A88470028F7D1411EE9
:1084500062690998904700E0761CA1690D988847E9
:10846000216A88470028F7D1E1690D988847DAE743
:10847000A1690D9888470746A84201D1761CD2E72A
:10848000E1690D9888477F1C02D10A98002877D0AF
:1084900046E1002762693D463946099890472A28F7
:1084A0000CD16269012109989047012506E00A2153
:1084B0004F433F18303FEBD4102005436269012140
:1084C00009989047014630390A2903D29A498F42C8
:1084D000DEDCECE7E90600D4984F6C280AD04C2883
:1084E00010D0682824D06A282ED074280CD07A287E
:1084F0000AD00DE062690121099890476C2823D0C9
:1085000004211CE02020054362690121099890475D
:10851000A760656065284FD026DC582839D01ADC62
:10852000452849D012DC252834D04128B0D143E079
:108530006269012109989047682802D008210D43FB
:10854000E6E70120C002DEE70220DCE7462833D060
:1085500047282CD130E05B287BD061282CD06328C1
:1085600077D0642823D15EE06F284CD009DC6628E0
:1085700022D0672820D0692826D06E2817D12EE077
:10858000CAE070284AD073286CD075284BD0782860
:108590000DD150E0A1690D9888470546252800D1E6
:1085A0006CE7E1690D9888476D1C00D16DE7B7E075
:1085B0000A2248E00A224FE0012023466A46C043CF
:1085C0000D99C046C046A0E028464021084360609F
:1085D000A807234601D5002235E000223CE02068B0
:1085E000011D21600068290501D506701BE72907D8
:1085F00001D5068017E7A90703D5F117066041608A
:1086000011E706600FE72846402108436060A8078D
:10861000234601D5082216E008221DE048492846D5
:108620000840606016E02846402108436060A807C3
:108630002346BFD5BCE72846402108436060A80711
:1086400008D5234610220120C0430D99C046C046DC
:108650005BE007E0234610220120C0430D99FFF79D
:10866000D1FD52E000210C910B460091632802D00D
:108670005B2807D043E0E80601D40120A060012078
:1086800000903CE062690121099890475E2805D17D
:1086900001200C90014662690998904721690029E0
:1086A00006D10B4601AA8F00491CD3510829FADBD9
:1086B000002835D0216900290ED1C117C90E09182B
:1086C0004A11930001AA9A1849094901411A012047
:1086D0001368884003431360626901210998904739
:1086E0005D28E5D10C98002808D0002001AB81005E
:1086F0005A58401CD2435A500828F8DB01AB0120DD
:108700002246C0430D99C046C04600280ADA401CE4
:1087100006D10B98002803D00020C0430FB0F0BD55
:108720000A98FBE7E90702D10A99491C0A91361811
:1087300000200B9077E60000CCCCCC0CFFFFFF7F35
:10874000F1F7FFFF7F2801D9002207E0054B42081F
:108750009A5CC00700D112091207120F0120904045
:108760000840704780CA0100F0B585B030480569FF
:1087700000203049C863002654E0142070432E497D
:10878000096844180120B0402C49096808400028B5
:1087900046D0002002900190E068C0436840216804
:1087A000084003902046039903F0D4F9204800695B
:1087B00068402168084004900498002818D0049864
:1087C00068400090E068C043009948402168084034
:1087D00007463946204603F0BDF9A0680099884352
:1087E000384001906068009908403840029000BF0E
:1087F000A068A84303990840019908430190606864
:108800002840039908400299084302900199029870
:108810000843002803D0226901990298904700BFBD
:10882000701CC6B2064800788642A6DB05B0F0BDD3
:1088300000050050406100409C2000209420002052
:1088400099200020C206D20E01219140014A1160F8
:108850007047000080E200E0C206D20E0121914084
:10886000014A11607047000000E100E0C206D20E2C
:1088700001219140014A11607047000000E200E0D0
:1088800010B5002819DA1A4A03071B0F083B9B088A
:108890009B00D2588307DC0EFF23A3409A438B072B
:1088A0001B0E8407E40EA3401A43114B0407240F48
:1088B000083CA408A4001A5118E00E4A03231B0226
:1088C000D21883089B00D2588307DC0EFF23A340F5
:1088D0009A438B071B0E8407E40EA3401A43054BF3
:1088E000032424021B198408A4001A5110BD00009F
:1088F0001CED00E000E100E010B5002819DA1A4A8A
:1089000003071B0F083B9B089B00D2588307DC0E14
:10891000FF23A3409A438B071B0E8407E40EA3405A
:108920001A43114B0407240F083CA408A4001A5151
:1089300018E00E4A03231B02D21883089B00D2586A
:108940008307DC0EFF23A3409A438B071B0E84078B
:10895000E40EA3401A43054B032424021B19840888
:10896000A4001A5110BD00001CED00E000E100E081
:1089700010B5002819DA1A4A03071B0F083B9B0899
:108980009B00D2588307DC0EFF23A3409A438B073A
:108990001B0E8407E40EA3401A43114B0407240F57
:1089A000083CA408A4001A5118E00E4A03231B0235
:1089B000D21883089B00D2588307DC0EFF23A34004
:1089C0009A438B071B0E8407E40EA3401A43054B02
:1089D000032424021B198408A4001A5110BD0000AE
:1089E0001CED00E000E100E010B500200749086040
:1089F0000021064841608160C16000200349403980
:108A00000860486003F0FAFB10BD0000401101400F
:108A100010B503F0A3FA10BD70B50C48006800282B
:108A200010D00A4800688047044600BF2546002D44
:108A300006D000BF00221146284600F00BFA00BF06
:108A400000BF01E001F0C4FC70BD0000CC2000209C
:108A500010B501F049FD002805D0074807494860D6
:108A6000C8130749886101F023FD002802D00120C6
:108A70000449886010BD0000DFFF07C0000500400A
:108A8000006C0040000600401CB5234880680028A8
:108A900022D000202049886020488069C1B2204847
:108AA00000F012FA0446002C08D001206946087034
:108AB000019468461B49096888470CE0184801F092
:108AC00097FB012807D100206946087068461549C0
:108AD0000968884700BF00BF0F48C069002805D05B
:108AE00000200D49C861032002F032FA0A48406AAA
:108AF00000280FD0002008494862084880380468E0
:108B000004600220694608700194684605490968B6
:108B1000884700BF1CBD0000002100400025004028
:108B20007C2700208020002030B47446641E257805
:108B3000641CAB4204D3635D5B00E31830BC184790
:108B40001D46F8E702E008C8121F08C1002AFAD142
:108B500070477047002001E001C1121F002AFBD1BD
:108B60007047000010B5054801F042FB002802D014
:108B700000F006F801E000F02DF810BD8C27002071
:108B800008B50F480078022802D001200D498860FE
:108B900069460D4800F06EF9002802D000F01AF87E
:108BA00008BD802009498860684600780849C86186
:108BB00002200349087080200449486000BFEFE7A5
:108BC00084200020002000408C270020002300404B
:108BD000002500401CB501200549C8600549087002
:108BE00003206946087068460349096888471CBD28
:108BF0000020004084200020802000200020054923
:108C0000087001200449C8604860002003490860DA
:108C10007047000084200020002000400025004014
:108C2000F8B504460F461546002600202870207827
:108C3000002809D02A463946204601F00BFF064697
:108C4000002E01D03046F8BDA078002808D0294673
:108C5000384600F017FD0646002E01D03046F2E7F8
:108C6000E07800280ED002212A78501C2870B954D0
:108C700001212A78501C2870B954E1782A78501CB8
:108C80002870B954606800280BD00020616808562D
:108C90002A46394603F074FB0646002E01D03046C2
:108CA000D1E7208900280CDD3B4606220221204620
:108CB0000830009503F0D5FD0646002E01D0304661
:108CC000C1E7208A00280CDD3B460722032120460D
:108CD0001030009503F0C5FD0646002E01D0304649
:108CE000B1E7208B00280CDD3B46152214212046DD
:108CF0001830009503F0B5FD0646002E01D0304631
:108D0000A1E7206A002809D02A463946206A01F0E6
:108D10001BF90646002E01D0304694E7606A002811
:108D200009D02A463946606A01F0E2FD0646002E67
:108D300001D0304687E72C20005D002809DD2A4657
:108D40003946204602F046FF0646002E01D0304646
:108D500079E7304677E70146C878042210400028BA
:108D600001D1072070470020FCE7000008B51F482C
:108D7000006800901E4800786946887030211D48C0
:108D8000FFF717FA01201B490870082048700020DF
:108D9000887019480078C870012008826946154813
:108DA000416130211548FFF704FA1548154908803C
:108DB0001A2088801449134881601049486213487A
:108DC0000068114948610D490A4800F035FD104915
:108DD000086000BF08460368002B05D000BF0022D2
:108DE0001146184600F036F800BF08BD60CA010001
:108DF000E4200020182200205020002048220020DB
:108E0000815800007822002018210020082000202E
:108E10004C20002070B586B004460D4618216846E7
:108E2000FFF7C7F9002168460170002001906846ED
:108E300001720482458273DF064600BF3346002B71
:108E400005D000BF00221146184600F003F800BF0D
:108E500006B070BD00BFBFF34F8F04480449C8601F
:108E6000BFF34F8F00BF00BFFEE700000400FA050C
:108E700000ED00E070B504460D46204601F0BDF956
:108E800000280AD0A068A18808402168085C2870E2
:108E9000A068401CA060002070BD0520FCE70346D0
:108EA000002901D10E207047002A03D0501E104027
:108EB000002801D00920F6E71960501E9880002094
:108EC0009860D86000BFEEE770B504460D462046B6
:108ED00001F093F9A188884209D8E068A188084088
:108EE00021680D54E068401CE060002070BD042043
:108EF000FCE7000070B505460C46002C01D10720A8
:108F000070BD20468107890F002901D1012100E0B1
:108F10000021002901D10720F2E71348046013481B
:108F20000570002012490870124908600F48007847
:108F30001422504301460C480068FFF73AF900201C
:108F4000C0430D4988600620012181400B4A116011
:108F500000BF0121FFF7D0FC062001218140084A13
:108F6000116000BF0020CBE79C200020982000204B
:108F700099200020942000200063004080E200E05F
:108F800000E100E010B502460B480068002801D15E
:108F9000082010BD09480078824201DB0720F8E76D
:108FA00014205043044C24680319054800691C68C8
:108FB000204008600020ECE79C2000209920002041
:108FC0000005005010B504460F480068002801D184
:108FD000082010BD0D480078844201DB0720F8E727
:108FE000204602F0F5F80120A040094909688143B4
:108FF000074801600068002803D10120C007054927
:1090000088600020E5E700009C20002099200020D7
:109010009420002000630040F0B502463748006805
:10902000002801D10820F0BD35480078824201DBDC
:109030000720F8E70020334BD863334804693348EE
:109040000068002802D15806314B5860012090403A
:109050002E4B1B6818432D4B1860002314205043DF
:10906000264D2D684019C360002142E001238B404A
:10907000184614235343214D2D68EB580340002B11
:1090800036D025460540002D02D003231B040EE0F8
:1090900001235B0414255543184E3668AD19ED685D
:1090A000054314265643154F3F68F619F56005250C
:1090B0002D0707263602AD198E00AD59032636045A
:1090C000B5430526360707273F02F6198F00F551ED
:1090D00005252D0707263602AD198E00AD591D4313
:1090E0000526360707273F02F6198F00F55100BF06
:1090F000491C2029BAD3002095E700009C200020BD
:10910000992000204061004000050050942000207C
:1091100000630040F8B504460D4616461F46204839
:109120000068002801D10820F8BD002F01D10720D8
:10913000FAE71C4800781C490978884201DB0420C2
:10914000F2E7284630431749097814225143144A5C
:109150001268505013480078142148431049096898
:10916000401845600F480078142148430C490968AD
:10917000401886600B480078142148430849096864
:109180004018076107480078207006480078401CA6
:1091900004490870207802F01BF80020C4E70000A2
:1091A0009C2000209920002098200020F8B505463A
:1091B0000C462778A068000105490E586088009089
:1091C0002A463946204608302369B047F8BD0000DA
:1091D0006828002070B503460C461948006800282E
:1091E00001D1082070BD002A01D10720FAE7002B29
:1091F00001D10720F6E700211CE024204843104D50
:109200002D68285C002814D10125242048430C4EE9
:109210003668355424204843094D2D684019447060
:1092200024204843064D2D684019826119600020B2
:10923000D8E7491C034800788142DEDB0420D1E7EF
:10924000A4200020A0200020FFB581B00E461746C4
:109250001C4620468107890F002901D1012100E029
:109260000021002902D1072005B0F0BD002C01D15A
:109270000720F9E702F08EFB26490A980860264885
:1092800006702648046000250CE000212420684375
:10929000224A1268115424206843204A1268801818
:1092A00001756D1CB542F0DB2420704304190320C6
:1092B0001B4908701B480460183400250CE0E900C5
:1092C000184A126888180021017041708770446044
:1092D000182179430C196D1C032DF0DB0020C043CD
:1092E00011490860002011490870114908701420C4
:1092F000FFF7A8FA03211420FFF73AFB1420FFF729
:10930000ABFA019802F01CFB02F014FB094908605B
:109310000020A9E7C4200020A0200020A4200020D5
:10932000A8200020AC200020B0200020C020002079
:10933000C1200020B4200020FEB504460D4616468C
:1093400016480068002801D10820FEBD14480078A6
:10935000844201D2052D01D20720F6E72420604384
:109360000E490968085C012801D00820EDE7242097
:1093700060430A49096840184078012801D128460D
:1093800000E00020074603F043FA3B462A46214608
:109390000096019002F0E8FED7E70000A42000202C
:1093A000A020002070B504460D480068002801D1B7
:1093B000082070BD0B480078844201D30720F8E7ED
:1093C0002420604306490968085C012801D0082070
:1093D000EFE703F01DFA0546214602F0EFFEE8E74D
:1093E000A4200020A020002070B50446FF2C04DA41
:1093F000042001F0ADFD002070BD2004050E0748DB
:109400000078854201D00720F6E7042001F0A0FD96
:1094100002480078FFF7D6FDEEE700007920002033
:1094200010B5044621460248FFF724FD10BD000098
:109430007C270020FFB585B004460F460E9D002016
:10944000039002907B4908707B4907980860002FC1
:1094500002D1072009B0F0BDB88882B277483968D8
:10946000FFF71DFD0646002E01D03046F2E7B88911
:1094700082B27348B968FFF712FD0646002E01D08C
:109480003046E7E7607801F030FB20780021019159
:10949000019989000522120707231B02D2188300B5
:1094A000D15000BF60786749C86020784861A068E3
:1094B00048626079002804D00E2062494031C862B9
:1094C00003E000205F494031C8622079022874D14E
:1094D000A07801F00AFBA178012088405A49486031
:1094E0000020C04357490861A07888605548403043
:1094F000C06A0121084353494031C862E178012024
:10950000884052490860E0780022032100920191CE
:1095100001990904009A92001143052212070723BA
:109520001B02D2188300D15000BFE178012088408F
:109530000390E1780120884002902888002810D10B
:10954000434B4448029A0399FFF7E4FD0646002E78
:1095500001D030467EE73F4800780002FF30288087
:1095600008E02888FF2801DA072073E7288800121E
:109570003849087004A937480078FFF703FD06460C
:10958000002E01D0304665E732480078FFF744FDF1
:109590000646002E01D030465CE7E1780120884085
:1095A00004990840002804D1012001F0D1FC29E0F1
:1095B00003E0002001F0CCFC24E02079012811D147
:1095C0002888002807D1244800782880224800787D
:1095D000401C21490870204603F0A2F801201549DB
:1095E00008700FE02888002807D11B4800782880E1
:1095F00019480078401C1849087003F071F80120E0
:109600000C4908700020C04314498860A1208000E4
:109610004860022001218140114A116000BF089971
:10962000FFF72EF90220012181400E4A116000BF90
:1096300000200FE784200020802000207C270020CD
:109640008C27002000250040000500507C200020D1
:109650006DA3010079200020782000200023004025
:1096600080E200E000E100E070B5044621460448D5
:10967000FFF72AFC0546022001F06AFC284670BD6F
:109680008C270020F8B505460C462078001D1F28C1
:1096900001DD0C20F8BD684679DF0646002E01D0BA
:1096A0003046F7E703212278501C2070A954192175
:1096B0002278501C2070A9542078411968460088EF
:1096C00003F04EF82178401820700020E2E70000F7
:1096D00070B504460020164948602002082108435E
:1096E00014494860012008601349086000201349AC
:1096F0000860002501E0681CC5B210480068002819
:1097000001D1FF2DF7DB00200C49086001200A4938
:10971000486000200749086089684B2212015143C4
:109720000846FF21FEF702FD4100401880B270BDDF
:109730000073004000750040007000400071004060
:1097400030B58FB004460D461C2108A8FEF731FD48
:1097500008A8007808218843411808A801700078FB
:1097600004218843011D08A8017000780221884364
:10977000811C08A80170002009900B900C900D909E
:109780000E902178684681720621018100200190A7
:1097900000BF6846007901090901491C684601714A
:1097A0000079F021884310306946087100BF00BF7E
:1097B0006846407901090901491C684641714079B0
:1097C000F021884310306946487100BF68468079AF
:1097D00006218843811C684681718079082188436D
:1097E00001466846817180791021884301466846A8
:1097F0008171807941084900491C684681711421B2
:1098000003A8FEF7D6FC02A8039001A80490042147
:10981000684681820021C18206480790042168467B
:10982000018360882346243303AA08A9A2DF0FB06E
:1098300030BD000018200020F3B593B00D46002184
:10984000129111911398002814D01398FFF783FAFE
:109850000446002C02D0204615B0F0BD12AA09A97A
:109860001398FFF7DDF90446002C01D02046F3E7FA
:1098700009AE00E00026002D13D0284602F060FA61
:109880000446002C01D02046E6E711AA01A928468B
:10989000FFF7C6F90446002C01D02046DCE701AFF3
:1098A00000E0002710A803793A46017A304672DFBB
:1098B000D2E7000070B505461C2229461448FEF781
:1098C0005FFC002013490870286800280BD008228C
:1098D00011482968FEF754FC0F487ADF0446002C33
:1098E00008D0204670BD0C487BDF0446002C01D018
:1098F0002046F7E70020C0430849088000200849B7
:109900000870084A00210848FFF764FCEAE70000F5
:1099100060270020742000205C20002066200020AA
:109920006420002075C701007020002010B5044697
:109930002088102806D0112808D012280ED05028D0
:1099400010D107E0204601F067FA0CE0204601F054
:10995000C3FA08E0204601F091FB04E0204601F044
:109960004BFA00E000BF00BF10BD000010B5044678
:109970002046FFF7DBFF2146034800F065F820464C
:1099800001F00EF910BD0000E420002070B586B093
:1099900005460E462B4B0FCB01AC0FC4002D01D05A
:1099A000002E02D10E2006B070BD0020C043A88555
:1099B0003068286300212E204155294601A863DF25
:1099C0000446002C01D02046EDE7297868468175D1
:1099D00001218182AA1C05A90120A0DF0446002CD8
:1099E00001D02046DFE73146284601F0FFFF04465C
:1099F000002C01D02046D6E73146284602F051FC23
:109A00000446002C01D02046CDE73146284600F020
:109A1000A5FF0446002C01D02046C4E73146284665
:109A200001F05AFB0446002C01D02046BBE731462A
:109A30002846FFF785FE0446002C01D02046B2E7F9
:109A40000020B0E770CA010070B505460C46002D35
:109A500001D0002C00D170BD2088102804D011281E
:109A600007D050280FD109E02146284601F0D0F94F
:109A70000AE02146284601F02BFA05E02146284657
:109A800001F08CFA00E000BF00BF00BFE3E7000078
:109A900037B584B004460D46002C02D10E2007B025
:109AA00030BDA08D1049884203D02E20005D0028D3
:109AB00001D10820F3E76846008B142801DD072058
:109AC000EDE700200090019002900390A189684684
:109AD0000180039506A80290012168468170A08D3F
:109AE0006946A6DFDBE70000FFFF00007FB500BF8F
:109AF000002348222949082002F0E2F8054600BF69
:109B00002B46002B05D000BF002211461846FFF758
:109B1000A1F900BF00BF00200290039069460872BF
:109B200002A860DF044600BF2346002B05D000BF1B
:109B3000002211461846FFF78DF900BF0120694643
:109B40000870242068DF044600BF2346002B05D0A0
:109B500000BF002211461846FFF77CF900BF1048ED
:109B600002F0A2F8044600BF2346002B05D000BF38
:109B7000002211461846FFF76DF900BF094802F0B0
:109B8000D3F8044600BF2346002B05D000BF0022B7
:109B900011461846FFF75EF900BF7FBD9C240020E8
:109BA0006D99010005BF01000007000F0A2803DAC4
:109BB00001463031C8B202E001463731C8B27047C1
:109BC000F0B587B00F275548007814214843534912
:109BD000091D4418E5682078022804D0042823D001
:109BE00005287CD16AE0206905904D4800888602EE
:109BF0006088801B0690059880190590A0888019C0
:109C00004519012189020698884206D206988208E1
:109C10002846059929DF074605E0FF22013228463C
:109C2000059929DF07466FE0A06800013D4940180B
:109C300000890690A0680001401840890590A0683E
:109C400000014018406804900498A84205D1059985
:109C5000069848436188884202D0A0688D280DD1BB
:109C600001F0AEFB014603902846FEF75FFA2C494F
:109C700009884618304628DF07461EE001F0A0FBA1
:109C8000014601902846FEF751FA064601F098FB7E
:109C90007043281A8008039001F092FB711C48431E
:109CA00061884919401A8008029031462046029B7B
:109CB000039A02F04DF8074600BF25E001F080FB53
:109CC000014604902846FEF731FA064601F078FB7B
:109CD0007043A1884919081A8008069000E012E034
:109CE00001F06EFB711C4843A188491962888918EC
:109CF000401A8008059031462046059B069A02F0DE
:109D000027F8074600E000BF00BF002F02D1012066
:109D100002498870384607B0F0BD00009C2700203B
:109D2000902000206828002010B5002408484078C2
:109D300000280BDD06488078002807D1FFF740FF98
:109D40000446002C02D0112C00D10024204610BD66
:109D50009C2700200023142141430C4A5354142112
:109D6000414389184B808C231421414389188B600F
:109D70000023142141438918CB60142141438918E1
:109D80000B611421414389188B807047A027002064
:109D9000FFB581B0064617460024224840780A28BD
:109DA0003CD0204800781F4949784018C4B20A2C9A
:109DB00002DB20460A38C4B2142060431949091D49
:109DC0000E54002214206043401842701420604357
:109DD00040180761142060434118029805C8CA6002
:109DE0008860142161430F4A121D89180498488025
:109DF0001421614389180A9888800025101F8078F3
:109E0000002805D1FFF7DCFE0546112D00D1002505
:109E100004484078401C0349487000E00425284667
:109E200005B0F0BD9C27002010B50020084908802F
:109E3000084908700849087048708870002403E0D9
:109E40002046FFF787FF641C0A2CF9D310BD0000E1
:109E500090200020932000209C270020FEB51E4863
:109E60000068401C002834D01B4800682421484367
:109E70001A4909684018456801F05CFD01901848CE
:109E800004682146019802F043F8C61C1548007882
:109E9000002801D101F060FDAE4201D2284600E069
:109EA000304604192402240A20460F49086000BFE6
:109EB00001F040FD00900199009802F029F8C71CBC
:109EC0002046019902F024F8874201D902F0E4F912
:109ED00001E001F05FFDFEBDB0200020A4200020C5
:109EE000B4200020C8200020401501400146088809
:109EF000062808DB08881922D201904205DD08886F
:109F0000104A904201D0072070474888062808DB95
:109F100048881922D201904205DD4888094A9042BA
:109F200001D00720F0E70888064A904208D0488808
:109F3000904205D008884A88904201DD0720E3E777
:109F40000020E1E7FFFF0000F8B506460D46144685
:109F50002078801D1F2801D90C20F8BD3046FFF75E
:109F6000C5FF0746002F01D03846F6E705212278C5
:109F7000501C2070A95412212278501C2070A95422
:109F800022785119308802F0EBFB217840182070BC
:109F900022785119708802F0E3FB21784018207074
:109FA0000020DAE7034600BF002211461846FEF7FC
:109FB00051FF000010B588B01C2101A8FEF7F9F888
:109FC000002001900520C00302900F2000040390A0
:109FD0000321684601740021418201750A480690F8
:109FE0000A48079001A8FFF765FC044600BF234616
:109FF000002B05D000BF002211461846FEF72AFFAD
:10A0000000BF08B010BD0000C9AD0100A59F010050
:10A0100038B51F4800F03AFA002829D11D480078C9
:10A0200000280AD01C484069002820D00020009059
:10A03000194841696846884719E01848007800289F
:10A0400002D11548456801E0134885680022294679
:10A0500013480068FFF770F90446002C07D00E483B
:10A060008069002803D00C488169204688470AE0AF
:10A0700009484069002806D001200090064841693F
:10A080006846884700BF00200249087038BD0000BC
:10A090006820002074200020602700206420002019
:10A0A0007020002010B514484068C105C90D002972
:10A0B00020D00A46103A50B200280DDA0E4B1C335D
:10A0C0000407240F083CA408A4001B598407E40ECD
:10A0D000E3401B069B0F0BE0084B032424021B19D3
:10A0E0008408A4001B598407E40EE3401B069B0F61
:10A0F000D8B210BD0420FCE700ED00E000E100E074
:10A10000014614480078144A127890421DD0114834
:10A110000078401C0F4A107010460078022801D1C8
:10A12000002010700B48007880000C4A105808601E
:10A130000B4A086812688018094A106010460068C7
:10A140000002000A1060012070470020086000BF74
:10A15000FAE70000C0200020C1200020B820002025
:10A16000B420002070B5049C044E45683668B542A2
:10A1700002D10025024E357070BD0000282000205D
:10A1800026200020F0B50346002426E0164E36684F
:10A1900024277E43154F3F68F01946689E4203D935
:10A1A0004668F61A46601DE046689B1B46683419EF
:10A1B0000026466006750C4E35680B4F066A3E60F9
:10A1C0000669002E08D00E193602360A8660066926
:10A1D000C66016680662156000BF03480068401C30
:10A1E0000028D3D100BFF0BDB0200020A420002063
:10A1F00001468A68C868801A704701468A68C8683C
:10A20000801A704730B585B000BF6846007A0109F2
:10A210000901491C02916846007AF02188431030F8
:10A22000029000BF684671DF0324694689790811EE
:10A23000FFF7BAFC01462246641C4B48815469462C
:10A240008879FFF7B1FC01462246641C46488154D8
:10A25000694649790811FFF7A7FC01462246641CAC
:10A260004148815469464879FFF79EFC01462246E1
:10A27000641C3D488154694609790811FFF794FC34
:10A2800001462246641C3848815469460879FFF724
:10A290008BFC01462246641C334881546946C978C8
:10A2A0000811FFF781FC2146621CD4B22E4A50549B
:10A2B0006946C878FFF778FC2146621CD4B22A4A66
:10A2C0005054694689780811FFF76EFC2146621CDC
:10A2D000D4B2254A505469468878FFF765FC214678
:10A2E000621CD4B2204A5054694649780811FFF7DD
:10A2F0005BFC2146621CD4B21B4A50546946487824
:10A30000FFF752FC2146621CD4B2174A50540F2268
:10A31000154902A87CDF054600BF2B46002B05D05F
:10A3200000BF002211461846FEF794FD00BF002032
:10A33000039004900821684681811321C181042182
:10A3400001822821418203A87ADF054600BF2B46FF
:10A35000002B05D000BF002211461846FEF77AFDFB
:10A3600000BF05B030BD000008200020F8B504464D
:10A370000D462846204014490968084000280FD09F
:10A38000694612480078FEF7FDFD0646002E00D013
:10A39000F8BD00980440284600998843054600BF50
:10A3A000094800682840002803D0012000F0D0FDB3
:10A3B00007E0054800682040002802D0002000F097
:10A3C000C7FD00BFE4E700007C20002079200020CA
:10A3D000F8B529480078002800D1F8BD2748006862
:10A3E000002801D1012000E0002005462448006833
:10A3F000002801D1012000E00020064600BF002D0A
:10A4000014D1684651DF0446052C01D101250CE02A
:10A41000002C06D000BF002211462046FEF71AFD90
:10A4200003E0164900980968884700BF002E1AD13A
:10A4300014480088009069461348006861DF0446AC
:10A44000052C01D101260DE0002C06D000BF002212
:10A4500011462046FEF7FEFC04E00B480068084960
:10A460000968884700BF002D02D0002E00D000E010
:10A47000C5E700BF00BFB0E7D0200020E0200020EB
:10A48000DC200020D8200020D4200020014648886D
:10A49000064A1288904206DB4888044A5288904255
:10A4A00001DC012070470020FCE700005C20002058
:10A4B0000C48008CC0B2012812D10A48808C0007D9
:10A4C000000F00280CD10748806AF021084040287E
:10A4D00006D10448C06A0840002801D10120704715
:10A4E0000020FCE7C00F00F01948008CC0B2012822
:10A4F0002CD11748808C0007000F002826D1144863
:10A50000806AF0210840002806D11148C06A08403E
:10A51000002801D1012070470D48806AF0210840D1
:10A52000102806D10A48C06A0840002801D101203D
:10A53000F1E70748806AF0210840302806D1044836
:10A54000C06A0840002801D10120E4E70020E2E7CA
:10A55000C00F00F001468807800F002801D10120BC
:10A5600070470020FCE70000FEB52B480068019012
:10A570002A480078009040E00098C0002849096807
:10A580004418257835E01820684361680F18681C66
:10A59000C5B2A078A84200D100253878022802D0A0
:10A5A000032823D10EE02421786848431D49096817
:10A5B0004618307D002804D0786801F06FFD002037
:10A5C000307514E00CE01449096824225143154AFF
:10A5D00012688818002101750F4A016A116000BFD6
:10A5E0000D480068401C0028EDD100E000BF00BF0E
:10A5F00000BF6078A842C6D100BF0098411EC9B212
:10A6000000910028B8D1044801680198814201D026
:10A610000120FEBD0020FCE7B0200020A820002083
:10A62000AC200020A4200020FEB507464348006867
:10A63000029043480078019071E00198C0004149C0
:10A640000968451863E0781C002807D03E4624209E
:10A6500070433D4909684418276A29E0297818237E
:10A6600059436A6850182978491C29702978AA78B2
:10A67000914201D100212970466824217143324A58
:10A6800012688C180178012902D1217D002900D09F
:10A690003DE08168A160C168E160016921614169B3
:10A6A000E1612A490978002901D00021A16000BF99
:10A6B0002749A0680968401A0002000A2549884213
:10A6C00008D22349A068096801F022FCE16840181B
:10A6D000606011E01E48A168006801F019FC00905C
:10A6E000E1680098814204D9E1680098081A606026
:10A6F00001E00020606000BF0020A060E060012059
:10A700002075801E2062304601F05AFC00BF781C84
:10A71000002898D128786978884294D100BF0198A0
:10A72000411EC9B20191002887D1044801680298EE
:10A73000814201D00120FEBD0020FCE7B0200020B6
:10A74000A8200020AC200020A4200020C920002048
:10A75000B4200020FFFF7F0086B057A207CA03ABDA
:10A7600007C300BF0020574B052204210090FEF7CD
:10A770006BFD054600BF2B46002B05D000BF002215
:10A7800011461846FEF766FB00BF00BF4E4A012186
:10A790004E48FEF71FFD044600BF2346002B05D0A0
:10A7A00000BF002211461846FEF754FB00BF00BF51
:10A7B00047490120FEF79EFB054600BF2B46002BB4
:10A7C00005D000BF002211461846FEF743FB00BF2C
:10A7D00000BFFFF78BF93F48052109070722120246
:10A7E0008918086200F0F2FD1021684601812321DA
:10A7F0000902418138480190384901A800F0ACFEB7
:10A80000044600BF2346002B05D000BF002211469E
:10A810001846FEF71FFB00BF314800688B218901F5
:10A820004843304908602E4801682E480068FDF70B
:10A830007DFC064623210902FDF778FC2A480140E9
:10A840000D462A4A254800F007FD044600BF23466E
:10A85000002B05D000BF002211461846FEF7FAFA79
:10A8600000BF01218902214800F03EFD044600BFDF
:10A870002346002B05D000BF002211461846FEF7E4
:10A88000E9FA00BFFFF7BEFC01F0EAF9FEF76EFA45
:10A89000FFF790FB01F03CF900217D20C001FEF79D
:10A8A000B9FA00220121C90308480068FEF744FDF7
:10A8B00000BF00F0C1FCFCE753746172742E2E2EB1
:10A8C0000A000000E424002069C90100542000208F
:10A8D0004C2700200303000065A101002C2000206C
:10A8E0001C20002020200020C0FF00004420002069
:10A8F000F8B505460E4614462879801CC7B2207864
:10A90000801CC0191F2801DD0C20F8BD781CC1B2C5
:10A910002278501C2070B154FF212278501C2070E6
:10A92000B15422789119288801F01AFF2178401833
:10A930002070A88800280EDDA868002801D1072013
:10A94000E3E7AA8823789819A968FDF719FC20780D
:10A950002979401820700020D7E7000030B58FB06B
:10A9600004460D461C2108A8FDF723FC08A8007822
:10A9700008218843411808A8017000780421884301
:10A98000011D08A80170007802218843811C08A8D5
:10A990000170002009900B900C900D900E90217882
:10A9A00068468172042101810020019000BF684641
:10A9B000007901090901491C684601710079F021FB
:10A9C000884310306946087100BF00BF684640796F
:10A9D00001090901491C684641714079F021884309
:10A9E00010306946487100BF684680790621884367
:10A9F000811C684681718079082188430146684638
:10AA0000817180791021884301466846817180797F
:10AA100041084900491C68468171142103A8FDF7CB
:10AA2000C8FB02A8039001A804900A21684681820D
:10AA30000021C182064807900A2168460183608888
:10AA40002346143303AA08A9A2DF0FB030BD0000CB
:10AA500008200020F7B584B004460F460698067813
:10AA6000B01C1F2803DC6078801C1F2802DD0C202E
:10AA700007B0F0BD1F20801B801E85B20295B11C5F
:10AA8000781802A97DDF03900398002801D003986D
:10AA9000EEE72078022808D168460089A84204DC45
:10AAA00009200190684605890BE008200190607834
:10AAB000002804D06078A84201DC657801E068468F
:10AAC0000589681CC2B23046711CCEB23A54304679
:10AAD000721CD6B20199395406980178A81C08183E
:10AAE000C1B2069801700020C2E7032105221207B7
:10AAF00007231B02D2188300D150704701218140E7
:10AB0000014AD1607047000000050050014603482B
:10AB10000069C840C007C00F704700000005005022
:10AB200001218140014A91607047000000050050FA
:10AB3000F8B507460D4616460820FFF7E7FF002840
:10AB400004D10820FFF7ECFF01F01CFD00241FE0FA
:10AB5000285D5C2807D1601C285C722803D10D2178
:10AB6000601C04462954285D1A280AD10820FFF7E2
:10AB7000CDFF002805D00820FFF7C0FF0020FEF71A
:10AB800033FC00BF285DFEF76FFD0028FAD1641C7E
:10AB9000B442DDD3082001490880F8BD24200020FC
:10ABA00070B50546288819287BD008DC10380300CA
:10ABB000FDF7BAFF085B62F17BA5F1F1A4F11E2855
:10ABC00006D039286ED052286DD055286CD1D1E0EE
:10ABD000287A582848D1687A812845D16F4840683A
:10ABE00010306F494968232212038918884204D91A
:10ABF0006B484068103869494860684840681030C0
:10AC000068494968884212D16448406810306349F5
:10AC1000486074DF002310226249634800F026FC7C
:10AC20000320624908800820614908801CE05F48D1
:10AC30000088002807D174DF03212020FEF7EAF8FE
:10AC400003205A49088055484068103053494860ED
:10AC500000231022544800F009FC5648006852496D
:10AC6000091F0860FEF782F896E0A888524908801C
:10AC70000520524908808FE00820FFF747FF002891
:10AC800005D00020FEF7B0FB0820FFF737FF0020BB
:10AC9000C0434949088000217D20C001FEF7BAF871
:10ACA0007AE057E065E016E075E00020444908606E
:10ACB0000B46444A0021404800887FDF044600BF1D
:10ACC0002346002B05D000BF002211461846FEF790
:10ACD000C1F800BF60E000231A46194636480088D4
:10ACE000A9DF044600BF2346002B05D000BF002289
:10ACF00011461846FEF7AEF800BF4DE04CE0304874
:10AD00000068002813D02E48066800231A463146F2
:10AD10002948008882DF044600BF2346002B05D067
:10AD200000BF002211461846FEF794F811E00023F8
:10AD30001A4619462048008882DF044600BF234691
:10AD4000002B05D000BF002211461846FEF782F8FE
:10AD500000BF21E0A87900280AD100231022114960
:10AD6000114800F083FB00217D20C001FEF752F85E
:10AD700012E000BF13211048008876DF044600BFB0
:10AD80002346002B05D000BF002211461846FEF7CF
:10AD900061F800BF00E000BF00BF70BD442000208C
:10ADA0002C2000203C2000201C21002038200020E6
:10ADB0002420002020200020062000203A2000200F
:10ADC000842400200020002070B505462878002843
:10ADD0000FD13B210748008876DF044600BF234699
:10ADE000002B05D000BF002211461846FEF732F8AE
:10ADF00000BF70BD0620002010B504460822A11D2A
:10AE00000248FDF7BDF9FFF703F910BD68200020E7
:10AE10008A8882857047000010B50446A0880949D9
:10AE200008800822214616310748FDF7A9F90020BD
:10AE3000064908700648C089002801D1FFF7E8F8E4
:10AE400010BD000066200020682000206420002043
:10AE50006027002010B508480078012802D0022899
:10AE600007D102E0FDF7CAFE04E0032002490870A2
:10AE700000E000BF00BF10BD8420002010B51048C6
:10AE80000078002802D0032816D111E004200D49D3
:10AE9000086001200C4908600C48FFF7A9F9002858
:10AEA00002D0FDF76DFE02E001200549087004E0C4
:10AEB00002200349087000E000BF00BF10BD000081
:10AEC0008420002000250040002000408C27002026
:10AED0000022D2438285704770B505460020C043EA
:10AEE0000A49088000200A4908700A480068FEF7ED
:10AEF00059FA0446002C07D007488069002803D07F
:10AF0000054881692046884770BD00006620002002
:10AF100064200020702000206027002010B5094820
:10AF20000078012807D0022804D0032806D1FDF7B5
:10AF300065FE04E000BFFDF715FE00E000BF00BFA6
:10AF400010BD00008420002010B5FDF757FE10BD95
:10AF500010B504462300FDF7E7FD0504070D0A10B0
:10AF60001300FFF777FF0CE0FFF788FF09E0FFF71A
:10AF7000D5FF06E000F008F803E0FFF7E5FF00E08A
:10AF800000BF00BF10BD000010B5034800780128C5
:10AF900001D1FDF7F5FD10BD84200020F8B5044671
:10AFA0000E46B51D2988208A814215D1288B02289A
:10AFB00012D100BF00BFA97EEA7E120211430846EB
:10AFC000C107C90F002903D001212E2001554DE0F2
:10AFD00000212E20015549E02888A188884209D106
:10AFE000206B002806D02A8B29461A312046236B75
:10AFF00098473BE02888A18A884220D1206B00280E
:10B000001DD0002006E029461A31095C184A115467
:10B01000411CC8B20A28F6DB00BF68460078010967
:10B020000901491C009168460078F02188431030DE
:10B03000009000BF0A220E4968467CDF16E028888F
:10B04000A18B884207D1206B002804D0A81C8069FE
:10B05000084908600AE02888A18C884206D1206B44
:10B06000002803D0A81C806903490860F8BD0000CF
:10B07000082000201C2000201820002070B5054664
:10B08000AC1D20881249C989884220D1208B022812
:10B090001DD100BF00BFA17EE27E1202114308460F
:10B0A000C107C90F002902D0FEF7B2FF0FE009481F
:10B0B0000068FEF777F90646002E07D0044880693D
:10B0C000002803D0024881693046884700BF70BD20
:10B0D000602700207020002030B58FB004460D4658
:10B0E0001C2108A8FDF765F808A800780821884306
:10B0F000411808A80170007804218843011D08A8A0
:10B100000170007802218843811C08A8017000208A
:10B1100009900B900C900D900E90217868468172EA
:10B12000052101810020019000BF684600790109D6
:10B130000901491C684601710079F02188431030EB
:10B140006946087100BF00BF6846407901090901DE
:10B15000491C684641714079F021884310306946A6
:10B16000487100BF6846807906218843811C684683
:10B170008171807908218843014668468171807910
:10B180001021884301466846817180794108490051
:10B19000491C68468171142103A8FDF70AF802A82A
:10B1A000039001A804900421684681820021C18295
:10B1B00006480790042168460183608823461C33B3
:10B1C00003AA08A9A2DF0FB030BD00001C20002098
:10B1D00010B50146002029E014224A43154B1B6894
:10B1E0009A58012383401A40002A1ED005221207D4
:10B1F00007231B02D2188300D25803231B049A434F
:10B2000005231B07072424021B1984001A51052259
:10B21000120707231B02D2188300D25805231B07ED
:10B22000072424021B1984001A51401C2028D3D360
:10B2300010BD00009C20002010B548DF044600BF70
:10B240002346002B05D000BF002211461846FDF70B
:10B2500001FE00BF10BD00003CB5034600BF204802
:10B260000078002801D108203CBD00BF002B01D18F
:10B270000E20F9E7002A01D10E20F5E718688C2886
:10B2800005D218680001174C2058002801D107206A
:10B29000EAE75C68186801940090019C1868000156
:10B2A000104D401900894843201801900098000172
:10B2B0002C4600194089009C2401641924896043AC
:10B2C000009C2401641964680019019CA04201D803
:10B2D0000720C9E7019C0098546010600020C3E774
:10B2E0009220002068280020F8B504460D4600BFD3
:10B2F00027480078002801D10820F8BD00BF002CA5
:10B3000001D10E20F9E720688C2805D220680001C1
:10B3100020490858002801D10720EEE720680001E5
:10B320001C4940184089216809011A4A891809896D
:10B3300048432168090189184968401861688842B2
:10B3400001D80720D9E76068FFF704F9002801D188
:10B350001020D2E723681B010E4FDB1962685B687F
:10B36000D01A226812013B46D2181189FCF7DEFE82
:10B37000002901D00720C0E700202B4602462146C5
:10B3800000900420FEF704FD06463046B5E70000B5
:10B39000922000206828002070B508484469601C8D
:10B3A000002807D000F00CF8054629462046FCF797
:10B3B000BDFE70BD012000074069FAE700100010D3
:10B3C00001200007006980B270470000F8B5FEF761
:10B3D0002BFD00201E490880FFF7DEFF05468D3D4E
:10B3E000FFF7EEFF45431B48056000201A4908801F
:10B3F00000BF0DE000210201184B99500201D21844
:10B4000011810201D21891810201D2185181401C90
:10B410008C28EFD3082012490870FFF7D1FF009065
:10B42000FFF7BAFF471EFFF7CBFF47433E463046C4
:10B430000099FCF77BFE054628DF0446002C04D16A
:10B44000012008498870084908702046F8BD0000AE
:10B45000882000208C2000209020002068280020D8
:10B46000932000209C27002092200020FFB581B06F
:10B470000C4615461E4600BF35480078002802D10C
:10B48000082005B0F0BD00BF002C01D10E20F8E768
:10B490000198002801D10E20F3E720688C2805D2FE
:10B4A000206800012B490858002801D10720E8E74F
:10B4B0002068000127494018408921680901254A70
:10B4C0008918098948432168090189184968401881
:10B4D0006168884201D80720D3E7002D06D0206894
:10B4E00000011C4940180089A84201DA0720C8E77A
:10B4F000A81921680901174A89180989884201DDBC
:10B500000720BEE70198FFF725F8002804D0304651
:10B51000FFF720F8002801D11020B2E76068FFF79C
:10B5200019F8002801D11020ABE7606881192A467C
:10B530000198FCF725FE00952068000105490F5889
:10B54000002203212046019BB847002099E7000014
:10B550009220002068280020F8B504460D4600BF60
:10B560004A480078002801D10820F8BD00BF002C0F
:10B5700001D10E20F9E7002D01D10E20F5E720685A
:10B58000002801D10E20F0E7FFF71AFFA1888842BA
:10B5900002DBA088102801DA0720E6E7E08800280F
:10B5A0001CD0FFF7F9FE471EFFF70AFF4743E0886C
:10B5B000A188484336490968401887420ED3FFF7EF
:10B5C000FFFEE188A2885143884209DAFFF7F8FEBE
:10B5D0000746A188FCF7C0FD002901D00720C4E779
:10B5E00020798007800F002801D00720BDE7294877
:10B5F00000888C2801D10420B7E7264800882860FD
:10B60000234800686860234909880901224A89188B
:10B61000686848601F490988090120685050A0885F
:10B620001C490988090189180881E0881949098895
:10B6300009018918488100200090A688E1884E43BE
:10B6400000BF0098401C80B20090FFF7B9FEB042E6
:10B6500003D2FFF7B5FE361A00E00026FFF7B0FE72
:10B660000B49096840180A490860002EE9D10949C8
:10B6700009880901084A89180098888105480088C6
:10B68000401C0449088000206FE700009220002041
:10B690008C2000208820002068280020F8B504466F
:10B6A0000E4615461F4600BF2F480078002801D1DE
:10B6B0000820F8BD00BF002E01D10E20F9E7002CB4
:10B6C00001D10E20F5E720688C2805D22068000102
:10B6D00026490858002801D10720EAE72068000120
:10B6E00022494018408921680901204A891809899E
:10B6F00048432168090189184968401861688842EF
:10B7000001D80720D5E7002D06D020680001174991
:10B7100040180089A84201DA0720CAE7E819216821
:10B720000901124A89180989884201DD0720C0E70A
:10B730003046FEF70FFF002804D03846FEF70AFF18
:10B74000002801D11020B4E76068FEF703FF00284D
:10B7500001D11020ADE72B4632462146022000974A
:10B76000FEF716FBA5E700009220002068280020C5
:10B77000F0B585B0064600256A48807801287DD15D
:10B7800000206849887068480078082819D1022E7E
:10B7900003D100206449087002E00020634908706A
:10B7A000FEF7C2FA0546002D09D05E480078142243
:10B7B00050435C4A121D81182846FDF7F7FC05B07E
:10B7C000F0BD022E02D0032E7ED183E055480078D2
:10B7D000142148435349091D441855480088401C0A
:10B7E000534908802078022807D108460088800243
:10B7F0006188884201DB012000E00020039020786E
:10B80000052805D148480078072801D1012000E02B
:10B81000002002902078042805D1434800780728AA
:10B8200001D1012000E000200190207804280BD1F4
:10B830003F48008880026188884205DB3A480078EA
:10B84000002801D1012000E000200090029800288B
:10B8500008D10198002805D10098002802D103984A
:10B86000002825D02F48077800202F49087030493C
:10B8700008802C484078401E2A4900E050E048707B
:10B8800008460078401C0870084600780A2803DB48
:10B89000084600780A38087014207843214A121D9F
:10B8A00081182846FDF782FC3846FEF753FA00BFA0
:10B8B000FEF73AFA0546002D0BD01A4800781422FC
:10B8C0005043184A121D00E027E081182846FDF772
:10B8D0006DFC23E013480078142148431149091DE9
:10B8E00044186078401CC0B26070032809D1081F5A
:10B8F0000078142250430A4681180D20FDF756FCAB
:10B900000AE0FEF75DF90546002D05D0112D03D0A4
:10B9100021462846FDF74AFC00E000BF00BF00BFFB
:10B9200000BF4CE79C27002093200020922000209D
:10B930009020002001484068704700000015014039
:10B9400010B504460348846003211120FDF710F868
:10B9500010BD00000015014010B5012000040A4987
:10B9600048600949403948601120FCF76BFF1120FD
:10B97000FCF772FF0120054908602F20FCF7AAFBA5
:10B9800001200349087010BD401301400010014020
:10B99000C820002010B51120012181400E4A1160FD
:10B9A00000BF012000040D4988600C4940398860BF
:10B9B00001200B4948602F20FCF78CFB012008492F
:10B9C00088600020074908602F20FCF783FB0020D7
:10B9D0000549087010BD000080E100E040130140FF
:10B9E00000100140B4200020C820002030B58FB0E6
:10B9F00004460D460020079000BF6846007F0109FD
:10BA00000901491C68460177007FF0218843103006
:10BA10006946087700BF00BF6846407F01090901F9
:10BA2000491C68464177407FF021884310306946C1
:10BA3000487700BF6846807F06218843811C68469E
:10BA400081771C2108A8FCF7B4FB08A80078102116
:10BA50008843411808A80170002009900B900C90B1
:10BA600007A80D9000200E9021786846817103216F
:10BA700081800020009000BF68460078010909011C
:10BA8000491C684601700078F021884310306946EF
:10BA9000087000BF00BF6846407801090901491CD1
:10BAA000684641704078F0218843103069464870FC
:10BAB00000BF6846807806218843811C68468170F3
:10BAC000807808218843014668468170807810217B
:10BAD0008843014668468170807841084900491CC6
:10BAE00068468170142102A8FCF763FB01A802904C
:10BAF0006846039001210182002141821421818244
:10BB0000608823460C3302AA08A9A2DF0FB030BD1B
:10BB10000F48007840084000401C0D490870084656
:10BB20000078022188430A490870084600781C21E1
:10BB300088430C3006490870084600782021884365
:10BB40000349087007204870102088707047000073
:10BB500000200020F0B502460C46002037E001230B
:10BB60008340194623460B40002B2FD0D5680D404B
:10BB7000002D05D101235B04D5680D43D56004E099
:10BB800003231B04D5688D43D56005252D070726A3
:10BB90003602AD198600AD5903263604B543052695
:10BBA000360707273F02F6198700F55105252D07AF
:10BBB00007263602AD198600AD591D430526360706
:10BBC00007273F02F6198700F55100BF401C2028C7
:10BBD000C5D3F0BDFEB507460E461446B86A002828
:10BBE00001D10720FEBD0020019032E0B96A0C228D
:10BBF000019850430D182879801CC0B2009000981D
:10BC0000401CC1B22278501C2070B15416212278F9
:10BC1000501C2070B15422789119288800F0A0FDA2
:10BC2000217840182070A88800280EDDA868002818
:10BC300001D10720D6E7AA8823789819A968FCF7CC
:10BC40009FFA20782979401820700198401CC0B2D2
:10BC500001902C20C15D01988142C7DC0020C1E722
:10BC600038B5002000900948009069460848FDF763
:10BC70008DFE044600BF2346002B05D000BF0022E6
:10BC800011461846FDF7E6F800BF38BD31AB01009C
:10BC9000E420002070B506460C461546294620468D
:10BCA000C046C04670BD00000146002901D10E20EB
:10BCB0007047024801600020FAE70000DC20002005
:10BCC000FFB581B00C4616461F46002C02D1072056
:10BCD00005B0F0BD20468107890F002901D101215F
:10BCE00000E00021002901D10720F1E709480460A4
:10BCF00009480680094807600949019810DF054690
:10BD0000002D01D02846E3E70120064908701620DF
:10BD10002EDFDDE7D4200020D8200020CC2000201A
:10BD200095BC0100D02000200146002901D10E2041
:10BD30007047024801600020FAE70000E020002080
:10BD40000146C878002801D0072070470020FCE792
:10BD5000FFB583B0044615460326694800780028DD
:10BD60000BD1002D06D10698002803D1022064498A
:10BD7000087002E001206249087061480078030001
:10BD8000FCF7D2FE07B805203D6186A1B800FFF799
:10BD900017FB80080290FFF713FB049948430190BA
:10BDA000FFF7FAFA471EFFF70BFB474300973846A9
:10BDB000029A019929DF0646002E02D1022050493D
:10BDC000087098E0049828DF0646002E16D1002D52
:10BDD00011D1069800280AD12078042803D1072021
:10BDE000474908700AE005204549087006E004202C
:10BDF0004349087002E00320414908707BE0FFF7E7
:10BE0000CBFA471EFFF7DCFA47430297FFF7D8FA51
:10BE1000049948432A460190029929DF0646002EDC
:10BE200010D1069800280AD12078042803D10620D2
:10BE30003349087006E005203149087002E004200B
:10BE40002F49087057E0FFF7A7FA471EFFF7B8FA27
:10BE50004743A8003818618840180290FFF7B0FAED
:10BE600004994843A9004018618840180190069A37
:10BE7000029929DF0646002E09D12078042803D133
:10BE800006201F49087002E005201D49087032E0B5
:10BE9000FFF796FA04994843A9004718608882087A
:10BEA0003846216929DF0646002E0BD1002D06D128
:10BEB0000698002803D107201149087002E00620E7
:10BEC0000F49087017E0FFF77BFA0190FFF764FA5B
:10BED000471EFFF775FA4743009738460199FCF76C
:10BEE00025F9029028DF0646002E02D107200449DA
:10BEF000087000E000BF00BF304607B0F0BD000092
:10BF00009320002010B504462046FFF731FC10BDF9
:10BF10000246501A0002000A7047000070B504463D
:10BF20000D480068002812D00B4AE169A069126828
:10BF30009047054600BF2E46002E06D000BF0022C7
:10BF400011463046FCF786FF00BF00BF02E0A16942
:10BF5000E069884770BD0000C4200020FEB50020C5
:10BF6000C043019010480468104807686846FEF70F
:10BF7000C7F80546FEF7F8FA0646002D05D001AAD7
:10BF800021460098FEF7FEF801260198FEF74CFBCB
:10BF9000002800D00126002E02D03846FDF75EFFB3
:10BFA000002003490870FEBDB4200020B02000200E
:10BFB000C920002010B51420FCF758FC10BD00006B
:10BFC000F0B5024624205043324B1B68C11832485A
:10BFD0000068401C002802D12F48026059E02E481A
:10BFE0004B680068242460432A4C24680019406888
:10BFF000834217D82848006824235843254B1B68E0
:10C00000C01840684B68C31A234800682424604362
:10C01000204C2468001943601F48006808621E48CD
:10C02000026036E04B681C4D2C6828680DE0242522
:10C030004543184E3668AD196D685B1B04462425D0
:10C040004543144E3668AD19286A451C002D07D0AB
:10C05000242545430F4E3668AD196D689D42E6D3E1
:10C06000451C002D0CD0242545430A4E3668AD19D9
:10C070006D68EE1A24254543064F3F68ED196E6042
:10C080004B60086224256543024E3668AD192A626A
:10C0900000BFF0BDA4200020B020002070B50246F3
:10C0A0002C4C2168084609E0904200D109E0014685
:10C0B00024244443284D2D686419206A441C002C14
:10C0C000F2D100BF441C002C00D170BD814217D1B9
:10C0D000204C246824256C431F4D2D686419246A64
:10C0E0001C4D2C602C462468641C002C08D10124B3
:10C0F0001A4DAC6000241A4D2C600124194D2C708F
:10C1000024244443144D2D68641963682424444353
:10C11000114D2D686419256A24244C430E4E36684F
:10C12000A419256224244C430B4D2D686419206A00
:10C13000441C002C0CD024244443074D2D68641962
:10C140006468E51824244443034E3668A4196560E6
:10C1500000BFBAE7B0200020A4200020001001405A
:10C16000B4200020C9200020FFB581B005460E464E
:10C170001746E900104A12688818694600F059FB12
:10C180000446002C02D1042005B0F0BD012020702F
:10C190006660FFF7CFFBA060E760049820610A9813
:10C1A0006061E900044A12688818009900F057FBA2
:10C1B000FFF700FF0020E7E7AC200020F8B50446B9
:10C1C0000E46E1000C4A12688818694600F031FBFF
:10C1D0000546002D01D10420F8BD022028706E60B4
:10C1E000E100054A12688818009900F038FBFFF753
:10C1F000E1FE0020F0E70000AC200020F8B5204868
:10C200000068401C00283AD00027FFF793FB044643
:10C210001C4801682046FFF77BFE06461848056863
:10C2200011E0242068431849096844186068B04246
:10C2300000D90BE06068361A6068C719256A204685
:10C24000FFF76CFE00BF681C0028EAD100BF0F4852
:10C2500000780F490978884209D10D480078401CC0
:10C26000C0B20B490870022801D1002008700848AC
:10C270000078800007490F50FFF79CFE00BFF8BD13
:10C28000B0200020B4200020A4200020C0200020E6
:10C29000C1200020B820002010B51120FCF7E6FADC
:10C2A00010BD30B58FB004460D461C2108A8FBF721
:10C2B00080FF08A8007808218843411808A8017069
:10C2C000007804218843011D08A80170002009900E
:10C2D0000B900C900D900E9021786846817202218F
:10C2E00001810020019000BF684600790109090121
:10C2F000491C684601710079F02188431030694675
:10C30000087100BF00BF6846407901090901491C56
:10C31000684641714079F021884310306946487180
:10C3200000BF6846807906218843811C6846817178
:10C3300080790821884301466846817180791021FF
:10C340008843014668468171807941084900491C4B
:10C3500068468171142103A8FBF72BFF02A8039004
:10C3600001A804900121684681820021C182142124
:10C3700001836088231D03AA08A9A2DF0FB030BD86
:10C3800030B503461078C01C1F2801DD0C2030BDDD
:10C3900002241578681C10704C550A241578681C06
:10C3A00010704C551578681C10704B550020EEE746
:10C3B000FEB505462878002804D001287ED0022842
:10C3C0007DD1BBE06449654A12888818FDF728F8DA
:10C3D000002804D161480088401C604908805F48FB
:10C3E0000088401E5C49085C0A2804D05B4800882D
:10C3F000083814287EDB59480088083882B256492C
:10C4000008315748FDF744FB0446082C0AD000BF0A
:10C410002346002B05D000BF002211461846FCF72A
:10C4200019FD00BF4F48007835286ED14D4840783F
:10C4300054286AD10020FCF7D7FF0820FEF75EFBE6
:10C440004948006844494860474800680860084611
:10C450000C30831E021F45A10090001FFBF7B4FEA5
:10C4600001A852DF3C49019808612020FDF730F90E
:10C470003949C881404801683B480068FBF756FECF
:10C48000074623210902FBF751FE0E463B4A3C4872
:10C49000FEF7E2FE044600BF2346002B05D000BF96
:10C4A000002211461846FCF7D5FC00BF33488088AF
:10C4B0008005800D002812D1012101E042E047E013
:10C4C00089022E48FEF710FF00BF2346002B05D03F
:10C4D00000BF002211461846FCF7BCFC00BF002339
:10C4E00010221D49091D2548FFF7D8F8044600BF52
:10C4F000234600E012E0002B05D000BF00221146C9
:10C500001846FCF7A7FC00BF00BF74DF00217D20A8
:10C51000C001FCF77FFC0820104908800F48008804
:10C52000FF280ADD0820FEF7F1FA002805D00020D8
:10C53000FCF75AFF0820FEF7E1FA0AE00820074955
:10C54000088006E000BF002211466868FCF782FC04
:10C5500000BF00BFFEBD00001821002024200020E5
:10C56000E4200020082000202020002025687825D5
:10C5700068782568780A00001C2000203C200020F4
:10C580002C200020F0B593B04F2636039D273F03A3
:10C5900043481290434811903B20000410904248B9
:10C5A0000F9042480E9042480D9042480C904248ED
:10C5B0000B9042480A90424800684B221202811AAE
:10C5C000904231D011DC3F4A811A904226D005DCDE
:10C5D0003D49401A1ED0401A32D11DE03948081A90
:10C5E0001ED03849401A2BD11CE04B225202881A27
:10C5F00091421FD006DC3548081A17D09110401A16
:10C600001ED115E04B210902401A15D04900401AED
:10C6100016D113E0344615E03C4613E0129C11E0BD
:10C62000119C0FE0109C0DE00F9C0BE00E9C09E0AC
:10C630000D9C07E00C9C05E00B9C03E00A9C01E0CC
:10C64000344600BF00BF224A1168506892680992C0
:10C6500007910890099400BF002006901D480290A1
:10C66000FF20013003901C480490FF20013005900A
:10C6700006A80323194A02A9009007A8FCF7DAFECE
:10C68000054600BF00BF2B46002B05D000BF00228F
:10C6900011461846FCF7DEFB00BF13B0F0BD0000EA
:10C6A00000B013000050270000A04E0000F07500FD
:10C6B00000509D0000F0EB0000903A0100E0D7012F
:10C6C00018200020C0120000B004000080250000E7
:10C6D00064CA01008422002084230020B1C3010029
:10C6E00004200C49086000200B498860C861094893
:10C6F0004030C06A4008400006494031C86200200E
:10C70000C0430449886008610120044988600860CA
:10C71000704700000025004000210040002000403C
:10C7200004210C4A116000210B4A9160D161094932
:10C730004031C96A01221143064A4032D162C178B0
:10C74000044A1161817891600121044A916011606D
:10C7500070470000002500400021004000200040FC
:10C7600002460A70FF2000021040001248700220AA
:10C770007047000038B505462048008820498842A7
:10C780003BD020480078401C1E4908701E48007BA2
:10C79000097888420FDB1D491848008875DF044678
:10C7A000002C07D018488069002803D016488169FA
:10C7B0002046884721E00020124908701248007C7A
:10C7C00000280FD03B210D48008876DF0446002C5E
:10C7D00007D00D488069002803D00B4881692046A6
:10C7E000884700BF08484069002806D00020009014
:10C7F000054841696846884700BF38BD662000206B
:10C80000FFFF000064200020602700205C20002043
:10C8100010B5FDF747FC012802D0032804D101E040
:10C82000002403E0012401E0022400BF00BF2046F1
:10C8300010BD70B502460B465078411C9078884276
:10C8400000D100211078884201D1002070BD19600C
:10C8500050781826704355682C182046F6E741702A
:10C860007047FFB581B0074615460A9E0096022222
:10C870003846049B029900F014F80446002C02D0BC
:10C88000204605B0F0BD0096102229463846049B8C
:10C8900000F007F80446002C01D02046F1E7002004
:10C8A000EFE7FFB587B006461D46109C00200690B6
:10C8B00020780590002747E0B900706841180A8881
:10C8C0006846028149884181002203A902A865DFE8
:10C8D00004900498002802D004980BB0F0BD68467C
:10C8E000017B099881422ED10698002801D00020B2
:10C8F00000E00220019020786946097B41180198E8
:10C9000008181F2801DD0C20E7E70698002809D148
:10C910002078401C20702278511C08982170A8545F
:10C92000012006902078421903A902A865DF04902F
:10C930000498002801D00498CFE720786946097B45
:10C940004018207000BF7F1C3088B842B4DC0698C5
:10C95000002806D021780598401C081AC1B2059815
:10C9600029540020B9E7000070B505463448006836
:10C97000401C334908600846006832490860FCF7EB
:10C98000F5F9314801682E480068FBF7CFFB002914
:10C990000FD10820FEF7BAF800280AD10820FEF7C8
:10C9A000BFF8FFF7EFFD74DF84B208202749088045
:10C9B0000FE027480088274988420AD10820FEF75F
:10C9C000A5F8002805D00020FCF70EFD0820FEF792
:10C9D00095F821480088002818D01F480088401E7C
:10C9E0001D4908800846008800280FD113211848E7
:10C9F000008876DF84B200BF2346002B05D000BF3D
:10CA0000002211461846FCF725FA00BF134800889B
:10CA1000002813D00820FEF779F800280ED10F481F
:10CA20000088401E0D49088008460088002805D16E
:10CA300074DF00217D20C001FCF7ECF970BD00001F
:10CA400020200020182100201C200020242000206D
:10CA500006200020FFFF00003A20002038200020A0
:10CA6000010000001018000000000000000000009D
:10CA70009ECADC240EE5A9E093F3A3B50000406E46
:10CA8000DDDDDDDDDCBBBBDDDDDDDDDDDDDDDDDD1B
:10CA9000988888888888888877777777778888885B
:10CAA00085555556666666666666666666688888F3
:10CAB0008333333222222222222222222228888DEC
:10CAC000E0CA010000200020E4000000448B0100C7
:10CAD000C4CB0100E420002044180000548B010066
:10CAE000000000000000FFFF35543A000000000085
:10CAF0000000000000000000B0040000030000007F
:10CB0000000000000800000000000000000000001D
:10CB10000000000000000000000000000000000015
:10CB20000000000000000000000000000000000005
:10CB300006000000000000000024F40000000000D7
:10CB400000000000000000000000000000000000E5
:10CB500000000000000000000100000000000000D4
:10CB600000000000000000000000000000000000C5
:10CB700000000000000000000000000000000000B5
:10CB800000000000000000000000000000000000A5
:10CB90000000000000000000000000000000000095
:10CBA0000000000000000000000000000000000085
:10CBB0000000000000000000000000000000000075
:04CBC0000000000071
:04000005000180C1B5
:00000001FF
