:020000040001F9
:1080000070360020358101004F810100518101004F
:108010000000000000000000000000000000000060
:10802000000000000000000000000000538101007B
:108030000000000000000000558101005781010090
:1080400059810100598101005981010059810100C4
:108050005981010000000000A98701005981010039
:1080600059810100598101005981010059810100A4
:108070005981010059810100598101005981010094
:1080800059810100B1890100598101005981010024
:10809000D989010059810100E1890100598101005C
:1080A000598101005981010000000000000000001A
:1080B00000000000000000000000000000000000C0
:1080C0000348854600F0AAF900480047AD9E01002C
:1080D00070360020401E00BF00BF00BF00BF00BFC1
:1080E00000BF00BF00BF00BF00BF00BF00BFF1D195
:1080F00070470000401E00BF00BF00BF00BF00BFB0
:1081000000BF00BF00BF00BF00BF00BF00BFF1D174
:1081100070470000401E00BF00BF00BF00BF00BF8F
:1081200000BF00BF00BF00BF00BF00BF00BFF1D154
:10813000704700000321094802680A4302600848AA
:1081400002680A4302600748804707480047FEE785
:10815000FEE7FEE7FEE7FEE7FEE70000240500403D
:1081600054050040198A0100C180010030B50B465A
:10817000014600202022012409E00D46D5409D4201
:1081800005D31D469540491B254695404019154687
:10819000521E002DF1DC30BD70B5002425460028AC
:1081A00001DA01244042002901DA01254942FFF7A2
:1081B000DDFFAC4200D04042002C00D0494270BDEF
:1081C00003460B439B0703D009E008C9121F08C0F0
:1081D000042AFAD203E00B780370401C491C521E9B
:1081E000F9D27047D2B201E00270401C491EFBD2A6
:1081F00070470022F6E710B513460A4604461946B2
:10820000FFF7F0FF204610BD0FB400B58DB0099008
:108210000B9010A900200091C0430A9000200C9000
:1082200006480690064807906A4609A80F9900F08C
:10823000C3F80DB008BC04B018470000D983010092
:10824000F9830100FFB50027FF4383B000205C687D
:1082500001909E681D46A9697F1C0498884700907C
:10826000296A88470028F6D10098401C0CD00320CA
:1082700040028443002E19DD600614D500982B2897
:1082800009D02D280FD103E00020C04307B0F0BD76
:10829000012080020443A9697F1C04988847761E48
:1082A0000090002E02DD0098302803D005980028A9
:1082B00025D035E0012040020443A969761E7F1CC9
:1082C000049888470090002E03DD782805D05828B0
:1082D00003D00598002810D022E00598002801D08E
:1082E00010281DD1012040028443A969761E7F1CFD
:1082F000049888470090102002E0082000E00A203F
:1083000005900DE0012149020C43059A0199761E62
:10831000514308180190A9697F1C04988847009070
:10832000002E05DD0599009800F031F80028E9DA03
:10833000E96904988847A00502D40120C043A5E755
:10834000E00722D1600611D56005019800D54042B2
:1083500029680A1D2A600968220501D5087014E001
:10836000220701D5088010E008600EE02868011D92
:1083700029600068210502D50199017005E02107F7
:10838000019901D5018000E0016038467EE73A2876
:1083900000D23038202302469A43412A01D31046A6
:1083A0003738884201D30020C043704702681378F1
:1083B000511801601846704710B5D16004495161E9
:1083C0000449116200211161114600F041F810BD0D
:1083D000AD830100418401004268002A08D0016891
:1083E0000B78491C002B03D0521E06C0184670475C
:1083F0000121C160881E70474268002A0BD0C36803
:108400000168002B07D183688B4204D0491E521C9F
:1084100006C0002070470020C0437047064C01256D
:10842000064E05E0E36807CC2B430C3C984710341C
:10843000B442F7D3FFF748FE24BC010044BC01005E
:1084400010B50F21C0B2490200F09CF910BD000028
:10845000F3B58DB000200A9001200B90002608464D
:108460000C300C460990626901210998904705007B
:108470002ED0252D2DD0216A8847002818D062697A
:10848000012109989047216A88470028F7D1411EA9
:1084900062690998904700E0761CA1690D988847A9
:1084A000216A88470028F7D1E1690D988847DAE703
:1084B000A1690D9888470746A84201D1761CD2E7EA
:1084C000E1690D9888477F1C02D10A98002877D06F
:1084D00046E1002762693D463946099890472A28B7
:1084E0000CD16269012109989047012506E00A2113
:1084F0004F433F18303FEBD4102005436269012100
:1085000009989047014630390A2903D29A498F4287
:10851000DEDCECE7E90600D4984F6C280AD04C2842
:1085200010D0682824D06A282ED074280CD07A283D
:108530000AD00DE062690121099890476C2823D088
:1085400004211CE02020054362690121099890471D
:10855000A760656065284FD026DC582839D01ADC22
:10856000452849D012DC252834D04128B0D143E039
:108570006269012109989047682802D008210D43BB
:10858000E6E70120C002DEE70220DCE7462833D020
:1085900047282CD130E05B287BD061282CD0632881
:1085A00077D0642823D15EE06F284CD009DC6628A0
:1085B00022D0672820D0692826D06E2817D12EE037
:1085C000CAE070284AD073286CD075284BD0782820
:1085D0000DD150E0A1690D9888470546252800D1A6
:1085E0006CE7E1690D9888476D1C00D16DE7B7E035
:1085F0000A2248E00A224FE0012023466A46C0438F
:108600000D99C046C046A0E028464021084360605E
:10861000A807234601D5002235E000223CE020686F
:10862000011D21600068290501D506701BE7290797
:1086300001D5068017E7A90703D5F1170660416049
:1086400011E706600FE72846402108436060A8074D
:10865000234601D5082216E008221DE04849284695
:108660000840606016E02846402108436060A80783
:108670002346BFD5BCE72846402108436060A807D1
:1086800008D5234610220120C0430D99C046C0469C
:108690005BE007E0234610220120C0430D99FFF75D
:1086A000D1FD52E000210C910B460091632802D0CD
:1086B0005B2807D043E0E80601D40120A060012038
:1086C00000903CE062690121099890475E2805D13D
:1086D00001200C90014662690998904721690029A0
:1086E00006D10B4601AA8F00491CD3510829FADB99
:1086F000002835D0216900290ED1C117C90E0918EB
:108700004A11930001AA9A1849094901411A012006
:1087100013688840034313606269012109989047F8
:108720005D28E5D10C98002808D0002001AB81001D
:108730005A58401CD2435A500828F8DB01AB01209C
:108740002246C0430D99C046C04600280ADA401CA4
:1087500006D10B98002803D00020C0430FB0F0BD15
:108760000A98FBE7E90702D10A99491C0A913618D1
:1087700000200B9077E60000CCCCCC0CFFFFFF7FF5
:10878000F1F7FFFF7F2801D9002207E0054B4208DF
:108790009A5CC00700D112091207120F0120904005
:1087A00008407047E4BB0100F0B585B0304805696A
:1087B00000203049C863002654E0142070432E493D
:1087C000096844180120B0402C4909680840002875
:1087D00046D0002002900190E068C04368402168C4
:1087E000084003902046039902F000FB20480069EE
:1087F00068402168084004900498002818D0049824
:1088000068400090E068C0430099484021680840F3
:1088100007463946204602F0E9FAA06800998843E5
:10882000384001906068009908403840029000BFCD
:10883000A068A84303990840019908430190606823
:108840002840039908400299084302900199029830
:108850000843002803D0226901990298904700BF7D
:10886000701CC6B2064800788642A6DB05B0F0BD93
:108870000005005040610040A0200020982000200A
:108880009D200020C206D20E01219140014A1160B4
:108890007047000080E200E0C206D20E0121914044
:1088A000014A11607047000000E100E0C206D20EEC
:1088B00001219140014A11607047000000E200E090
:1088C00010B5002819DA1A4A03071B0F083B9B084A
:1088D0009B00D2588307DC0EFF23A3409A438B07EB
:1088E0001B0E8407E40EA3401A43114B0407240F08
:1088F000083CA408A4001A5118E00E4A03231B02E6
:10890000D21883089B00D2588307DC0EFF23A340B4
:108910009A438B071B0E8407E40EA3401A43054BB2
:10892000032424021B198408A4001A5110BD00005E
:108930001CED00E000E100E010B5002819DA1A4A49
:1089400003071B0F083B9B089B00D2588307DC0ED4
:10895000FF23A3409A438B071B0E8407E40EA3401A
:108960001A43114B0407240F083CA408A4001A5111
:1089700018E00E4A03231B02D21883089B00D2582A
:108980008307DC0EFF23A3409A438B071B0E84074B
:10899000E40EA3401A43054B032424021B19840848
:1089A000A4001A5110BD00001CED00E000E100E041
:1089B00010B5002007490860002106484160816029
:1089C000C1600020034940390860486002F0D0FED1
:1089D00010BD00004011014010B502F079FD10BD3E
:1089E00070B50C480068002810D00A48006880471D
:1089F000044600BF2546002D06D000BF00221146C8
:108A0000284600F05DF900BF00BF01E001F09CF8CE
:108A100070BD0000D020002010B501F00FF9002833
:108A200005D0074807494860C8130749886101F025
:108A3000E9F8002802D001200449886010BD000038
:108A4000DFFF07C000050040006C0040000600404A
:108A500030B47446641E2578641CAB4204D3635D55
:108A60005B00E31830BC18471D46F8E702E008C871
:108A7000121F08C1002AFAD170477047002001E098
:108A800001C1121F002AFBD17047F8B504460F46FA
:108A900015460026002028702078002809D02A4694
:108AA0003946204601F061FB0646002E01D03046D3
:108AB000F8BDA078002808D02946384600F076FA9C
:108AC0000646002E01D03046F2E7E07800280ED0AE
:108AD00002212A78501C2870B95401212A78501C90
:108AE0002870B954E1782A78501C2870B95460680D
:108AF00000280BD00020616808562A46394602F04B
:108B00008AFE0646002E01D03046D1E72089002893
:108B10000CDD3B460622022120460830009502F07B
:108B200012FF0646002E01D03046C1E7208A0028F9
:108B30000CDD3B460722032120461030009502F051
:108B400002FF0646002E01D03046B1E7208B0028F8
:108B50000CDD3B461522142120461830009502F00A
:108B6000F2FE0646002E01D03046A1E7206A00281A
:108B700009D02A463946206A00F0A8FD0646002E94
:108B800001D0304694E7606A002809D02A46394669
:108B9000606A01F0B5FA0646002E01D0304687E73C
:108BA0002C20005D002809DD2A463946204602F0C7
:108BB0008DFA0646002E01D0304679E7304677E739
:108BC0000146C87804221040002801D107207047D0
:108BD0000020FCE708B51E48006800901D4800789A
:108BE0006946887030211C48FFF703FB01201A49B1
:108BF0000870082048700020887018480078C870F5
:108C000030211748FFF7F5FA1648174908801A204F
:108C100088801649144881601149486214480068E8
:108C2000124948611348006808600D490A4800F07D
:108C30001BFA1149086000BF08460368002B05D0E5
:108C400000BF00221146184600F03AF800BF08BDE8
:108C5000E0BB0100E82000205C210020642000200F
:108C60008C21002081580000BC2100202C210020F4
:108C700018200020302000206020002070B586B031
:108C800004460D4618216846FFF7B3FA00216846EE
:108C9000017000200190684601720482458273DFF2
:108CA000064600BF3346002B05D000BF0022114608
:108CB000184600F005F800BFFFF78CFF06B070BD46
:108CC00000BFBFF34F8F04480449C860BFF34F8F04
:108CD00000BF00BFFEE700000400FA0500ED00E061
:108CE00070B505460C46002C01D1072070BD20460A
:108CF0008107890F002901D1012100E0002100290D
:108D000001D10720F2E713480460134805700020E2
:108D100012490870124908600F4800781422504325
:108D200001460C480068FFF764FA0020C0430D4973
:108D300088600620012181400B4A116000BF01219B
:108D4000FFF7BEFD062001218140084A116000BFE7
:108D50000020CBE7A02000209C2000209D200020A8
:108D6000982000200063004080E200E000E100E085
:108D7000F8B505460C462778A068000105490E584D
:108D8000608800902A463946204608302369B0475B
:108D9000F8BD0000AC25002070B503460C4619480C
:108DA0000068002801D1082070BD002A01D10720E9
:108DB000FAE7002B01D10720F6E700211CE0242070
:108DC0004843104D2D68285C002814D1012524202B
:108DD00048430C4E3668355424204843094D2D68CD
:108DE0004019447024204843064D2D684019826183
:108DF00019600020D8E7491C034800788142DEDB77
:108E00000420D1E7A8200020A4200020FFB581B0D5
:108E10000E4617461C4620468107890F002901D1BE
:108E2000012100E00021002902D1072005B0F0BD9A
:108E3000002C01D10720F9E701F08AFF26490A98A2
:108E40000860264806702648046000250CE00021D2
:108E500024206843224A1268115424206843204A7F
:108E60001268801801756D1CB542F0DB2420704338
:108E7000041903201B4908701B480460183400259E
:108E80000CE0E900184A126888180021017041704E
:108E900087704460182179430C196D1C032DF0DB99
:108EA0000020C04311490860002011490870114991
:108EB00008701420FFF7E6FC03211420FFF73CFDA7
:108EC0001420FFF7E9FC019801F018FF01F010FFF2
:108ED000094908600020A9E7C8200020A42000203C
:108EE000A8200020AC200020B0200020B4200020CA
:108EF000C4200020C5200020B8200020FEB5044674
:108F00000D46164616480068002801D10820FEBD0F
:108F100014480078844201D2052D01D20720F6E7DB
:108F2000242060430E490968085C012801D008200C
:108F3000EDE7242060430A49096840184078012879
:108F400001D1284600E00020074602F0D3FC3B4652
:108F50002A4621460096019002F0C0FBD7E70000A8
:108F6000A8200020A420002070B504460D48006809
:108F7000002801D1082070BD0B480078844201D33D
:108F80000720F8E72420604306490968085C0128A7
:108F900001D00820EFE702F0ADFC0546214602F0C3
:108FA000C7FBE8E7A8200020A4200020F8B505466C
:108FB0000C462078001D1F2801DD0C20F8BD6846F6
:108FC00079DF0646002E01D03046F7E703212278EC
:108FD000501C2070A95419212278501C2070A954CB
:108FE000207841196846008802F02DFC217840184D
:108FF00020700020E2E7000070B50446002016490A
:109000004860200208210843144948600120086094
:1090100013490860002013490860002501E0681C1E
:10902000C5B210480068002801D1FF2DF7DB0020F1
:109030000C49086001200A4948600020074908607F
:1090400089684B22120151430846FF21FFF78EF831
:109050004100401880B270BD0073004000750040B0
:109060000070004000710040F3B593B00D46002140
:10907000129111911398002814D01398FFF7A0FDB6
:109080000446002C02D0204615B0F0BD12AA09A952
:109090001398FFF7FAFC0446002C01D02046F3E7B2
:1090A00009AE00E00026002D13D0284602F002F998
:1090B0000446002C01D02046E6E711AA01A9284663
:1090C000FFF7E3FC0446002C01D02046DCE701AFAB
:1090D00000E0002710A803793A46017A304672DF93
:1090E000D2E7000070B505461C2229461448FFF758
:1090F00067F8002013490870286800280BD0082260
:1091000011482968FFF75CF80F487ADF0446002C05
:1091100008D0204670BD0C487BDF0446002C01D0EF
:109120002046F7E70020C04308490880002008498E
:109130000870084A00210848FFF72EFEEAE7000001
:10914000C424002088200020702000207A200020E5
:109150007820002059B801008420002010B5044672
:10916000204601F077F810BD7FB500BF00234822EC
:109170002949082002F05EF8054600BF2B46002B67
:1091800005D000BF002211461846FFF799FD00BF29
:1091900000BF0020029003906946087202A860DFB9
:1091A000044600BF2346002B05D000BF0022114615
:1091B0001846FFF785FD00BF01206946087024208E
:1091C00068DF044600BF2346002B05D000BF002205
:1091D00011461846FFF774FD00BF104802F01EF854
:1091E000044600BF2346002B05D000BF00221146D5
:1091F0001846FFF765FD00BF094802F04FF8044626
:1092000000BF2346002B05D000BF002211461846A0
:10921000FFF756FD00BF7FBD002200205D910100D9
:1092200079B401000007000F0A2803DA0146303143
:10923000C8B202E001463731C8B270477FB500249A
:10924000354800883549884264D035480078002880
:1092500060D0002000900190029003903148C188B6
:109260006846018001218170002181802E48029092
:109270004DE0232109022D480088FEF78DFF8DB2B5
:109280002B4A29462B4801F0C5F9044600BF234666
:10929000002B05D000BF002211461846FFF710FD35
:1092A00000BF002310222249234801F0BDFA0446E2
:1092B00000BF2346002B05D000BF002211461846F0
:1092C000FFF7FEFC00BF1C48039069461248008867
:1092D000A6DF04461948844204D0082C02D018485E
:1092E000844200D114E0002C05D000BF00221146BA
:1092F0002046FFF7E5FC0D4801880088401E0B4A18
:109300001080002903D100200549087000E0B0E773
:1093100000BF00BF7FBD000008200020FFFF00004D
:109320000C200020042100205E2000205C20002072
:10933000502000203C2000204C2100200430000060
:1093400001340000F0B587B00F275548007814218C
:1093500048435349091D4418E5682078022804D081
:10936000042823D005287CD16AE0206905904D4867
:10937000008886026088801B0690059880190590F9
:10938000A08880194519012189020698884206D2D1
:10939000069882082846059929DF074605E0FF223E
:1093A00001322846059929DF07466FE0A0680001D1
:1093B0003D49401800890690A06800014018408986
:1093C0000590A06800014018406804900498A842E5
:1093D00005D10599069848436188884202D0A06863
:1093E0008D280DD101F0CAF9014603902846FEF7F9
:1093F000BDFE2C4909884618304628DF07461EE086
:1094000001F0BCF9014601902846FEF7AFFE064682
:1094100001F0B4F97043281A8008039001F0AEF906
:10942000711C484361884919401A800802903146EE
:109430002046029B039A01F045FF074600BF25E046
:1094400001F09CF9014604902846FEF78FFE06467F
:1094500001F094F97043A1884919081A8008069010
:1094600000E012E001F08AF9711C4843A188491913
:1094700062888918401A8008059031462046059B6D
:10948000069A01F01FFF074600E000BF00BF002F53
:1094900002D1012002498870384607B0F0BD0000B3
:1094A000E024002094200020AC25002010B50024EA
:1094B0000848407800280BDD06488078002807D14E
:1094C000FFF740FF0446002C02D0112C00D10024ED
:1094D000204610BDE02400200023142141430C4A03
:1094E00053541421414389184B808C231421414348
:1094F00089188B600023142141438918CB60142103
:10950000414389180B611421414389188B807047AE
:10951000E4240020FFB581B0064617460024224807
:1095200040780A283CD0204800781F4949784018E4
:10953000C4B20A2C02DB20460A38C4B214206043AD
:109540001949091D0E54002214206043401842702E
:1095500014206043401807611420604341180298AA
:1095600005C8CA608860142161430F4A121D89181A
:10957000049848801421614389180A98888000253E
:10958000101F8078002805D1FFF7DCFE0546112D5D
:1095900000D1002504484078401C0349487000E091
:1095A0000425284605B0F0BDE024002010B50020B9
:1095B0000849088008490870084908704870887090
:1095C000002403E02046FFF787FF641C0A2CF9D330
:1095D00010BD00009420002097200020E0240020EF
:1095E000FEB51E480068401C002834D01B480068A7
:1095F000242148431A4909684018456801F078FB5E
:109600000190184804682146019801F03BFFC61CF0
:1096100015480078002801D101F07CFBAE4201D250
:10962000284600E0304604192402240A20460F4947
:10963000086000BF01F05CFB00900199009801F008
:1096400021FFC71C2046019901F01CFF874201D968
:1096500002F0DCF801E001F07BFBFEBDB42000204D
:10966000A8200020B8200020CC2000204015014078
:1096700001460888062808DB08881922D201904292
:1096800005DD0888104A904201D0072070474888BD
:10969000062808DB48881922D201904205DD488857
:1096A000094A904201D00720F0E70888064A904214
:1096B00008D04888904205D008884A88904201DD49
:1096C0000720E3E70020E1E7FFFF0000F8B50646CA
:1096D0000D4614462078801D1F2801D90C20F8BDA6
:1096E0003046FFF7C5FF0746002F01D03846F6E7A2
:1096F00005212278501C2070A95412212278501C78
:109700002070A95422785119308802F09CF82178F1
:109710004018207022785119708802F094F821784E
:10972000401820700020DAE7034600BF00221146EF
:109730001846FFF7C5FA000010B588B01C2101A833
:10974000FEF757FD002001900520C00302900F2076
:1097500000040390032168460174002141820175D1
:109760000A4806900A48079001A8FFF7BBFC044688
:1097700000BF2346002B05D000BF0022114618462B
:10978000FFF79EFA00BF08B010BD000041A5010020
:109790002997010010B514484068C105C90D00297A
:1097A00020D00A46103A50B200280DDA0E4B1C3376
:1097B0000407240F083CA408A4001B598407E40EE6
:1097C000E3401B069B0F0BE0084B032424021B19EC
:1097D0008408A4001B598407E40EE3401B069B0F7A
:1097E000D8B210BD0420FCE700ED00E000E100E08D
:1097F000014614480078144A127890421DD011484E
:109800000078401C0F4A107010460078022801D1E1
:10981000002010700B48007880000C4A1058086037
:109820000B4A086812688018094A106010460068E0
:109830000002000A1060012070470020086000BF8D
:10984000FAE70000C4200020C5200020BC20002032
:10985000B820002070B5049C044E45683668B542B7
:1098600002D10025024E357070BD00003820002066
:1098700036200020F0B50346002426E0164E366858
:1098800024277E43154F3F68F01946689E4203D94E
:109890004668F61A46601DE046689B1B4668341908
:1098A0000026466006750C4E35680B4F066A3E6012
:1098B0000669002E08D00E193602360A866006693F
:1098C000C66016680662156000BF03480068401C49
:1098D0000028D3D100BFF0BDB4200020A820002074
:1098E00030B585B000BF6846007A01090901491CFE
:1098F00002916846007AF02188431030029000BF40
:10990000684671DF0324694689790811FFF78AFCEC
:1099100001462246641C4B48815469468879FFF70A
:1099200081FC01462246641C4648815469464979B7
:109930000811FFF777FC01462246641C4148815418
:1099400069464879FFF76EFC01462246641C3D4893
:109950008154694609790811FFF764FC01462246E3
:10996000641C3848815469460879FFF75BFC01465E
:109970002246641C334881546946C9780811FFF7B0
:1099800051FC2146621CD4B22E4A50546946C87814
:10999000FFF748FC2146621CD4B22A4A505469465B
:1099A00089780811FFF73EFC2146621CD4B2254A93
:1099B000505469468878FFF735FC2146621CD4B2C2
:1099C000204A5054694649780811FFF72BFC21467C
:1099D000621CD4B21B4A505469464878FFF722FCF7
:1099E0002146621CD4B2174A50540F22154902A8CE
:1099F0007CDF054600BF2B46002B05D000BF0022B0
:109A000011461846FFF75CF900BF00200390049050
:109A10000821684681811321C18104210182282106
:109A2000418203A87ADF054600BF2B46002B05D0F4
:109A300000BF002211461846FFF742F900BF05B0EB
:109A400030BD000018200020FEB50025012035495A
:109A5000C8630020102302460421009001F07CFB23
:109A6000082001218140304A916000BF00BF02A957
:109A7000042001F0A5FB0028F9D12C480021016049
:109A800041608160C1602A48016041608160C160BD
:109A900000261EE002A9042001F092FB002816D047
:109AA0006846027A2846691CCDB220490A54681ECD
:109AB000085C0A2801D0102D09DB1D480830831EE0
:109AC000021F1CA100901948FEF79EFB03E0701CCA
:109AD000C6B2322EDEDB00BF00201249C863082068
:109AE00000F0B0FB01A852DF15480068104908607B
:109AF0001020FFF781FA0E4948810198C8600023C1
:109B00001022104800F0A8FF044600BF2346002B97
:109B100005D000BF002211461846FFF7D1F800BF5C
:109B2000FEBD0000C02F004000050050C8210020ED
:109B3000D82100202568782568782568780A0000F3
:109B40003020002050200020F8B529480078002857
:109B500000D1F8BD27480068002801D1012000E0AD
:109B60000020054624480068002801D1012000E0BB
:109B70000020064600BF002D14D1684651DF044680
:109B8000052C01D101250CE0002C06D000BF0022DD
:109B900011462046FFF794F803E01649009809683B
:109BA000884700BF002E1AD11448008800906946EB
:109BB0001348006861DF0446052C01D101260DE041
:109BC000002C06D000BF002211462046FFF778F88F
:109BD00004E00B48006808490968884700BF002D69
:109BE00002D0002E00D000E0C5E700BF00BFB0E704
:109BF000D4200020E4200020E0200020DC200020F1
:109C0000D82000200C48008CC0B2012812D10A488C
:109C1000808C0007000F00280CD10748806AF021D3
:109C20000840402806D10448C06A0840002801D1F5
:109C3000012070470020FCE7C00F00F01948008C9D
:109C4000C0B201282CD11748808C0007000F0028D3
:109C500026D11448806AF0210840002806D1114816
:109C6000C06A0840002801D1012070470D48806A71
:109C7000F0210840102806D10A48C06A0840002890
:109C800001D10120F1E70748806AF021084030281F
:109C900006D10448C06A0840002801D10120E4E749
:109CA0000020E2E7C00F00F001468807800F00287F
:109CB00001D1012070470020FCE70000FEB52B48D1
:109CC000006801902A480078009040E00098C000A9
:109CD000284909684418257835E0182068436168E8
:109CE0000F18681CC5B2A078A84200D100253878AA
:109CF000022802D0032823D10EE0242178684843AB
:109D00001D4909684618307D002804D0786801F0A4
:109D10007FFC0020307514E00CE01449096824220F
:109D20005143154A12688818002101750F4A016ACB
:109D3000116000BF0D480068401C0028EDD100E014
:109D400000BF00BF00BF6078A842C6D100BF009826
:109D5000411EC9B200910028B8D104480168019899
:109D6000814201D00120FEBD0020FCE7B42000208C
:109D7000AC200020B0200020A8200020FEB507461F
:109D800043480068029043480078019071E00198D0
:109D9000C00041490968451863E0781C002807D0D5
:109DA0003E46242070433D4909684418276A29E04B
:109DB0002978182359436A6850182978491C297052
:109DC0002978AA78914201D100212970466824217E
:109DD0007143324A12688C180178012902D1217D21
:109DE000002900D03DE08168A160C168E16001699F
:109DF00021614169E1612A490978002901D00021E6
:109E0000A16000BF2749A0680968401A0002000A43
:109E10002549884208D22349A068096801F032FB2D
:109E2000E1684018606011E01E48A168006801F018
:109E300029FB0090E1680098814204D9E16800980C
:109E4000081A606001E00020606000BF0020A06090
:109E5000E06001202075801E2062304601F06AFB20
:109E600000BF781C002898D128786978884294D15E
:109E700000BF0198411EC9B20191002887D1044852
:109E800001680298814201D00120FEBD0020FCE75C
:109E9000B4200020AC200020B0200020A82000200A
:109EA000CD200020B8200020FFFF7F000EB500BFAE
:109EB0000020844B052204210090FEF7A7FF0546F1
:109EC00000BF2B46002B05D000BF002211461846CC
:109ED000FEF7F6FE00BF00BF7B4A01217B48FEF77C
:109EE0005BFF044600BF2346002B05D000BF0022C5
:109EF00011461846FEF7E4FE00BF754A002175487A
:109F0000FEF74AFF044600BF2346002B05D000BFE2
:109F1000002211461846FEF7D3FE00BF00BF6E496F
:109F20000120FEF7DDFE054600BF2B46002B05D0C5
:109F300000BF002211461846FEF7C2FE00BF00BF58
:109F4000FFF712F96548052109070722120289184F
:109F50000862082000F076F9C82000F051F900F0FE
:109F600013FC1021684601812321090241815C48CC
:109F700001905C4901A800F0CDFC044600BF2346D7
:109F8000002B05D000BF002211461846FEF798FEB0
:109F900000BF00205449086033E05348008881B274
:109FA000524A504800F036FB044600BF2346002BBF
:109FB00005D000BF002211461846FEF781FE00BF03
:109FC0000023102249494A4800F02EFC00BF2346D6
:109FD000002B05D000BF002211461846FEF770FE88
:109FE00000BF4348001F8168C0680023DB4359401D
:109FF0005840014300D10AE03B480068401C3A4900
:10A00000086039480068232109028842C5D300BF8F
:10A01000354800683749096848433749086032487D
:10A020000078C006C00E002823D12F48008881B2D6
:10A030002E4A2C4800F0EEFA044600BF2346002BBF
:10A0400005D000BF002211461846FEF739FE00BFBA
:10A0500001218902254800F025FB044600BF234664
:10A06000002B05D000BF002211461846FEF728FE3F
:10A0700000BFFFF735FC00F0F9FEFFF75DFB00F0D5
:10A0800093FEFFF7E1FC002310221649184800F068
:10A09000CBFBFEF79FFD14480068401C1249086086
:10A0A0001448008881B215480088FEF7E7FD0022B9
:10A0B0000121C90305480068FEF720FF00BF00F03A
:10A0C00099FAFCE7482200206DBA010068200020C0
:10A0D0004DBA010058200020B024002003030000E6
:10A0E000559801003C2000204420002050200020F2
:10A0F000302100202C2000203020002000200020D3
:10A10000F8B505460E4614462879801CC7B220785B
:10A11000801CC0191F2801DD0C20F8BD781CC1B2BD
:10A120002278501C2070B154FF212278501C2070DE
:10A13000B15422789119288801F085FB21784018C4
:10A140002070A88800280EDDA868002801D107200B
:10A15000E3E7AA8823789819A968FEF731F82078F0
:10A160002979401820700020D7E7F7B584B004465D
:10A170000F4606980678B01C1F2803DC6078801C08
:10A180001F2802DD0C2007B0F0BD1F20801B801EA1
:10A1900085B20295B11C781802A97DDF039003985F
:10A1A000002801D00398EEE72078022808D16846FD
:10A1B0000089A84204DC09200190684605890BE06B
:10A1C000082001906078002804D06078A84201DC63
:10A1D000657801E068460589681CC2B23046711C8A
:10A1E000CEB23A543046721CD6B201993954069810
:10A1F0000178A81C0818C1B2069801700020C2E7B7
:10A2000001B505E00098401E00900348FDF772FF7D
:10A2100000980028F6D108BDE703000010B58A00B9
:10A2200005231B07072424021B1984001A5110BDA3
:10A2300003210522120707231B02D2188300D150E5
:10A240007047000001218140014AD1607047000041
:10A2500000050050F0B585B00546288819287DD046
:10A260000EDC13287BD006DC012879D0102878D0AA
:10A27000112877D1C6E0142875D01728F9D1FBE052
:10A28000502871D004DC1E2807D03928F1D120E1F4
:10A2900052286AD05528ECD11CE1287A582871D16F
:10A2A000687A81286ED19648006896490968884284
:10A2B00062D22321090292480068FDF757FF0F463A
:10A2C000914A924800F0A6F9044600BF2346002BAD
:10A2D00005D000BF002211461846FEF7F1FC00BF72
:10A2E0000023102288498A4800F09EFA8548008899
:10A2F00083490988401A8649091F4882FEF76AFC8B
:10A300007F480068401C7E490860084600687D4917
:10A310000968884206D374DF04467E480068FEF769
:10A3200023FE2FE07B480068FEF71EFE00227A49DC
:10A3300078480068FEF7E2FD78480088C82821DDEB
:10A34000704800686E490968401A10281AD974DFED
:10A350009620724908807248008807E0B8E062E001
:10A3600049E010E0C7E088E048E072E081B26B4865
:10A370000088FEF783FC05E074DF0446654800684A
:10A38000FEF7F2FDB8E0A888664908800A20664911
:10A3900008800821684601811321418104218181BF
:10A3A0002821C18102A95F48008875DF044600BFEB
:10A3B0002346002B05D000BF002211461846FEF7A9
:10A3C0007FFC00BF002000900190042168460180BE
:10A3D0000021418055480190554AD189508C6A46E8
:10A3E000A4DF044653480190514AD18A508C6A46F2
:10A3F000A4DF044680E0FEF721FF7DE0284600F060
:10A40000B7F879E00020C04346490880002046495B
:10A41000088019208001414908800A213F480088AE
:10A42000FEF72CFC68E00020434908600B46434AD5
:10A4300000213C4800887FDF044600BF2346002BF4
:10A4400005D000BF002211461846FEF739FC00BFB8
:10A4500052E000231A46194632480088A9DF044614
:10A4600000BF2346002B05D000BF0022114618462E
:10A47000FEF726FC00BF3FE03EE02F4800680028C2
:10A4800013D02D48066800231A4631462548008817
:10A4900082DF044600BF2346002B05D000BF002208
:10A4A00011461846FEF70CFC11E000231A46194627
:10A4B0001C48008882DF044600BF2346002B05D0DD
:10A4C00000BF002211461846FEF7FAFB00BF13E05A
:10A4D00012E000BF13211348008876DF044600BF56
:10A4E0002346002B05D000BF002211461846FEF778
:10A4F000E7FB00BF00E000BF00BF05B0F0BD0000FB
:10A500004820002044200020502000203C20002033
:10A510003021002058200020CD8C00000020002099
:10A520002C200020082000204C2000205C2000204F
:10A530000421002018200020E82100200220002013
:10A5400070B50546287800280FD13B2107480088C0
:10A5500076DF044600BF2346002B05D000BF002253
:10A5600011461846FEF7ACFB00BF70BD0820002066
:10A5700070B50546AC1D20881A49C989884206D1A4
:10A58000208B022803D1608B1749088029E020889E
:10A590001449C98A88420CD1208B042809D1A07E95
:10A5A00012490870E07E4870207F8870607FC87014
:10A5B00017E021880B484089814212D1208B022864
:10A5C0000FD100BF00BFA17EE27E120211430846F8
:10A5D000C107C90F064801700078002801D0FEF7B6
:10A5E0002DFE70BD042100205C20002018200020DA
:10A5F0000C20002010B548DF044600BF2346002B86
:10A6000005D000BF002211461846FEF759FB00BFD7
:10A6100010BD00003CB5034600BF2048007800286C
:10A6200001D108203CBD00BF002B01D10E20F9E76D
:10A63000002A01D10E20F5E718688C2805D2186889
:10A640000001174C2058002801D10720EAE75C6878
:10A65000186801940090019C18680001104D401981
:10A660000089484320180190009800012C460019E9
:10A670004089009C2401641924896043009C2401C2
:10A68000641964680019019CA04201D80720C9E739
:10A69000019C0098546010600020C3E796200020C1
:10A6A000AC250020F8B504460D4600BF27480078C9
:10A6B000002801D10820F8BD00BF002C01D10E20D8
:10A6C000F9E720688C2805D2206800012049085845
:10A6D000002801D10720EEE7206800011C4940183E
:10A6E0004089216809011A4A891809894843216863
:10A6F00009018918496840186168884201D8072013
:10A70000D9E76068FFF7D0FA002801D11020D2E71E
:10A7100023681B010E4FDB1962685B68D01A226840
:10A7200012013B46D2181189FDF720FD002901D006
:10A730000720C0E700202B46024621460090042057
:10A74000FEF7E8FE06463046B5E7000096200020FA
:10A75000AC25002070B508484469601C002807D06B
:10A7600000F00CF8054629462046FDF7FFFC70BDB9
:10A77000012000074069FAE70010001001200007DF
:10A78000006980B270470000F8B5FEF70FFF0020A7
:10A790001E490880FFF7DEFF05468D3DFFF7EEFFFF
:10A7A00045431B48056000201A49088000BF0DE0A2
:10A7B00000210201184B99500201D21811810201A7
:10A7C000D21891810201D2185181401C8C28EFD3FC
:10A7D000082012490870FFF7D1FF0090FFF7BAFF79
:10A7E000471EFFF7CBFF47433E4630460099FDF733
:10A7F000BDFC054628DF0446002C04D10120084991
:10A800008870084908702046F8BD00008C200020A0
:10A810009020002094200020AC25002097200020CC
:10A82000E024002096200020FFB581B00C4615469C
:10A830001E4600BF35480078002802D1082005B028
:10A84000F0BD00BF002C01D10E20F8E701980028D0
:10A8500001D10E20F3E720688C2805D22068000182
:10A860002B490858002801D10720E8E7206800019B
:10A8700027494018408921680901254A8918098912
:10A88000484321680901891849684018616888426D
:10A8900001D80720D3E7002D06D0206800011C490D
:10A8A00040180089A84201DA0720C8E7A8192168E2
:10A8B0000901174A89180989884201DD0720BEE786
:10A8C0000198FFF7F1F9002804D03046FFF7ECF9C2
:10A8D000002801D11020B2E76068FFF7E5F90028F1
:10A8E00001D11020ABE7606881192A460198FDF775
:10A8F00067FC00952068000105490F5800220321DC
:10A900002046019BB847002099E7000096200020D0
:10A91000AC250020F8B504460D4600BF4A48007833
:10A92000002801D10820F8BD00BF002C01D10E2065
:10A93000F9E7002D01D10E20F5E72068002801D1AC
:10A940000E20F0E7FFF71AFFA188884202DBA088FB
:10A95000102801DA0720E6E7E08800281CD0FFF77E
:10A96000F9FE471EFFF70AFF4743E088A1884843E6
:10A9700036490968401887420ED3FFF7FFFEE18889
:10A98000A2885143884209DAFFF7F8FE0746A188FA
:10A99000FDF702FC002901D00720C4E720798007D9
:10A9A000800F002801D00720BDE7294800888C28A7
:10A9B00001D10420B7E726480088286023480068B2
:10A9C0006860234909880901224A89186868486033
:10A9D0001F490988090120685050A0881C4909882E
:10A9E000090189180881E08819490988090189182D
:10A9F000488100200090A688E1884E4300BF00985F
:10AA0000401C80B20090FFF7B9FEB04203D2FFF7BE
:10AA1000B5FE361A00E00026FFF7B0FE0B490968C4
:10AA200040180A490860002EE9D10949098809013E
:10AA3000084A89180098888105480088401C044904
:10AA4000088000206FE70000962000209020002062
:10AA50008C200020AC250020F8B504460E46154693
:10AA60001F4600BF2F480078002801D10820F8BDFC
:10AA700000BF002E01D10E20F9E7002C01D10E20DD
:10AA8000F5E720688C2805D220680001264908587F
:10AA9000002801D10720EAE7206800012249401878
:10AAA000408921680901204A891809894843216899
:10AAB00009018918496840186168884201D807204F
:10AAC000D5E7002D06D020680001174940180089FD
:10AAD000A84201DA0720CAE7E81921680901124AE9
:10AAE00089180989884201DD0720C0E73046FFF751
:10AAF000DBF8002804D03846FFF7D6F8002801D14B
:10AB00001020B4E76068FFF7CFF8002801D11020CB
:10AB1000ADE72B463246214602200097FEF7FAFCAD
:10AB2000A5E7000096200020AC250020F0B585B0F8
:10AB3000064600256A48807801287DD100206849B2
:10AB4000887068480078082819D1022E03D10020A7
:10AB50006449087002E0002063490870FEF7A6FC13
:10AB60000546002D09D05E480078142250435C4A07
:10AB7000121D81182846FEF7FBF805B0F0BD022E25
:10AB800002D0032E7ED183E055480078142148433B
:10AB90005349091D441855480088401C53490880F2
:10ABA0002078022807D10846008880026188884200
:10ABB00001DB012000E0002003902078052805D16A
:10ABC00048480078072801D1012000E000200290C9
:10ABD0002078042805D143480078072801D10120B6
:10ABE00000E000200190207804280BD13F48008825
:10ABF00080026188884205DB3A480078002801D14C
:10AC0000012000E0002000900298002808D101985F
:10AC1000002805D10098002802D10398002825D0EB
:10AC20002F48077800202F490870304908802C48A9
:10AC30004078401E2A4900E050E0487008460078FD
:10AC4000401C0870084600780A2803DB0846007894
:10AC50000A38087014207843214A121D81182846AA
:10AC6000FEF786F83846FEF737FC00BFFEF71EFCFD
:10AC70000546002D0BD01A48007814225043184A7C
:10AC8000121D00E027E081182846FEF771F823E046
:10AC900013480078142148431149091D441860786D
:10ACA000401CC0B26070032809D1081F007814222C
:10ACB00050430A4681180D20FEF75AF80AE0FEF7C5
:10ACC00041FB0546002D05D0112D03D02146284615
:10ACD000FEF74EF800E000BF00BF00BF00BF4CE72A
:10ACE000E0240020972000209620002094200020BF
:10ACF00001484068704700000015014010B5044647
:10AD00000348846003211120FDF716FE10BD0000EA
:10AD10000015014010B5012000040A4948600949A6
:10AD2000403948601120FDF7ADFD1120FDF7B4FD5D
:10AD30000120054908602F20FDF7ECF901200349A7
:10AD4000087010BD4013014000100140CC200020CD
:10AD500010B51120012181400E4A116000BF012071
:10AD600000040D4988600C494039886001200B4976
:10AD700048602F20FDF7CEF90120084988600020A7
:10AD8000074908602F20FDF7C5F900200549087024
:10AD900010BD000080E100E04013014000100140C0
:10ADA000B8200020CC2000200F4800784008400048
:10ADB000401C0D49087008460078022188430A4962
:10ADC0000870084600781C2188430C30064908703A
:10ADD00008460078202188430349087007204870FE
:10ADE000102088707047000002200020F0B5024655
:10ADF0000C46002037E001238340194623460B40D0
:10AE0000002B2FD0D5680D40002D05D101235B0408
:10AE1000D5680D43D56004E003231B04D5688D433A
:10AE2000D56005252D0707263602AD198600AD59D8
:10AE300003263604B5430526360707273F02F619D1
:10AE40008700F55105252D0707263602AD19860026
:10AE5000AD591D430526360707273F02F61987001F
:10AE6000F55100BF401C2028C5D3F0BD10B590B0EF
:10AE700000BF0121684681729049018100BF904A5C
:10AE800002A90120A0DF044600BF2346002B05D005
:10AE900000BF002211461846FDF712FF00BF002038
:10AEA000089000BF08A8007801090901491C08A8FA
:10AEB00001700078F0218843103008A9087000BFA5
:10AEC00000BF08A8407801090901491C08A8417081
:10AED0004078F0218843103008A9487000BF08A8C6
:10AEE000807806218843811C08A881701C2109A84C
:10AEF000FDF77FF900200A900C900D9008A80079CA
:10AF0000C006C00F002801D008A800E000200E9065
:10AF100008A80079C007C00F002801D008A800E0E9
:10AF200000200F900020019000BF684600790109C1
:10AF30000901491C684601710079F02188431030ED
:10AF40006946087100BF00BF6846407901090901E0
:10AF5000491C684641714079F021884310306946A8
:10AF6000487100BF6846807906218843811C684685
:10AF70008171807908218843014668468171807912
:10AF80001021884301466846817180794108490053
:10AF900068468171142103A8FDF72BF908A80079F0
:10AFA00002218843014608A80171007908218843DD
:10AFB000014608A80171007910218843411808A8AA
:10AFC000017101A804901021684681820021C1828C
:10AFD000102101830020079000BF01216846817283
:10AFE0003849018100BF02A80390374988888B1D2A
:10AFF00003AA09A9A2DF0446142103A8FDF7F9F862
:10B0000008A8007902218843811C08A801710079F1
:10B0100008218843411808A801710079102188434C
:10B02000014608A8017101A80490022168468182A6
:10B030000021C182022101830020079000BF01216D
:10B04000684681721F49491E018100BF02A8039012
:10B050001D4988880B460E3303AA09A9A2DF0446BE
:10B0600004216846818208A80079C006C00F002824
:10B0700001D008A800E000200E9008A80079C007C1
:10B08000C00F002801D008A800E000200F90042085
:10B090006946088300BF01216846817209491B394E
:10B0A000018100BF02A80390074988880B46163328
:10B0B00003AA09A9A2DF044610B010BD0A180000B7
:10B0C0000A200020442A000004210020FEB5074683
:10B0D0000E461446B86A002801D10720FEBD0020A4
:10B0E000019032E0B96A0C22019850430D1828797A
:10B0F000801CC0B200900098401CC1B22278501C45
:10B100002070B15416212278501C2070B15422783E
:10B110009119288800F097FB217840182070A888A2
:10B1200000280EDDA868002801D10720D6E7AA88EC
:10B1300023789819A968FDF743F8207829794018F1
:10B1400020700198401CC0B201902C20C15D019874
:10B150008142C7DC0020C1E7F8B507460C4615461A
:10B160001E462046FFF764F800213046FFF756F8E8
:10B170001048C4604661069800280DD03846FFF795
:10B1800057F800212846FFF749F80A48056187600B
:10B19000012008494031C8624F2000030549486238
:10B1A00004200860012004498860086000200349E9
:10B1B0008860F8BD002500400020004000210040CC
:10B1C00070B504460D4601260AE02046641E00289C
:10B1D00004DB7D20C000FCF77DFF01E0002603E0DA
:10B1E000074880680128F0D100BF002C05DB002053
:10B1F00003498860034880692870304670BD0000AC
:10B20000002100400025004070B506460C4615465A
:10B2100029462046C046C04670BD000001460029B0
:10B2200001D10E207047024801600020FAE70000BB
:10B23000E0200020FFB581B00C4616461F46002CCA
:10B2400002D1072005B0F0BD20468107890F0029F3
:10B2500001D1012100E00021002901D10720F1E7FF
:10B2600009480460094806800948076009490198AF
:10B2700010DF0546002D01D02846E3E701200649EE
:10B28000087016202EDFDDE7D8200020DC2000200B
:10B29000D020002009B20100D4200020014600295E
:10B2A00001D10E207047024801600020FAE700003B
:10B2B000E42000200146C878002801D0072070470C
:10B2C0000020FCE7FFB583B0044615460326694815
:10B2D000007800280BD1002D06D10698002803D154
:10B2E00002206449087002E0012062490870614848
:10B2F00000780300FDF7ACFB07B805203D6186A18F
:10B30000B800FFF73BFA80080290FFF737FA04997C
:10B3100048430190FFF71EFA471EFFF72FFA4743F5
:10B3200000973846029A019929DF0646002E02D17D
:10B3300002205049087098E0049828DF0646002E45
:10B3400016D1002D11D1069800280AD120780428A2
:10B3500003D10720474908700AE0052045490870D5
:10B3600006E004204349087002E0032041490870C8
:10B370007BE0FFF7EFF9471EFFF700FA474302971C
:10B38000FFF7FCF9049948432A460190029929DF06
:10B390000646002E10D1069800280AD120780428ED
:10B3A00003D106203349087006E0052031490870B2
:10B3B00002E004202F49087057E0FFF7CBF9471E41
:10B3C000FFF7DCF94743A80038186188401802905D
:10B3D000FFF7D4F904994843A90040186188401840
:10B3E0000190069A029929DF0646002E09D120789D
:10B3F000042803D106201F49087002E005201D49DA
:10B40000087032E0FFF7BAF904994843A9004718D9
:10B41000608882083846216929DF0646002E0BD154
:10B42000002D06D10698002803D107201149087085
:10B4300002E006200F49087017E0FFF79FF901901E
:10B44000FFF788F9471EFFF799F9474300973846F9
:10B450000199FCF78BFE029028DF0646002E02D1F0
:10B4600007200449087000E000BF00BF304607B065
:10B47000F0BD00009720002010B504462046FFF7DD
:10B4800055FB10BD0246501A0002000A704700002A
:10B4900070B504460D480068002812D00B4AE169D7
:10B4A000A06912689047054600BF2E46002E06D0C0
:10B4B00000BF002211463046FDF702FC00BF00BF6E
:10B4C00002E0A169E069884770BD0000C820002043
:10B4D000FEB50020C043019010480468104807687A
:10B4E0006846FEF785F90546FEF7E8FB0646002D9F
:10B4F00005D001AA21460098FEF7BCF90126019863
:10B50000FEF73CFC002800D00126002E02D0384671
:10B51000FEF766F8002003490870FEBDB820002041
:10B52000B4200020CD20002010B51420FDF7BEF976
:10B5300010BD0000F0B5024624205043324B1B687A
:10B54000C11832480068401C002802D12F48026010
:10B5500059E02E484B680068242460432A4C246834
:10B5600000194068834217D82848006824235843AC
:10B57000254B1B68C01840684B68C31A23480068F5
:10B5800024246043204C2468001943601F4800684D
:10B5900008621E48026036E04B681C4D2C68286823
:10B5A0000DE024254543184E3668AD196D685B1BC8
:10B5B000044624254543144E3668AD19286A451CB7
:10B5C000002D07D0242545430F4E3668AD196D6810
:10B5D0009D42E6D3451C002D0CD0242545430A4E40
:10B5E0003668AD196D68EE1A24254543064F3F684D
:10B5F000ED196E604B60086224256543024E366883
:10B60000AD192A6200BFF0BDA8200020B4200020A0
:10B6100070B502462C4C2168084609E0904200D1E2
:10B6200009E0014624244443284D2D686419206A0A
:10B63000441C002CF2D100BF441C002C00D170BD72
:10B64000814217D1204C246824256C431F4D2D685E
:10B650006419246A1C4D2C602C462468641C002C40
:10B6600008D101241A4DAC6000241A4D2C6001242D
:10B67000194D2C7024244443144D2D6864196368BB
:10B6800024244443114D2D686419256A24244C4315
:10B690000E4E3668A419256224244C430B4D2D68A8
:10B6A0006419206A441C002C0CD024244443074D08
:10B6B0002D6864196468E51824244443034E3668F1
:10B6C000A419656000BFBAE7B4200020A8200020BC
:10B6D00000100140B8200020CD200020FFB581B02F
:10B6E00005460E461746E900104A12688818694652
:10B6F00000F011F90446002C02D1042005B0F0BD81
:10B70000012020706660FFF7F3FAA060E7600498FC
:10B7100020610A986061E900044A1268881800995B
:10B7200000F00FF9FFF700FF0020E7E7B02000204E
:10B73000F8B504460E46E1000C4A126888186946BE
:10B7400000F0E9F80546002D01D10420F8BD0220E3
:10B7500028706E60E100054A12688818009900F0B0
:10B76000F0F8FFF7E1FE0020F0E70000B020002035
:10B77000F8B520480068401C00283AD00027FFF7A1
:10B78000B7FA04461C4801682046FFF77BFE0646D0
:10B790001848056811E024206843184909684418CE
:10B7A0006068B04200D90BE06068361A6068C7195B
:10B7B000256A2046FFF76CFE00BF681C0028EAD10E
:10B7C00000BF0F4800780F490978884209D10D4819
:10B7D0000078401CC0B20B490870022801D100203B
:10B7E000087008480078800007490F50FFF79CFE5A
:10B7F00000BFF8BDB4200020B8200020A820002001
:10B80000C4200020C5200020BC20002010B511203D
:10B81000FDF74CF810BD30B503461078C01C1F284A
:10B8200001DD0C2030BD02241578681C10704C55C9
:10B830000A241578681C10704C551578681C107017
:10B840004B550020EEE702460A70FF200002104030
:10B85000001248700220704738B50546204800881D
:10B86000204988423BD020480078401C1E4908707F
:10B870001E48007B097888420FDB1D491848008864
:10B8800075DF0446002C07D018488069002803D0D3
:10B89000164881692046884721E000201249087037
:10B8A0001248007C00280FD03B210D48008876DF2D
:10B8B0000446002C07D00D488069002803D00B48AF
:10B8C00081692046884700BF08484069002806D0A3
:10B8D00000200090054841696846884700BF38BD90
:10B8E0007A200020FFFF000078200020C4240020E0
:10B8F0007020002010B5FDF74DFF012802D003286D
:10B9000004D101E0002403E0012401E0022400BF8F
:10B9100000BF204610BD70B502460B465078411C52
:10B920009078884200D100211078884201D100200F
:10B9300070BD196050781826704355682C18204641
:10B94000F6E741707047FFB581B0074615460A9E7D
:10B95000009602223846049B029900F014F804462F
:10B96000002C02D0204605B0F0BD009610222946DA
:10B970003846049B00F007F80446002C01D020460E
:10B98000F1E70020EFE7FFB587B006461D46109CA3
:10B990000020069020780590002747E0B9007068E5
:10B9A00041180A886846028149884181002203A91A
:10B9B00002A865DF04900498002802D004980BB018
:10B9C000F0BD6846017B099881422ED10698002877
:10B9D00001D0002000E00220019020786946097B18
:10B9E0004118019808181F2801DD0C20E7E7069888
:10B9F000002809D12078401C20702278511C08981A
:10BA00002170A854012006902078421903A902A8A9
:10BA100065DF04900498002801D00498CFE72078CF
:10BA20006946097B4018207000BF7F1C3088B842EF
:10BA3000B4DC0698002806D021780598401C081A26
:10BA4000C1B2059829540020B9E7000070B5054639
:10BA500074DF044619208001034908800A21024846
:10BA60000088FDF70BF970BD0020002070B5054679
:10BA700052480068401C51490860514801684F48CD
:10BA80000068FCF773FB002973D14E4800884E49CB
:10BA9000884217D013214B48008876DF84B200BF5C
:10BAA0002346002B05D000BF002211461846FDF7A3
:10BAB00007F900BF0020C0434249088000204349E5
:10BAC000088000E074DF2321090241480068FCF788
:10BAD0004DFB0E463F4A4048FEF79CFD84B200BF36
:10BAE0002346002B05D000BF002211461846FDF763
:10BAF000E7F800BFFDF7A8FF35480068401C34494F
:10BB000008602321090232480068FCF72FFB0E462B
:10BB1000304A3148FEF77EFD84B200BF2346002B39
:10BB200005D000BF002211461846FDF7C9F800BF36
:10BB3000284880888005800D00280FD101218902C6
:10BB40002448FEF7AFFD00BF2346002B05D000BF01
:10BB5000002211461846FDF7B3F800BFFDF73AF88A
:10BB6000192080011D4908800A211C480088FDF722
:10BB700085F81648008800281DD014480088401E0B
:10BB80001249088008460088002816D113210D4864
:10BB9000008876DF84B200BF2346002B05D000BFAB
:10BBA000002211461846FDF78BF800BF0020C04365
:10BBB0000449088001E0FDF70DF870BD3020002039
:10BBC0002C20002008200020FFFF00004C20002037
:10BBD00044200020502000203C2000200020002095
:10BBE00001000000DDDDDDDDDCBBBBDDDDDDDDDD3D
:10BBF000DDDDDDDD988888888888888877777777A5
:10BC00007788888885555556666666666666666670
:10BC1000666888888333333222222222222222221B
:10BC20002228888D44BC010000200020E80000008C
:10BC30006C8A01002CBD0100E8200020881500005E
:10BC40007C8A01004006000000000000FFFF0000A9
:10BC500000000000000000000000000035543A0021
:10BC6000000000000000000000000000B004000020
:10BC700000010000000000000800000000000000BB
:10BC800000000000000000000000000000000000B4
:10BC900000000000000000000000000000000000A4
:10BCA000FF2210000000000006000000000000005D
:10BCB0000024F4000000000000000000000000006C
:10BCC0000000000000000000000000000000000074
:10BCD0000000000000000000000000000000000064
:10BCE0000000000000000000000000000000000054
:10BCF0000000000000000000000000000000000044
:10BD00000000000000000000000000000000000033
:10BD10000000000000000000000000000000000023
:0CBD200000000000000000000000000017
:04000005000180C1B5
:00000001FF
