:020000040001F9
:1080000020360020358101004F810100518101009F
:108010000000000000000000000000000000000060
:10802000000000000000000000000000538101007B
:108030000000000000000000558101005781010090
:1080400059810100598101005981010059810100C4
:108050005981010000000000A98701005981010039
:1080600059810100598101005981010059810100A4
:108070005981010059810100598101005981010094
:1080800059810100B1890100598101005981010024
:10809000D989010059810100E1890100598101005C
:1080A000598101005981010000000000000000001A
:1080B00000000000000000000000000000000000C0
:1080C0000348854600F0AAF900480047C19F010017
:1080D00020360020401E00BF00BF00BF00BF00BF11
:1080E00000BF00BF00BF00BF00BF00BF00BFF1D195
:1080F00070470000401E00BF00BF00BF00BF00BFB0
:1081000000BF00BF00BF00BF00BF00BF00BFF1D174
:1081100070470000401E00BF00BF00BF00BF00BF8F
:1081200000BF00BF00BF00BF00BF00BF00BFF1D154
:10813000704700000321094802680A4302600848AA
:1081400002680A4302600748804707480047FEE785
:10815000FEE7FEE7FEE7FEE7FEE70000240500403D
:1081600054050040198A0100C180010030B50B465A
:10817000014600202022012409E00D46D5409D4201
:1081800005D31D469540491B254695404019154687
:10819000521E002DF1DC30BD70B5002425460028AC
:1081A00001DA01244042002901DA01254942FFF7A2
:1081B000DDFFAC4200D04042002C00D0494270BDEF
:1081C00003460B439B0703D009E008C9121F08C0F0
:1081D000042AFAD203E00B780370401C491C521E9B
:1081E000F9D27047D2B201E00270401C491EFBD2A6
:1081F00070470022F6E710B513460A4604461946B2
:10820000FFF7F0FF204610BD0FB400B58DB0099008
:108210000B9010A900200091C0430A9000200C9000
:1082200006480690064807906A4609A80F9900F08C
:10823000C3F80DB008BC04B018470000D983010092
:10824000F9830100FFB50027FF4383B000205C687D
:1082500001909E681D46A9697F1C0498884700907C
:10826000296A88470028F6D10098401C0CD00320CA
:1082700040028443002E19DD600614D500982B2897
:1082800009D02D280FD103E00020C04307B0F0BD76
:10829000012080020443A9697F1C04988847761E48
:1082A0000090002E02DD0098302803D005980028A9
:1082B00025D035E0012040020443A969761E7F1CC9
:1082C000049888470090002E03DD782805D05828B0
:1082D00003D00598002810D022E00598002801D08E
:1082E00010281DD1012040028443A969761E7F1CFD
:1082F000049888470090102002E0082000E00A203F
:1083000005900DE0012149020C43059A0199761E62
:10831000514308180190A9697F1C04988847009070
:10832000002E05DD0599009800F031F80028E9DA03
:10833000E96904988847A00502D40120C043A5E755
:10834000E00722D1600611D56005019800D54042B2
:1083500029680A1D2A600968220501D5087014E001
:10836000220701D5088010E008600EE02868011D92
:1083700029600068210502D50199017005E02107F7
:10838000019901D5018000E0016038467EE73A2876
:1083900000D23038202302469A43412A01D31046A6
:1083A0003738884201D30020C043704702681378F1
:1083B000511801601846704710B5D16004495161E9
:1083C0000449116200211161114600F041F810BD0D
:1083D000AD830100418401004268002A08D0016891
:1083E0000B78491C002B03D0521E06C0184670475C
:1083F0000121C160881E70474268002A0BD0C36803
:108400000168002B07D183688B4204D0491E521C9F
:1084100006C0002070470020C0437047064C01256D
:10842000064E05E0E36807CC2B430C3C984710341C
:10843000B442F7D3FFF748FE60BB010080BB0100E8
:1084400010B50F21C0B2490200F09CF910BD000028
:10845000F3B58DB000200A9001200B90002608464D
:108460000C300C460990626901210998904705007B
:108470002ED0252D2DD0216A8847002818D062697A
:10848000012109989047216A88470028F7D1411EA9
:1084900062690998904700E0761CA1690D988847A9
:1084A000216A88470028F7D1E1690D988847DAE703
:1084B000A1690D9888470746A84201D1761CD2E7EA
:1084C000E1690D9888477F1C02D10A98002877D06F
:1084D00046E1002762693D463946099890472A28B7
:1084E0000CD16269012109989047012506E00A2113
:1084F0004F433F18303FEBD4102005436269012100
:1085000009989047014630390A2903D29A498F4287
:10851000DEDCECE7E90600D4984F6C280AD04C2842
:1085200010D0682824D06A282ED074280CD07A283D
:108530000AD00DE062690121099890476C2823D088
:1085400004211CE02020054362690121099890471D
:10855000A760656065284FD026DC582839D01ADC22
:10856000452849D012DC252834D04128B0D143E039
:108570006269012109989047682802D008210D43BB
:10858000E6E70120C002DEE70220DCE7462833D020
:1085900047282CD130E05B287BD061282CD0632881
:1085A00077D0642823D15EE06F284CD009DC6628A0
:1085B00022D0672820D0692826D06E2817D12EE037
:1085C000CAE070284AD073286CD075284BD0782820
:1085D0000DD150E0A1690D9888470546252800D1A6
:1085E0006CE7E1690D9888476D1C00D16DE7B7E035
:1085F0000A2248E00A224FE0012023466A46C0438F
:108600000D99C046C046A0E028464021084360605E
:10861000A807234601D5002235E000223CE020686F
:10862000011D21600068290501D506701BE7290797
:1086300001D5068017E7A90703D5F1170660416049
:1086400011E706600FE72846402108436060A8074D
:10865000234601D5082216E008221DE04849284695
:108660000840606016E02846402108436060A80783
:108670002346BFD5BCE72846402108436060A807D1
:1086800008D5234610220120C0430D99C046C0469C
:108690005BE007E0234610220120C0430D99FFF75D
:1086A000D1FD52E000210C910B460091632802D0CD
:1086B0005B2807D043E0E80601D40120A060012038
:1086C00000903CE062690121099890475E2805D13D
:1086D00001200C90014662690998904721690029A0
:1086E00006D10B4601AA8F00491CD3510829FADB99
:1086F000002835D0216900290ED1C117C90E0918EB
:108700004A11930001AA9A1849094901411A012006
:1087100013688840034313606269012109989047F8
:108720005D28E5D10C98002808D0002001AB81001D
:108730005A58401CD2435A500828F8DB01AB01209C
:108740002246C0430D99C046C04600280ADA401CA4
:1087500006D10B98002803D00020C0430FB0F0BD15
:108760000A98FBE7E90702D10A99491C0A913618D1
:1087700000200B9077E60000CCCCCC0CFFFFFF7FF5
:10878000F1F7FFFF7F2801D9002207E0054B4208DF
:108790009A5CC00700D112091207120F0120904005
:1087A0000840704720BB0100F0B585B0304805692E
:1087B00000203049C863002654E0142070432E493D
:1087C000096844180120B0402C4909680840002875
:1087D00046D0002002900190E068C04368402168C4
:1087E000084003902046039902F0A0FB204800694E
:1087F00068402168084004900498002818D0049824
:1088000068400090E068C0430099484021680840F3
:1088100007463946204602F089FBA0680099884344
:10882000384001906068009908403840029000BFCD
:10883000A068A84303990840019908430190606823
:108840002840039908400299084302900199029830
:108850000843002803D0226901990298904700BF7D
:10886000701CC6B2064800788642A6DB05B0F0BD93
:1088700000050050406100408C2000208420002032
:1088800089200020C206D20E01219140014A1160C8
:108890007047000080E200E0C206D20E0121914044
:1088A000014A11607047000000E100E0C206D20EEC
:1088B00001219140014A11607047000000E200E090
:1088C00010B5002819DA1A4A03071B0F083B9B084A
:1088D0009B00D2588307DC0EFF23A3409A438B07EB
:1088E0001B0E8407E40EA3401A43114B0407240F08
:1088F000083CA408A4001A5118E00E4A03231B02E6
:10890000D21883089B00D2588307DC0EFF23A340B4
:108910009A438B071B0E8407E40EA3401A43054BB2
:10892000032424021B198408A4001A5110BD00005E
:108930001CED00E000E100E010B5002819DA1A4A49
:1089400003071B0F083B9B089B00D2588307DC0ED4
:10895000FF23A3409A438B071B0E8407E40EA3401A
:108960001A43114B0407240F083CA408A4001A5111
:1089700018E00E4A03231B02D21883089B00D2582A
:108980008307DC0EFF23A3409A438B071B0E84074B
:10899000E40EA3401A43054B032424021B19840848
:1089A000A4001A5110BD00001CED00E000E100E041
:1089B00010B5002007490860002106484160816029
:1089C000C1600020034940390860486002F056FE4B
:1089D00010BD00004011014010B502F0FFFC10BDB9
:1089E00070B50C480068002810D00A48006880471D
:1089F000044600BF2546002D06D000BF00221146C8
:108A0000284600F05BF900BF00BF01E001F014F957
:108A100070BD0000BC20002010B501F099F90028BD
:108A200005D0074807494860C8130749886101F025
:108A300073F9002802D001200449886010BD0000AD
:108A4000DFFF07C000050040006C0040000600404A
:108A500030B47446641E2578641CAB4204D3635D55
:108A60005B00E31830BC18471D46F8E702E008C871
:108A7000121F08C1002AFAD170477047002001E098
:108A800001C1121F002AFBD17047F8B504460F46FA
:108A900015460026002028702078002809D02A4694
:108AA0003946204601F09FFB0646002E01D0304695
:108AB000F8BDA078002808D02946384600F074FA9E
:108AC0000646002E01D03046F2E7E07800280ED0AE
:108AD00002212A78501C2870B95401212A78501C90
:108AE0002870B954E1782A78501C2870B95460680D
:108AF00000280BD00020616808562A46394602F04B
:108B00007FFE0646002E01D03046D1E7208900289E
:108B10000CDD3B460622022120460830009502F07B
:108B200008FF0646002E01D03046C1E7208A002803
:108B30000CDD3B460722032120461030009502F051
:108B4000F8FE0646002E01D03046B1E7208B002803
:108B50000CDD3B461522142120461830009502F00A
:108B6000E8FE0646002E01D03046A1E7206A002824
:108B700009D02A463946206A00F086FD0646002EB6
:108B800001D0304694E7606A002809D02A46394669
:108B9000606A01F0F3FA0646002E01D0304687E7FE
:108BA0002C20005D002809DD2A463946204602F0C7
:108BB000FDF90646002E01D0304679E7304677E7CA
:108BC0000146C87804221040002801D107207047D0
:108BD0000020FCE708B51E48006800901D4800789A
:108BE0006946887030211C48FFF703FB01201A49B1
:108BF0000870082048700020887018480078C870F5
:108C000030211748FFF7F5FA1648174908801A204F
:108C100088801649144881601149486214480068E8
:108C2000124948611348006808600D490A4800F07D
:108C300019FA1149086000BF08460368002B05D0E7
:108C400000BF00221146184600F038F800BF08BDEA
:108C50000CBB0100D4200020102100205020002057
:108C6000402100208158000070210020F0200020C9
:108C700008200020202000204C20002070B586B065
:108C800004460D4618216846FFF7B3FA00216846EE
:108C9000017000200190684601720482458273DFF2
:108CA000064600BF3346002B05D000BF0022114608
:108CB000184600F003F800BF06B070BD00BFBFF358
:108CC0004F8F04480449C860BFF34F8F00BF00BFF7
:108CD000FEE700000400FA0500ED00E070B505466F
:108CE0000C46002C01D1072070BD20468107890F5A
:108CF000002901D1012100E00021002901D1072034
:108D0000F2E7134804601348057000201249087008
:108D1000124908600F4800781422504301460C485D
:108D20000068FFF766FA0020C0430D4988600620FE
:108D3000012181400B4A116000BF0121FFF7C0FDF6
:108D4000062001218140084A116000BF0020CBE7C6
:108D50008C200020882000208920002084200020F2
:108D60000063004080E200E000E100E0F8B5054665
:108D70000C462778A068000105490E5860880090CD
:108D80002A463946204608302369B047F8BD00001E
:108D90006025002070B503460C461948006800287D
:108DA00001D1082070BD002A01D10720FAE7002B6D
:108DB00001D10720F6E700211CE024204843104D94
:108DC0002D68285C002814D10125242048430C4E2E
:108DD0003668355424204843094D2D6840194470A5
:108DE00024204843064D2D684019826119600020F7
:108DF000D8E7491C034800788142DEDB0420D1E734
:108E00009420002090200020FFB581B00E46174628
:108E10001C4620468107890F002901D1012100E06D
:108E20000021002902D1072005B0F0BD002C01D19E
:108E30000720F9E701F09AFF26490A9808602648BA
:108E400006702648046000250CE0002124206843B9
:108E5000224A1268115424206843204A126880185C
:108E600001756D1CB542F0DB24207043041903200A
:108E70001B4908701B480460183400250CE0E90009
:108E8000184A126888180021017041708770446088
:108E9000182179430C196D1C032DF0DB0020C04311
:108EA0001149086000201149087011490870142008
:108EB000FFF7E8FC03211420FFF73EFD1420FFF725
:108EC000EBFC019801F028FF01F020FF0949086040
:108ED0000020A9E7B420002090200020942000204A
:108EE000982000209C200020A0200020B0200020FE
:108EF000B1200020A4200020FEB504460D461646F1
:108F000016480068002801D10820FEBD14480078EA
:108F1000844201D2052D01D20720F6E724206043C8
:108F20000E490968085C012801D00820EDE72420DB
:108F300060430A49096840184078012801D1284651
:108F400000E00020074602F0CBFC3B462A462146C3
:108F50000096019002F048FBD7E700009420002023
:108F60009020002070B504460D480068002801D10B
:108F7000082070BD0B480078844201D30720F8E731
:108F80002420604306490968085C012801D00820B4
:108F9000EFE702F0A5FC0546214602F04FFBE8E7AB
:108FA0009420002090200020F8B505460C4620783B
:108FB000001D1F2801DD0C20F8BD684679DF06463C
:108FC000002E01D03046F7E703212278501C207094
:108FD000A95419212278501C2070A95420784119D5
:108FE0006846008802F024FC217840182070002098
:108FF000E2E7000070B504460020164948602002F0
:10900000082108431449486001200860134908609A
:10901000002013490860002501E0681CC5B2104813
:109020000068002801D1FF2DF7DB00200C49086003
:1090300001200A49486000200749086089684B22DE
:10904000120151430846FF21FFF790F841004018F4
:1090500080B270BD00730040007500400070004099
:1090600000710040F3B593B00D46002112911191AB
:109070001398002814D01398FFF7A2FD0446002C83
:1090800002D0204615B0F0BD12AA09A91398FFF727
:10909000FCFC0446002C01D02046F3E709AE00E0BA
:1090A0000026002D13D0284602F08AF80446002C32
:1090B00001D02046E6E711AA01A92846FFF7E5FC02
:1090C0000446002C01D02046DCE701AF00E0002779
:1090D00010A803793A46017A304672DFD2E70000E1
:1090E00070B505461C2229461448FFF769F8002090
:1090F00013490870286800280BD0082211482968F5
:10910000FFF75EF80F487ADF0446002C08D02046AF
:1091100070BD0C487BDF0446002C01D02046F7E7E9
:109120000020C04308490880002008490870084A08
:1091300000210848FFF72EFEEAE70000782400200F
:10914000742000205C200020662000206420002085
:1091500045B801007020002010B504462088102872
:1091600006D0112808D012280ED0502810D107E0C0
:10917000204601F0DFF90CE0204601F0F9F908E0A3
:10918000204601F017FA04E0204601F0C7F900E09C
:1091900000BF00BF10BD10B504462046FFF7DCFF3E
:1091A000204601F095F810BD70B586B004460E4615
:1091B0001D4B0FCB01AD0FC5002C01D0002E02D1ED
:1091C0000E2006B070BD0020C043A0823068A061B0
:1091D0000020A075214601A863DF0546002D01D0BF
:1091E0002846EEE721786846817501218182A21C1C
:1091F00005A90120A0DF0546002D01D02846E0E7A3
:109200003146204601F0DEFD0546002D01D02846FE
:10921000D7E73146204602F084FA0546002D01D0FA
:109220002846CEE70020CCE710BB01007FB500BF89
:10923000002348222949082001F082FF054600BF8B
:109240002B46002B05D000BF002211461846FFF721
:1092500035FD00BF00BF00200290039069460872F0
:1092600002A860DF044600BF2346002B05D000BFE4
:10927000002211461846FFF721FD00BF0120694674
:109280000870242068DF044600BF2346002B05D069
:1092900000BF002211461846FFF710FD00BF10481E
:1092A00001F042FF044600BF2346002B05D000BF5B
:1092B000002211461846FFF701FD00BF094801F0E2
:1092C00073FF044600BF2346002B05D000BF0022D9
:1092D00011461846FFF7F2FC00BF7FBDB421002005
:1092E0009791010085B301000007000F0A2803DAF7
:1092F00001463031C8B202E001463731C8B270478A
:10930000F0B587B00F2755480078142148435349DA
:10931000091D4418E5682078022804D0042823D0C9
:1093200005287CD16AE0206905904D4800888602B6
:109330006088801B0690059880190590A088801988
:109340004519012189020698884206D206988208AA
:109350002846059929DF074605E0FF220132284605
:10936000059929DF07466FE0A06800013D494018D4
:1093700000890690A0680001401840890590A06807
:1093800000014018406804900498A84205D105994E
:10939000069848436188884202D0A0688D280DD184
:1093A00001F0FAF9014603902846FEF7DFFE2C494A
:1093B00009884618304628DF07461EE001F0ECF920
:1093C000014601902846FEF7D1FE064601F0E4F979
:1093D0007043281A8008039001F0DEF9711C48439D
:1093E00061884919401A8008029031462046029B44
:1093F000039A01F0EDFE074600BF25E001F0CCF92D
:10940000014604902846FEF7B1FE064601F0C4F975
:109410007043A1884919081A8008069000E012E0FC
:1094200001F0BAF9711C4843A1884919628889186A
:10943000401A8008059031462046059B069A01F0A7
:10944000C7FE074600E000BF00BF002F02D1012089
:1094500002498870384607B0F0BD0000942400200F
:10946000802000206025002010B5002408484078A6
:1094700000280BDD06488078002807D1FFF740FF61
:109480000446002C02D0112C00D10024204610BD2F
:10949000942400200023142141430C4A53541421E6
:1094A000414389184B808C231421414389188B60D8
:1094B0000023142141438918CB60142141438918AA
:1094C0000B611421414389188B8070479824002038
:1094D000FFB581B0064617460024224840780A2886
:1094E0003CD0204800781F4949784018C4B20A2C63
:1094F00002DB20460A38C4B2142060431949091D12
:109500000E5400221420604340184270142060431F
:1095100040180761142060434118029805C8CA60CA
:109520008860142161430F4A121D891804984880ED
:109530001421614389180A9888800025101F8078BB
:10954000002805D1FFF7DCFE0546112D00D10025CE
:1095500004484078401C0349487000E00425284630
:1095600005B0F0BD9424002010B500200849088003
:10957000084908700849087048708870002403E0A2
:109580002046FFF787FF641C0A2CF9D310BD0000AA
:10959000802000208320002094240020FEB51E4857
:1095A0000068401C002834D01B4800682421484330
:1095B0001A4909684018456801F0A8FB019018484D
:1095C00004682146019801F0E3FEC61C15480078A6
:1095D000002801D101F0ACFBAE4201D2284600E0E8
:1095E000304604192402240A20460F49086000BFAF
:1095F00001F08CFB00900199009801F0C9FEC71C96
:109600002046019901F0C4FE874201D902F084F896
:1096100001E001F0ABFBFEBDA02000209420002063
:10962000A4200020B82000204015014001460888F1
:10963000062808DB08881922D201904205DD088837
:10964000104A904201D0072070474888062808DB5E
:1096500048881922D201904205DD4888094A904283
:1096600001D00720F0E70888064A904208D04888D1
:10967000904205D008884A88904201DD0720E3E740
:109680000020E1E7FFFF0000F8B506460D4614464E
:109690002078801D1F2801D90C20F8BD3046FFF727
:1096A000C5FF0746002F01D03846F6E7052122788E
:1096B000501C2070A95412212278501C2070A954EB
:1096C00022785119308802F0B3F8217840182070C0
:1096D00022785119708802F0ABF821784018207078
:1096E0000020DAE7034600BF002211461846FFF7C4
:1096F000E5FA000010B588B01C2101A8FEF779FD3D
:10970000002001900520C00302900F200004039068
:109710000321684601740021418201750A480690C0
:109720000A48079001A8FFF7DBFC044600BF234668
:10973000002B05D000BF002211461846FFF7BEFAE5
:1097400000BF08B010BD0000EDA40100E5960100C7
:1097500038B51F4800F0CEFA002829D11D480078FE
:1097600000280AD01C484069002820D00020009022
:10977000194841696846884719E018480078002868
:1097800002D11548456801E0134885680022294642
:1097900013480068FFF7B0FB0446002C07D00E48C2
:1097A0008069002803D00C488169204688470AE078
:1097B00009484069002806D0012000900648416908
:1097C0006846884700BF00200249087038BD000085
:1097D00068200020742000207824002064200020CD
:1097E0007020002010B514484068C105C90D00293B
:1097F00020D00A46103A50B200280DDA0E4B1C3326
:109800000407240F083CA408A4001B598407E40E95
:10981000E3401B069B0F0BE0084B032424021B199B
:109820008408A4001B598407E40EE3401B069B0F29
:10983000D8B210BD0420FCE700ED00E000E100E03C
:10984000014614480078144A127890421DD01148FD
:109850000078401C0F4A107010460078022801D191
:10986000002010700B48007880000C4A10580860E7
:109870000B4A086812688018094A10601046006890
:109880000002000A1060012070470020086000BF3D
:10989000FAE70000B0200020B1200020A82000201E
:1098A000A420002070B5049C044E45683668B5427B
:1098B00002D10025024E357070BD00002820002026
:1098C00026200020F0B50346002426E0164E366818
:1098D00024277E43154F3F68F01946689E4203D9FE
:1098E0004668F61A46601DE046689B1B46683419B8
:1098F0000026466006750C4E35680B4F066A3E60C2
:109900000669002E08D00E193602360A86600669EE
:10991000C66016680662156000BF03480068401CF8
:109920000028D3D100BFF0BDA0200020942000204B
:1099300030B585B000BF6846007A01090901491CAD
:1099400002916846007AF02188431030029000BFEF
:10995000684671DF0324694689790811FFF7C4FC62
:1099600001462246641C4B48815469468879FFF7BA
:10997000BBFC01462246641C46488154694649792D
:109980000811FFF7B1FC01462246641C414881548E
:1099900069464879FFF7A8FC01462246641C3D4809
:1099A0008154694609790811FFF79EFC0146224659
:1099B000641C3848815469460879FFF795FC0146D4
:1099C0002246641C334881546946C9780811FFF760
:1099D0008BFC2146621CD4B22E4A50546946C8788A
:1099E000FFF782FC2146621CD4B22A4A50546946D1
:1099F00089780811FFF778FC2146621CD4B2254A09
:109A0000505469468878FFF76FFC2146621CD4B237
:109A1000204A5054694649780811FFF765FC2146F1
:109A2000621CD4B21B4A505469464878FFF75CFC6C
:109A30002146621CD4B2174A50540F22154902A87D
:109A40007CDF054600BF2B46002B05D000BF00225F
:109A500011461846FFF732F900BF0020039004902A
:109A60000821684681811321C181042101822821B6
:109A7000418203A87ADF054600BF2B46002B05D0A4
:109A800000BF002211461846FFF718F900BF05B0C5
:109A900030BD000008200020FEB5002501205849F7
:109AA000C8630020102302460421009001F0DAFA76
:109AB000082001218140534A916000BF00BF02A9E4
:109AC000042001F003FB0028F9D14F480021016078
:109AD00041608160C1604D48016041608160C1604A
:109AE00000261EE002A9042001F0F0FA002816D09A
:109AF0006846027A2846691CCDB243490A54681E5A
:109B0000085C0A2801D0102D09DB40480830831E6C
:109B1000021F3FA100903C48FEF776FB03E0701C5B
:109B2000C6B2322EDEDB00BF00203549C8630820F4
:109B300000F0C6FB01A852DF3848006833490860CE
:109B40001020FFF757FA314948810198C860232156
:109B5000090233480068FEF709FB0E46314A3248D5
:109B600000F066FD044600BF2346002B05D000BF71
:109B7000002211461846FFF7A1F800BF2948808847
:109B80008005800D00280FD101218902254800F0B1
:109B900097FD00BF2346002B05D000BF00221146D1
:109BA0001846FFF78BF800BF0023102217491D4805
:109BB00000F060FF044600BF2346002B05D000BF25
:109BC000002211461846FFF779F800BF1748408A6F
:109BD0001749884212D117480068401C154908608F
:109BE000002006E009490A5C104B011D5A54411C33
:109BF000C8B21028F6DB00200C494882FEBD0000E8
:109C0000C02F0040000500507C2100208C21002046
:109C10002568782568782568780A000020200020CB
:109C200034200020402000202C200020F0200020A4
:109C3000FFFF000038200020F8B5294800780028F0
:109C400000D1F8BD27480068002801D1012000E0BC
:109C50000020054624480068002801D1012000E0CA
:109C60000020064600BF002D14D1684651DF04468F
:109C7000052C01D101250CE0002C06D000BF0022EC
:109C800011462046FFF71AF803E0164900980968C4
:109C9000884700BF002E1AD11448008800906946FA
:109CA0001348006861DF0446052C01D101260DE050
:109CB000002C06D000BF002211462046FEF7FEFF12
:109CC00004E00B48006808490968884700BF002D78
:109CD00002D0002E00D000E0C5E700BF00BFB0E713
:109CE000C0200020D0200020CC200020C820002050
:109CF000C420002001464888064A1288904206DBAC
:109D00004888044A5288904201DC012070470020B4
:109D1000FCE700005C2000200C48008CC0B2012849
:109D200012D10A48808C0007000F00280CD1074888
:109D3000806AF0210840402806D10448C06A0840E3
:109D4000002801D1012070470020FCE7C00F00F07F
:109D50001948008CC0B201282CD11748808C00070C
:109D6000000F002826D11448806AF02108400028FE
:109D700006D11148C06A0840002801D1012070476F
:109D80000D48806AF0210840102806D10A48C06AB0
:109D90000840002801D10120F1E70748806AF0213E
:109DA0000840302806D10448C06A0840002801D184
:109DB0000120E4E70020E2E7C00F00F00146880739
:109DC000800F002801D1012070470020FCE700002F
:109DD000FEB52B48006801902A480078009040E0CA
:109DE0000098C000284909684418257835E01820F3
:109DF000684361680F18681CC5B2A078A84200D1FA
:109E000000253878022802D0032823D10EE024212F
:109E1000786848431D4909684618307D002804D0F9
:109E2000786801F07BFB0020307514E00CE01449E9
:109E3000096824225143154A1268881800210175C7
:109E40000F4A016A116000BF0D480068401C0028DD
:109E5000EDD100E000BF00BF00BF6078A842C6D1CE
:109E600000BF0098411EC9B200910028B8D1044833
:109E700001680198814201D00120FEBD0020FCE76D
:109E8000A0200020982000209C200020942000206A
:109E9000FEB50746434800680290434800780190A9
:109EA00071E00198C00041490968451863E0781CD9
:109EB000002807D03E46242070433D4909684418D5
:109EC000276A29E02978182359436A6850182978A5
:109ED000491C29702978AA78914201D10021297062
:109EE000466824217143324A12688C18017801298E
:109EF00002D1217D002900D03DE08168A160C168C8
:109F0000E160016921614169E1612A49097800291B
:109F100001D00021A16000BF2749A0680968401A4C
:109F20000002000A2549884208D22349A06809682E
:109F300001F02EFAE1684018606011E01E48A16847
:109F4000006801F025FA0090E1680098814204D988
:109F5000E1680098081A606001E00020606000BFBE
:109F60000020A060E06001202075801E2062304645
:109F700001F066FA00BF781C002898D1287869782B
:109F8000884294D100BF0198411EC9B201910028B6
:109F900087D1044801680298814201D00120FEBDAA
:109FA0000020FCE7A0200020982000209C2000201A
:109FB00094200020B9200020A4200020FFFF7F0073
:109FC0000EB500BF0020604B052204210090FEF773
:109FD0001BFF054600BF2B46002B05D000BF00220B
:109FE00011461846FEF76AFE00BF00BF574A01211E
:109FF0005748FEF7CFFE044600BF2346002B05D08E
:10A0000000BF002211461846FEF758FE00BF4F4A17
:10A0100001215048FEF7BEFE044600BF2346002B38
:10A0200005D000BF002211461846FEF747FE00BFCC
:10A0300000BF49490120FEF751FE054600BF2B46EF
:10A04000002B05D000BF002211461846FEF736FE51
:10A0500000BF00BFFFF7EAF84048052109070722C3
:10A06000120289180862082000F02AF9C82000F0BE
:10A0700005F900F097FB10216846018123210902B0
:10A08000418137480190374901A800F051FC04464E
:10A0900000BF2346002B05D000BF00221146184602
:10A0A000FEF70CFE00BF00202F49086023210902A3
:10A0B0002D480068FEF75AF82C4801400D462C4AFE
:10A0C000284800F0B5FA044600BF2346002B05D00F
:10A0D00000BF002211461846FEF7F0FD00BF012127
:10A0E0008902234800F0ECFA044600BF2346002B07
:10A0F00005D000BF002211461846FEF7DFFD00BF65
:10A10000FFF716FC00F098FFFFF7F4FA00F0ECFE02
:10A110000020C04317494882FFF7BEFCFEF75AFDF6
:10A1200000201549086000217D208001FEF7A6FD72
:10A1300000220121C90306480068FEF7DDFE00BFCA
:10A1400000F066FAFCE70000FC21002049BA01009B
:10A150005420002048200020642400200303000035
:10A16000A59801002C20002034200020C0FF000012
:10A1700040200020F020002038200020F8B50546BF
:10A180000E4614462879801CC7B22078801CC0195E
:10A190001F2801DD0C20F8BD781CC1B22278501CAC
:10A1A0002070B154FF212278501C2070B1542278C5
:10A1B0009119288801F03CFB217840182070A8886C
:10A1C00000280EDDA868002801D10720E3E7AA884F
:10A1D00023789819A968FDF7F3FF207829794018AA
:10A1E00020700020D7E7F7B584B004460F460698E4
:10A1F0000678B01C1F2803DC6078801C1F2802DD55
:10A200000C2007B0F0BD1F20801B801E85B2029578
:10A21000B11C781802A97DDF03900398002801D0B3
:10A220000398EEE72078022808D168460089A84202
:10A2300004DC09200190684605890BE008200190A4
:10A240006078002804D06078A84201DC657801E0DD
:10A2500068460589681CC2B23046711CCEB23A54B9
:10A260003046721CD6B20199395406980178A81C60
:10A270000818C1B2069801700020C2E701B505E0D8
:10A280000098401E00900348FDF734FF0098002816
:10A29000F6D108BDE703000010B58A0005231B07AF
:10A2A000072424021B1984001A5110BD0321052222
:10A2B000120707231B02D2188300D15070470000F9
:10A2C00001218140014AD160704700000005005023
:10A2D000F8B505462888192871D008DC1038030025
:10A2E000FEF7B6FB086E75EA82ACEAEAABEA1E2816
:10A2F00006D0392875D0522874D0552873D1CAE0B9
:10A30000287A58285AD1687A812857D16C48006831
:10A310006C49096888424AD82321090268480068C4
:10A32000FDF724FF0F46684A684800F081F90446AB
:10A3300000BF2346002B05D000BF0022114618465F
:10A34000FEF7BCFC00BF002310225F49604800F00C
:10A3500079FA5C4800885A490988401A5C49091F03
:10A360004882FEF737FC5B480068FEF7FBFD0022E1
:10A370000121C90357480068FEF7BEFD5648008812
:10A3800000280ED14F4800684D490968401A10282E
:10A3900007D974DF0021A020FEF770FC05204E498C
:10A3A000088047480068401C4549086006E00020D6
:10A3B000C0434749091F488201F03EFB7DE068E049
:10A3C000A8884649088005204549088075E0002096
:10A3D000C0434249088000217D208001FEF74EFCE9
:10A3E0006BE057E016E067E000203E4908600B464E
:10A3F0003D4A0021394800887FDF044600BF2346DC
:10A40000002B05D000BF002211461846FEF756FC6F
:10A4100000BF52E000231A46194630480088A9DFE1
:10A42000044600BF2346002B05D000BF0022114682
:10A430001846FEF743FC00BF3FE03EE029480068B5
:10A44000002813D02748066800231A4631462348BF
:10A45000008882DF044600BF2346002B05D000BFE2
:10A46000002211461846FEF729FC11E000231A4687
:10A4700019461A48008882DF044600BF2346002B95
:10A4800005D000BF002211461846FEF717FC00BF9A
:10A4900013E012E000BF13211048008876DF044665
:10A4A00000BF2346002B05D000BF002211461846EE
:10A4B000FEF704FC00BF00E000BF00BFF8BD0000D5
:10A4C0003820002034200020402000202C200020B4
:10A4D000F4200020482000203C20002006200020FE
:10A4E0003E2000209C2100200020002070B5054661
:10A4F000287800280FD13B210748008876DF0446E2
:10A5000000BF2346002B05D000BF0022114618468D
:10A51000FEF7D4FB00BF70BD0620002010B5044636
:10A520000822A11D0248FDF74BFEFFF711F910BDEF
:10A530006820002010B50446A08809490880082238
:10A54000214616310748FDF73BFE002006490870FA
:10A550000648C089002801D1FFF7FAF810BD0000B5
:10A56000662000206820002064200020782400203D
:10A5700070B505460020C0430A49088000200A49FA
:10A5800008700A480068FEF7EDFC0446002C07D06E
:10A5900007488069002803D005488169204688471C
:10A5A00070BD000066200020642000207020002084
:10A5B0007824002070B50546AC1D20881249C98951
:10A5C000884220D1208B02281DD100BF00BFA17E70
:10A5D000E27E120211430846C107C90F002902D0CA
:10A5E000FFF7B6F80FE009480068FEF7BBFC064627
:10A5F000002E07D004488069002803D002488169F2
:10A600003046884700BF70BD7824002070200020AD
:10A6100010B548DF044600BF2346002B05D000BF1D
:10A62000002211461846FEF749FB00BF10BD00008E
:10A630003CB5034600BF20480078002801D108201F
:10A640003CBD00BF002B01D10E20F9E7002A01D14B
:10A650000E20F5E718688C2805D218680001174C01
:10A660002058002801D10720EAE75C6818680194A7
:10A670000090019C18680001104D40190089484362
:10A6800020180190009800012C4600194089009C78
:10A690002401641924896043009C240164196468BE
:10A6A0000019019CA04201D80720C9E7019C00982D
:10A6B000546010600020C3E7822000206025002045
:10A6C000F8B504460D4600BF27480078002801D1A0
:10A6D0000820F8BD00BF002C01D10E20F9E720684A
:10A6E0008C2805D22068000120490858002801D193
:10A6F0000720EEE7206800011C49401840892168C6
:10A7000009011A4A891809894843216809018918E9
:10A71000496840186168884201D80720D9E7606815
:10A72000FFF74CFB002801D11020D2E723681B0162
:10A730000E4FDB1962685B68D01A226812013B4633
:10A74000D2181189FDF712FD002901D00720C0E7BA
:10A7500000202B460246214600900420FEF7B8FE5A
:10A7600006463046B5E70000822000206025002024
:10A7700070B508484469601C002807D000F00CF848
:10A78000054629462046FDF7F1FC70BD0120000773
:10A790004069FAE70010001001200007006980B24C
:10A7A00070470000F8B5FEF7DFFE00201E49088064
:10A7B000FFF7DEFF05468D3DFFF7EEFF45431B48E3
:10A7C000056000201A49088000BF0DE00021020149
:10A7D000184B99500201D21811810201D2189181AF
:10A7E0000201D2185181401C8C28EFD30820124955
:10A7F0000870FFF7D1FF0090FFF7BAFF471EFFF781
:10A80000CBFF47433E4630460099FDF7AFFC054677
:10A8100028DF0446002C04D101200849887008492B
:10A8200008702046F8BD0000782000207C20002021
:10A830008020002060250020832000209424002018
:10A8400082200020FFB581B00C4615461E4600BF91
:10A8500035480078002802D1082005B0F0BD00BFBF
:10A86000002C01D10E20F8E70198002801D10E201C
:10A87000F3E720688C2805D2206800012B4908588E
:10A88000002801D10720E8E7206800012749401887
:10A89000408921680901254A8918098948432168A6
:10A8A00009018918496840186168884201D8072061
:10A8B000D3E7002D06D0206800011C49401800890C
:10A8C000A84201DA0720C8E7A81921680901174A38
:10A8D00089180989884201DD0720BEE70198FFF742
:10A8E0006DFA002804D03046FFF768FA002801D13D
:10A8F0001020B2E76068FFF761FA002801D110204C
:10A90000ABE7606881192A460198FDF759FC00956C
:10A910002068000105490F58002203212046019BB1
:10A92000B847002099E70000822000206025002021
:10A93000F8B504460D4600BF4A480078002801D10A
:10A940000820F8BD00BF002C01D10E20F9E7002D32
:10A9500001D10E20F5E72068002801D10E20F0E794
:10A96000FFF71AFFA188884202DBA088102801DACD
:10A970000720E6E7E08800281CD0FFF7F9FE471E15
:10A98000FFF70AFF4743E088A18848433649096832
:10A99000401887420ED3FFF7FFFEE188A28851439B
:10A9A000884209DAFFF7F8FE0746A188FDF7F4FBB5
:10A9B000002901D00720C4E720798007800F0028F4
:10A9C00001D00720BDE7294800888C2801D1042048
:10A9D000B7E7264800882860234800686860234954
:10A9E00009880901224A8918686848601F4909884E
:10A9F000090120685050A0881C490988090189185C
:10AA00000881E088194909880901891848810020CE
:10AA10000090A688E1884E4300BF0098401C80B299
:10AA20000090FFF7B9FEB04203D2FFF7B5FE361A29
:10AA300000E00026FFF7B0FE0B49096840180A49FC
:10AA40000860002EE9D1094909880901084A8918D6
:10AA50000098888105480088401C0449088000202F
:10AA60006FE70000822000207C200020782000205A
:10AA700060250020F8B504460E4615461F4600BF67
:10AA80002F480078002801D10820F8BD00BF002E13
:10AA900001D10E20F9E7002C01D10E20F5E7206846
:10AAA0008C2805D22068000126490858002801D1C9
:10AAB0000720EAE720680001224940184089216800
:10AAC0000901204A89180989484321680901891820
:10AAD000496840186168884201D80720D5E7002DF1
:10AAE00006D020680001174940180089A84201DA01
:10AAF0000720CAE7E81921680901124A891809895B
:10AB0000884201DD0720C0E73046FFF757F90028EB
:10AB100004D03846FFF752F9002801D11020B4E7DD
:10AB20006068FFF74BF9002801D11020ADE72B46F4
:10AB30003246214602200097FEF7CAFCA5E7000036
:10AB40008220002060250020F0B585B00646002553
:10AB50006A48807801287DD100206849887068485B
:10AB60000078082819D1022E03D10020644908700A
:10AB700002E0002063490870FEF776FC0546002DD0
:10AB800009D05E480078142250435C4A121D811897
:10AB90002846FEF7EBF805B0F0BD022E02D0032EDA
:10ABA0007ED183E055480078142148435349091D5C
:10ABB000441855480088401C5349088020780228D2
:10ABC00007D10846008880026188884201DB0120A5
:10ABD00000E0002003902078052805D1484800783F
:10ABE000072801D1012000E00020029020780428ED
:10ABF00005D143480078072801D1012000E000205A
:10AC00000190207804280BD13F4800888002618899
:10AC1000884205DB3A480078002801D1012000E095
:10AC2000002000900298002808D10198002805D142
:10AC30000098002802D10398002825D02F480778D3
:10AC400000202F490870304908802C484078401E69
:10AC50002A4900E050E0487008460078401C08701F
:10AC6000084600780A2803DB084600780A3808708E
:10AC700014207843214A121D81182846FEF776F8E1
:10AC80003846FEF707FC00BFFEF7EEFB0546002D39
:10AC90000BD01A48007814225043184A121D00E0C5
:10ACA00027E081182846FEF761F823E01348007872
:10ACB000142148431149091D44186078401CC0B252
:10ACC0006070032809D1081F0078142250430A46F7
:10ACD00081180D20FEF74AF80AE0FEF711FB054641
:10ACE000002D05D0112D03D021462846FEF73EF851
:10ACF00000E000BF00BF00BF00BF4CE7942400206D
:10AD0000832000208220002080200020014840680D
:10AD1000704700000015014010B5044603488460E8
:10AD200003211120FDF708FE10BD000000150140B1
:10AD300010B5012000040A494860094940394860BB
:10AD40001120FDF79FFD1120FDF7A6FD012005490B
:10AD500008602F20FDF7DEF901200349087010BDBF
:10AD60004013014000100140B820002010B5112010
:10AD7000012181400E4A116000BF012000040D49ED
:10AD800088600C494039886001200B4948602F20B9
:10AD9000FDF7C0F9012008498860002007490860D4
:10ADA0002F20FDF7B7F900200549087010BD0000FD
:10ADB00080E100E04013014000100140A420002089
:10ADC000B820002030B58FB004460D460020079013
:10ADD00000BF6846007F01090901491C68460177E8
:10ADE000007FF021884310306946087700BF00BF1C
:10ADF0006846407F01090901491C68464177407F48
:10AE0000F021884310306946487700BF6846807F4C
:10AE100006218843811C684681771C2108A8FDF71C
:10AE2000E8F908A8007810218843411808A80170A3
:10AE3000002009900B900C9007A80D9000200E9018
:10AE4000217868468171032181800020009000BF35
:10AE50006846007801090901491C684601700078BC
:10AE6000F021884310306946087000BF00BF684673
:10AE7000407801090901491C684641704078F02179
:10AE8000884310306946487000BF684680780621C4
:10AE90008843811C68468170807808218843014678
:10AEA0006846817080781021884301466846817029
:10AEB000807841084900491C68468170142102A825
:10AEC000FDF797F901A802906846039001210182DD
:10AED0000021418214218182608823460C3302AA1A
:10AEE00008A9A2DF0FB030BD0F480078400840002D
:10AEF000401C0D49087008460078022188430A4921
:10AF00000870084600781C2188430C3006490870F8
:10AF100008460078202188430349087007204870BC
:10AF2000102088707047000000200020F0B5024615
:10AF30000C46002037E001238340194623460B408E
:10AF4000002B2FD0D5680D40002D05D101235B04C7
:10AF5000D5680D43D56004E003231B04D5688D43F9
:10AF6000D56005252D0707263602AD198600AD5997
:10AF700003263604B5430526360707273F02F61990
:10AF80008700F55105252D0707263602AD198600E5
:10AF9000AD591D430526360707273F02F6198700DE
:10AFA000F55100BF401C2028C5D3F0BDFEB50746B3
:10AFB0000E461446B86A002801D10720FEBD0020C5
:10AFC000019032E0B96A0C22019850430D1828799B
:10AFD000801CC0B200900098401CC1B22278501C66
:10AFE0002070B15416212278501C2070B154227860
:10AFF0009119288800F01CFC217840182070A8883E
:10B0000000280EDDA868002801D10720D6E7AA880D
:10B0100023789819A968FDF7D3F820782979401882
:10B0200020700198401CC0B201902C20C15D019895
:10B030008142C7DC0020C1E738B500200090694696
:10B040000748FEF7B1F8044600BF2346002B05D0A1
:10B0500000BF002211461846FDF730FE00BF38BD84
:10B06000D4200020F8B507460C4615461E4620465B
:10B07000FFF71CF900213046FFF70EF91048C460B5
:10B080004661069800280DD03846FFF70FF90021D9
:10B090002846FFF701F90A48056187600120084941
:10B0A0004031C8624F20000305494862042008600F
:10B0B0000120044988600860002003498860F8BDC9
:10B0C00000250040002000400021004070B50446EB
:10B0D0000D4601260AE02046641E002804DB7D2080
:10B0E000C000FCF7F7FF01E0002603E00748806896
:10B0F0000128F0D100BF002C05DB00200349886047
:10B10000034880692870304670BD0000002100406F
:10B110000025004070B506460C46154629462046D7
:10B12000C046C04670BD00000146002901D10E2076
:10B130007047024801600020FAE70000CC200020A0
:10B14000FFB581B00C4616461F46002C02D10720E1
:10B1500005B0F0BD20468107890F002901D10121EA
:10B1600000E00021002901D10720F1E7094804602F
:10B1700009480680094807600949019810DF05461B
:10B18000002D01D02846E3E701200649087016206B
:10B190002EDFDDE7C4200020C8200020BC200020D6
:10B1A00015B10100C02000200146002901D10E2068
:10B1B0007047024801600020FAE70000D02000201C
:10B1C0000146C878002801D0072070470020FCE71E
:10B1D000FFB583B004461546032669480078002869
:10B1E0000BD1002D06D10698002803D10220644916
:10B1F000087002E00120624908706148007803008D
:10B20000FDF726FC07B805203D6186A1B800FFF7D1
:10B21000C3FA80080290FFF7BFFA049948430190EF
:10B22000FFF7A6FA471EFFF7B7FA474300973846DD
:10B23000029A019929DF0646002E02D102205049C8
:10B24000087098E0049828DF0646002E16D1002DDD
:10B2500011D1069800280AD12078042803D10720AC
:10B26000474908700AE005204549087006E00420B7
:10B270004349087002E00320414908707BE0FFF772
:10B2800077FA471EFFF788FA47430297FFF784FAD9
:10B29000049948432A460190029929DF0646002E68
:10B2A00010D1069800280AD12078042803D106205E
:10B2B0003349087006E005203149087002E0042097
:10B2C0002F49087057E0FFF753FA471EFFF764FA5B
:10B2D0004743A8003818618840180290FFF75CFACD
:10B2E00004994843A9004018618840180190069AC3
:10B2F000029929DF0646002E09D12078042803D1BF
:10B3000006201F49087002E005201D49087032E040
:10B31000FFF742FA04994843A90047186088820859
:10B320003846216929DF0646002E0BD1002D06D1B3
:10B330000698002803D107201149087002E0062072
:10B340000F49087017E0FFF727FA0190FFF710FA8E
:10B35000471EFFF721FA4743009738460199FCF74B
:10B3600005FF029028DF0646002E02D1072004497F
:10B37000087000E000BF00BF304607B0F0BD00001D
:10B380008320002010B504462046FFF7DDFB10BDEA
:10B390000246501A0002000A7047000070B50446C9
:10B3A0000D480068002812D00B4AE169A0691268B4
:10B3B0009047054600BF2E46002E06D000BF002253
:10B3C00011463046FDF77AFC00BF00BF02E0A169DC
:10B3D000E069884770BD0000B4200020FEB5002061
:10B3E000C043019010480468104807686846FEF79B
:10B3F00027FA0546FEF7ECFC0646002D05D001AA0B
:10B4000021460098FEF75EFA01260198FEF740FDFE
:10B41000002800D00126002E02D03846FEF7BEF8E4
:10B42000002003490870FEBDA4200020A0200020B9
:10B43000B920002010B51420FDF738FA10BD000027
:10B44000F0B5024624205043324B1B68C1183248E5
:10B450000068401C002802D12F48026059E02E48A5
:10B460004B680068242460432A4C24680019406813
:10B47000834217D82848006824235843254B1B686B
:10B48000C01840684B68C31A2348006824246043EE
:10B49000204C2468001943601F48006808621E4859
:10B4A000026036E04B681C4D2C6828680DE02425AE
:10B4B0004543184E3668AD196D685B1B044624255C
:10B4C0004543144E3668AD19286A451C002D07D037
:10B4D000242545430F4E3668AD196D689D42E6D36D
:10B4E000451C002D0CD0242545430A4E3668AD1965
:10B4F0006D68EE1A24254543064F3F68ED196E60CE
:10B500004B60086224256543024E3668AD192A62F5
:10B5100000BFF0BD94200020A020002070B502469E
:10B520002C4C2168084609E0904200D109E0014610
:10B5300024244443284D2D686419206A441C002C9F
:10B54000F2D100BF441C002C00D170BD814217D144
:10B55000204C246824256C431F4D2D686419246AEF
:10B560001C4D2C602C462468641C002C08D101243E
:10B570001A4DAC6000241A4D2C600124194D2C701A
:10B5800024244443144D2D686419636824244443DF
:10B59000114D2D686419256A24244C430E4E3668DB
:10B5A000A419256224244C430B4D2D686419206A8C
:10B5B000441C002C0CD024244443074D2D686419EE
:10B5C0006468E51824244443034E3668A419656072
:10B5D00000BFBAE7A0200020942000200010014006
:10B5E000A4200020B9200020FFB581B005460E46FA
:10B5F0001746E900104A12688818694600F081F978
:10B600000446002C02D1042005B0F0BD01202070BA
:10B610006660FFF77BFBA060E760049820610A98F2
:10B620006061E900044A12688818009900F07FF907
:10B63000FFF700FF0020E7E79C200020F8B5044654
:10B640000E46E1000C4A12688818694600F059F964
:10B650000546002D01D10420F8BD022028706E603F
:10B66000E100054A12688818009900F060F9FFF7B8
:10B67000E1FE0020F0E700009C200020F8B5204803
:10B680000068401C00283AD00027FFF73FFB044623
:10B690001C4801682046FFF77BFE064618480568EF
:10B6A00011E0242068431849096844186068B042D2
:10B6B00000D90BE06068361A6068C719256A204611
:10B6C000FFF76CFE00BF681C0028EAD100BF0F48DE
:10B6D00000780F490978884209D10D480078401C4C
:10B6E000C0B20B490870022801D100200870084838
:10B6F0000078800007490F50FFF79CFE00BFF8BD9F
:10B70000A0200020A420002094200020B0200020B1
:10B71000B1200020A820002010B51120FDF7C6F8A8
:10B7200010BD30B58FB004460D461C2108A8FCF7AB
:10B7300060FD08A8007808218843411808A8017016
:10B74000007804218843011D08A801700020099099
:10B750000B900C900D900E9021786846817202211A
:10B7600001810020019000BF6846007901090901AC
:10B77000491C684601710079F02188431030694600
:10B78000087100BF00BF6846407901090901491CE2
:10B79000684641714079F02188431030694648710C
:10B7A00000BF6846807906218843811C6846817104
:10B7B000807908218843014668468171807910218B
:10B7C0008843014668468171807941084900491CD7
:10B7D00068468171142103A8FCF70BFD02A80390B1
:10B7E00001A804900121684681820021C1821421B0
:10B7F00001836088231D03AA08A9A2DF0FB030BD12
:10B8000030B503461078C01C1F2801DD0C2030BD68
:10B8100002241578681C10704C550A241578681C91
:10B8200010704C551578681C10704B550020EEE7D1
:10B8300002460A70FF2000021040001248700220E9
:10B840007047000038B505462048008820498842E6
:10B850003BD020480078401C1E4908701E48007BE1
:10B86000097888420FDB1D491848008875DF0446B7
:10B87000002C07D018488069002803D01648816939
:10B880002046884721E00020124908701248007CB9
:10B8900000280FD03B210D48008876DF0446002C9D
:10B8A00007D00D488069002803D00B4881692046E5
:10B8B000884700BF08484069002806D00020009053
:10B8C000054841696846884700BF38BD66200020AA
:10B8D000FFFF000064200020782400205C2000206E
:10B8E00010B5FDF77FFF012802D0032804D101E045
:10B8F000002403E0012401E0022400BF00BF204631
:10B9000010BD70B502460B465078411C90788842B5
:10B9100000D100211078884201D1002070BD19604B
:10B9200050781826704355682C182046F6E7417069
:10B930007047FFB581B0074615460A9E0096022261
:10B940003846049B029900F014F80446002C02D0FB
:10B95000204605B0F0BD0096102229463846049BCB
:10B9600000F007F80446002C01D02046F1E7002043
:10B97000EFE7FFB587B006461D46109C00200690F5
:10B9800020780590002747E0B900706841180A88C0
:10B990006846028149884181002203A902A865DF27
:10B9A00004900498002802D004980BB0F0BD6846BB
:10B9B000017B099881422ED10698002801D00020F1
:10B9C00000E00220019020786946097B4118019827
:10B9D00008181F2801DD0C20E7E70698002809D188
:10B9E0002078401C20702278511C08982170A8549F
:10B9F000012006902078421903A902A865DF04906F
:10BA00000498002801D00498CFE720786946097B84
:10BA10004018207000BF7F1C3088B842B4DC069804
:10BA2000002806D021780598401C081AC1B2059854
:10BA300029540020B9E7000087DF0A200149088067
:10BA4000704700003C20002070B50546294800687A
:10BA5000401C284908602848016826480068FCF70F
:10BA600085FB002912D125480068401C2349086045
:10BA700074DFFEF711F8FDF7ADF8214800880028C3
:10BA800004D100217D208001FDF7F8F81D480088D1
:10BA9000002818D01B480088401E1A490880084614
:10BAA000008800280FD113211748008876DF84B260
:10BAB00000BF2346002B05D000BF002211461846C8
:10BAC000FDF7FCF800BF0E48008800280FD00C4896
:10BAD0000088401E0A49088008460088002808D1CE
:10BAE00074DF00217D208001FDF7C8F801E0FDF73B
:10BAF00071F870BD202000201C2000203420002080
:10BB00003C2000203E2000200620002001000000F4
:10BB10009ECADC240EE5A9E093F3A3B50000406EB5
:10BB2000DDDDDDDDDCBBBBDDDDDDDDDDDDDDDDDD8A
:10BB300098888888888888887777777777888888CA
:10BB40008555555666666666666666666668888862
:10BB50008333333222222222222222222228888D5B
:10BB600080BB010000200020D40000006C8A01008E
:10BB700054BC0100D42000204C1500007C8A010038
:10BB8000000000000000FFFF35543A0000000000F4
:10BB90000000000000000000B004000000010000F0
:10BBA000000000000800000000000000000000008D
:10BBB0000000000000000000000000000000000085
:10BBC0000000000000000000000000000000000075
:10BBD00006000000000000000024F4000000000047
:10BBE0000000000000000000000000000000000055
:10BBF0000000000000000000000000000000000045
:10BC00000000000000000000000000000000000034
:10BC10000000000000000000000000000000000024
:10BC20000000000000000000000000000000000014
:10BC30000000000000000000000000000000000004
:10BC400000000000000000000000000000000000F4
:04BC500000000000F0
:04000005000180C1B5
:00000001FF
