:020000040001F9
:10800000D02C0020358101004F81010051810100F9
:108010000000000000000000000000000000000060
:10802000000000000000000000000000538101007B
:108030000000000000000000558101005781010090
:1080400059810100598101005981010059810100C4
:108050005981010000000000A98701005981010039
:1080600059810100598101005981010059810100A4
:108070005981010059810100598101005981010094
:10808000598101003989010059810100598101009C
:10809000618901005981010069890100598101004C
:1080A000598101005981010000000000000000001A
:1080B00000000000000000000000000000000000C0
:1080C0000348854600F0AAF9004800471D9A0100C0
:1080D000D02C0020401E00BF00BF00BF00BF00BF6B
:1080E00000BF00BF00BF00BF00BF00BF00BFF1D195
:1080F00070470000401E00BF00BF00BF00BF00BFB0
:1081000000BF00BF00BF00BF00BF00BF00BFF1D174
:1081100070470000401E00BF00BF00BF00BF00BF8F
:1081200000BF00BF00BF00BF00BF00BF00BFF1D154
:10813000704700000321094802680A4302600848AA
:1081400002680A4302600748804707480047FEE785
:10815000FEE7FEE7FEE7FEE7FEE70000240500403D
:1081600054050040A1890100C180010030B50B46D3
:10817000014600202022012409E00D46D5409D4201
:1081800005D31D469540491B254695404019154687
:10819000521E002DF1DC30BD70B5002425460028AC
:1081A00001DA01244042002901DA01254942FFF7A2
:1081B000DDFFAC4200D04042002C00D0494270BDEF
:1081C00003460B439B0703D009E008C9121F08C0F0
:1081D000042AFAD203E00B780370401C491C521E9B
:1081E000F9D27047D2B201E00270401C491EFBD2A6
:1081F00070470022F6E710B513460A4604461946B2
:10820000FFF7F0FF204610BD0FB400B58DB0099008
:108210000B9010A900200091C0430A9000200C9000
:1082200006480690064807906A4609A80F9900F08C
:10823000C3F80DB008BC04B018470000D983010092
:10824000F9830100FFB50027FF4383B000205C687D
:1082500001909E681D46A9697F1C0498884700907C
:10826000296A88470028F6D10098401C0CD00320CA
:1082700040028443002E19DD600614D500982B2897
:1082800009D02D280FD103E00020C04307B0F0BD76
:10829000012080020443A9697F1C04988847761E48
:1082A0000090002E02DD0098302803D005980028A9
:1082B00025D035E0012040020443A969761E7F1CC9
:1082C000049888470090002E03DD782805D05828B0
:1082D00003D00598002810D022E00598002801D08E
:1082E00010281DD1012040028443A969761E7F1CFD
:1082F000049888470090102002E0082000E00A203F
:1083000005900DE0012149020C43059A0199761E62
:10831000514308180190A9697F1C04988847009070
:10832000002E05DD0599009800F031F80028E9DA03
:10833000E96904988847A00502D40120C043A5E755
:10834000E00722D1600611D56005019800D54042B2
:1083500029680A1D2A600968220501D5087014E001
:10836000220701D5088010E008600EE02868011D92
:1083700029600068210502D50199017005E02107F7
:10838000019901D5018000E0016038467EE73A2876
:1083900000D23038202302469A43412A01D31046A6
:1083A0003738884201D30020C043704702681378F1
:1083B000511801601846704710B5D16004495161E9
:1083C0000449116200211161114600F041F810BD0D
:1083D000AD830100418401004268002A08D0016891
:1083E0000B78491C002B03D0521E06C0184670475C
:1083F0000121C160881E70474268002A0BD0C36803
:108400000168002B07D183688B4204D0491E521C9F
:1084100006C0002070470020C0437047064C01256D
:10842000064E05E0E36807CC2B430C3C984710341C
:10843000B442F7D3FFF748FE44B0010064B0010036
:1084400010B50F21C0B2490200F09CF910BD000028
:10845000F3B58DB000200A9001200B90002608464D
:108460000C300C460990626901210998904705007B
:108470002ED0252D2DD0216A8847002818D062697A
:10848000012109989047216A88470028F7D1411EA9
:1084900062690998904700E0761CA1690D988847A9
:1084A000216A88470028F7D1E1690D988847DAE703
:1084B000A1690D9888470746A84201D1761CD2E7EA
:1084C000E1690D9888477F1C02D10A98002877D06F
:1084D00046E1002762693D463946099890472A28B7
:1084E0000CD16269012109989047012506E00A2113
:1084F0004F433F18303FEBD4102005436269012100
:1085000009989047014630390A2903D29A498F4287
:10851000DEDCECE7E90600D4984F6C280AD04C2842
:1085200010D0682824D06A282ED074280CD07A283D
:108530000AD00DE062690121099890476C2823D088
:1085400004211CE02020054362690121099890471D
:10855000A760656065284FD026DC582839D01ADC22
:10856000452849D012DC252834D04128B0D143E039
:108570006269012109989047682802D008210D43BB
:10858000E6E70120C002DEE70220DCE7462833D020
:1085900047282CD130E05B287BD061282CD0632881
:1085A00077D0642823D15EE06F284CD009DC6628A0
:1085B00022D0672820D0692826D06E2817D12EE037
:1085C000CAE070284AD073286CD075284BD0782820
:1085D0000DD150E0A1690D9888470546252800D1A6
:1085E0006CE7E1690D9888476D1C00D16DE7B7E035
:1085F0000A2248E00A224FE0012023466A46C0438F
:108600000D99C046C046A0E028464021084360605E
:10861000A807234601D5002235E000223CE020686F
:10862000011D21600068290501D506701BE7290797
:1086300001D5068017E7A90703D5F1170660416049
:1086400011E706600FE72846402108436060A8074D
:10865000234601D5082216E008221DE04849284695
:108660000840606016E02846402108436060A80783
:108670002346BFD5BCE72846402108436060A807D1
:1086800008D5234610220120C0430D99C046C0469C
:108690005BE007E0234610220120C0430D99FFF75D
:1086A000D1FD52E000210C910B460091632802D0CD
:1086B0005B2807D043E0E80601D40120A060012038
:1086C00000903CE062690121099890475E2805D13D
:1086D00001200C90014662690998904721690029A0
:1086E00006D10B4601AA8F00491CD3510829FADB99
:1086F000002835D0216900290ED1C117C90E0918EB
:108700004A11930001AA9A1849094901411A012006
:1087100013688840034313606269012109989047F8
:108720005D28E5D10C98002808D0002001AB81001D
:108730005A58401CD2435A500828F8DB01AB01209C
:108740002246C0430D99C046C04600280ADA401CA4
:1087500006D10B98002803D00020C0430FB0F0BD15
:108760000A98FBE7E90702D10A99491C0A913618D1
:1087700000200B9077E60000CCCCCC0CFFFFFF7FF5
:10878000F1F7FFFF7F2801D9002207E0054B4208DF
:108790009A5CC00700D112091207120F0120904005
:1087A0000840704704B00100F0B585B03048056955
:1087B00000203049C863002654E0142070432E493D
:1087C000096844180120B0402C4909680840002875
:1087D00046D0002002900190E068C04368402168C4
:1087E000084003902046039901F0C2FE204800692A
:1087F00068402168084004900498002818D0049824
:1088000068400090E068C0430099484021680840F3
:1088100007463946204601F0ABFEA0680099884320
:10882000384001906068009908403840029000BFCD
:10883000A068A84303990840019908430190606823
:108840002840039908400299084302900199029830
:108850000843002803D0226901990298904700BF7D
:10886000701CC6B2064800788642A6DB05B0F0BD93
:108870000005005040610040642000205C20002082
:1088800061200020C206D20E01219140014A1160F0
:108890007047000080E200E0C206D20E0121914044
:1088A000014A11607047000000E100E0C206D20EEC
:1088B00001219140014A11607047000000E200E090
:1088C00010B5002819DA1A4A03071B0F083B9B084A
:1088D0009B00D2588307DC0EFF23A3409A438B07EB
:1088E0001B0E8407E40EA3401A43114B0407240F08
:1088F000083CA408A4001A5118E00E4A03231B02E6
:10890000D21883089B00D2588307DC0EFF23A340B4
:108910009A438B071B0E8407E40EA3401A43054BB2
:10892000032424021B198408A4001A5110BD00005E
:108930001CED00E000E100E010B5002007490860F0
:108940000021064841608160C16000200349403930
:108950000860486002F09EF910BD0000401101401F
:1089600010B502F047F810BD70B50C48006800283B
:1089700010D00A4800688047044600BF2546002DF5
:1089800006D000BF00221146284600F057F900BF6C
:1089900000BF01E000F090FE70BD000094200020B8
:1089A00010B500F003FF002805D0074807494860CC
:1089B000C8130749886100F0DDFE002802D00120BD
:1089C0000449886010BD0000DFFF07C000050040BB
:1089D000006C00400006004030B47446641E2578E8
:1089E000641CAB4204D3635D5B00E31830BC1847E2
:1089F0001D46F8E702E008C8121F08C1002AFAD194
:108A000070477047002001E001C1121F002AFBD10E
:108A10007047F8B504460F4615460026002028701A
:108A20002078002809D02A463946204601F0DDF892
:108A30000646002E01D03046F8BDA078002808D0A8
:108A40002946384600F028FA0646002E01D0304666
:108A5000F2E7E07800280ED002212A78501C287016
:108A6000B95401212A78501C2870B954E1782A7829
:108A7000501C2870B954606800280BD00020616831
:108A800008562A46394602F058F90646002E01D00B
:108A90003046D1E7208900280CDD3B460622022122
:108AA00020460830009502F092F90646002E01D0CB
:108AB0003046C1E7208A00280CDD3B46072203210F
:108AC00020461030009502F082F90646002E01D0B3
:108AD0003046B1E7208B00280CDD3B4615221421DF
:108AE00020461830009502F072F90646002E01D09B
:108AF0003046A1E7206A002809D02A463946206A74
:108B000000F092FC0646002E01D0304694E7606AE1
:108B1000002809D02A463946606A01F031F8064635
:108B2000002E01D0304687E72C20005D002809DDAB
:108B30002A463946204601F05BFD0646002E01D04C
:108B4000304679E7304677E70146C878042210407E
:108B5000002801D1072070470020FCE710B5302124
:108B60001C48FFF746FB00201A4908701A48007895
:108B7000C87030211948FFF73CFB19481949088093
:108B8000182088801849174881601449486217489E
:108B9000007815490875154840784875134880785D
:108BA00088751248C078C8751148006808600B497C
:108BB000084800F0D3F90F49086000BF0846036871
:108BC000002B05D000BF00221146184600F036F8F1
:108BD00000BF10BDCC20002048200020FC20002039
:108BE000815800002C210020AC2000200220002011
:108BF0001C2000204420002070B586B004460D469D
:108C000018216846FFF7F5FA022168460170002036
:108C100001900021684601720482458273DF064696
:108C200000BF3346002B05D000BF00221146184676
:108C300000F004F800BF06B070BD000000BFBFF335
:108C40004F8F04480449C860BFF34F8F00BF00BF77
:108C5000FEE700000400FA0500ED00E0F8B5054667
:108C60000C462778A068000105490E5860880090DE
:108C70002A463946204608302369B047F8BD00002F
:108C8000AC24002070B503460C4619480068002843
:108C900001D1082070BD002A01D10720FAE7002B7E
:108CA00001D10720F6E700211CE024204843104DA5
:108CB0002D68285C002814D10125242048430C4E3F
:108CC0003668355424204843094D2D6840194470B6
:108CD00024204843064D2D68401982611960002008
:108CE000D8E7491C034800788142DEDB0420D1E745
:108CF0006C20002068200020FFB581B00E4617468A
:108D00001C4620468107890F002901D1012100E07E
:108D10000021002902D1072005B0F0BD002C01D1AF
:108D20000720F9E701F0F8FB26490A980860264871
:108D300006702648046000250CE0002124206843CA
:108D4000224A1268115424206843204A126880186D
:108D500001756D1CB542F0DB24207043041903201B
:108D60001B4908701B480460183400250CE0E9001A
:108D7000184A126888180021017041708770446099
:108D8000182179430C196D1C032DF0DB0020C04322
:108D90001149086000201149087011490870142019
:108DA000FFF770FD03211420FFF78AFD1420FFF761
:108DB00073FD019801F086FB01F07EFB0949086014
:108DC0000020A9E78C200020682000206C200020D3
:108DD00070200020742000207820002088200020AF
:108DE000892000207C200020FEB504460D46164652
:108DF00016480068002801D10820FEBD14480078FC
:108E0000844201D2052D01D20720F6E724206043D9
:108E10000E490968085C012801D00820EDE72420EC
:108E200060430A49096840184078012801D1284662
:108E300000E00020074601F0A1FF3B462A462146FC
:108E40000096019001F0DCFED7E700006C200020C6
:108E50006820002070B504460D480068002801D144
:108E6000082070BD0B480078844201D30720F8E742
:108E70002420604306490968085C012801D00820C5
:108E8000EFE701F07BFF0546214601F0E3FEE8E74E
:108E90006C20002068200020F8B505460C4620789C
:108EA000001D1F2801DD0C20F8BD684679DF06464D
:108EB000002E01D03046F7E703212278501C2070A5
:108EC000A95419212278501C2070A95420784119E6
:108ED0006846008801F049FF217840182070002082
:108EE000E2E7000070B5044649DF002017494860FA
:108EF00020020821084316494860012008601549EE
:108F00000860002014490860002501E0681CC5B213
:108F100011480068002801D1FF2DF7DB00200E4921
:108F2000086001200B4948600020094908604ADFB9
:108F3000074989684B22120151430846FF21FFF778
:108F400015F94100401880B270BD00000073004068
:108F5000007500400070004000710040F3B593B010
:108F60000D460021129111911398002814D01398E6
:108F7000FFF7EAFD0446002C02D0204615B0F0BDF4
:108F800012AA09A91398FFF744FD0446002C01D04A
:108F90002046F3E709AE00E00026002D13D0284656
:108FA00001F01AFC0446002C01D02046E6E711AA85
:108FB00001A92846FFF72DFD0446002C01D02046CC
:108FC000DCE701AF00E0002710A803793A46017AF8
:108FD000304672DFD2E710B50446204600F07AFE34
:108FE00010BD00007FB500BF00234822294908209A
:108FF00001F0B2FB054600BF2B46002B05D000BF99
:10900000002211461846FFF719FE00BF00BF0020DE
:10901000029003906946087202A860DF044600BF10
:109020002346002B05D000BF002211461846FFF74B
:1090300005FE00BF012069460870242068DF044651
:1090400000BF2346002B05D000BF00221146184662
:10905000FFF7F4FD00BF104801F072FB044600BFAB
:109060002346002B05D000BF002211461846FFF70B
:10907000E5FD00BF094801F0A3FB044600BF2346FD
:10908000002B05D000BF002211461846FFF7D6FD81
:1090900000BF7FBD58210020D78F01009DA901008E
:1090A000F0B587B00F27554800781421484353493D
:1090B000091D4418E5682078022804D0042823D02C
:1090C00005287CD16AE0206905904D480088860219
:1090D0006088801B0690059880190590A0888019EB
:1090E0004519012189020698884206D2069882080D
:1090F0002846059929DF074605E0FF220132284668
:10910000059929DF07466FE0A06800013D49401836
:1091100000890690A0680001401840890590A06869
:1091200000014018406804900498A84205D10599B0
:10913000069848436188884202D0A06803280DD170
:1091400000F002FF014603902846FFF70FF82C4974
:1091500009884618304628DF07461EE000F0F4FE76
:10916000014601902846FFF701F8064600F0ECFEA4
:109170007043281A8008039000F0E6FE711C4843F3
:1091800061884919401A8008029031462046029BA6
:10919000039A01F029FB074600BF25E000F0D4FE4A
:1091A000014604902846FEF7E1FF064600F0CCFE9B
:1091B0007043A1884919081A8008069000E012E05F
:1091C00000F0C2FE711C4843A188491962888918C1
:1091D000401A8008059031462046059B069A01F00A
:1091E00003FB074600E000BF00BF002F02D10120B3
:1091F00002498870384607B0F0BD0000E023002027
:1092000058200020AC24002010B5002408484078E5
:1092100000280BDD06488078002807D1FFF740FFC3
:109220000446002C02D0112C00D10024204610BD91
:10923000E02300200023142141430C4A53541421FD
:10924000414389184B8002231421414389188B60C4
:109250000023142141438918CB601421414389180C
:109260000B611421414389188B807047E42300204F
:10927000FFB581B0064617460024224840780A28E8
:109280003CD0204800781F4949784018C4B20A2CC5
:1092900002DB20460A38C4B2142060431949091D74
:1092A0000E54002214206043401842701420604382
:1092B00040180761142060434118029805C8CA602D
:1092C0008860142161430F4A121D89180498488050
:1092D0001421614389180A9888800025101F80781E
:1092E000002805D1FFF7DCFE0546112D00D1002531
:1092F00004484078401C0349487000E00425284693
:1093000005B0F0BDE023002010B50020084908801A
:10931000084908700849087048708870002403E004
:109320002046FFF787FF641C0A2CF9D310BD00000C
:10933000582000205B200020E0230020FEB51E48BE
:109340000068401C002834D01B4800682421484392
:109350001A4909684018456801F0AEF801901848AC
:1093600004682146019801F01FFBC61C15480078CF
:10937000002801D101F0B2F8AE4201D2284600E047
:10938000304604192402240A20460F49086000BF11
:1093900001F092F800900199009801F005FBC71CBC
:1093A0002046019901F000FB874201D901F0C0FC81
:1093B00001E001F0B1F8FEBD782000206C20002013
:1093C0007C200020902000204015014001460888A4
:1093D000062808DB08881922D201904205DD08889A
:1093E000104A904201D0072070474888062808DBC1
:1093F00048881922D201904205DD4888094A9042E6
:1094000001D00720F0E70888064A904208D0488833
:10941000904205D008884A88904201DD0720E3E7A2
:109420000020E1E7FFFF0000F8B506460D461446B0
:109430002078801D1F2801D90C20F8BD3046FFF789
:10944000C5FF0746002F01D03846F6E705212278F0
:10945000501C2070A95412212278501C2070A9544D
:1094600022785119308801F080FC21784018207052
:1094700022785119708801F078FC2178401820700A
:109480000020DAE710B514484068C105C90D00296D
:1094900020D00A46103A50B200280DDA0E4B1C3389
:1094A0000407240F083CA408A4001B598407E40EF9
:1094B000E3401B069B0F0BE0084B032424021B19FF
:1094C0008408A4001B598407E40EE3401B069B0F8D
:1094D000D8B210BD0420FCE700ED00E000E100E0A0
:1094E000014614480078144A127890421DD0114861
:1094F0000078401C0F4A107010460078022801D1F5
:10950000002010700B48007880000C4A105808604A
:109510000B4A086812688018094A106010460068F3
:109520000002000A1060012070470020086000BFA0
:10953000FAE70000882000208920002080200020F9
:109540007C20002010B5029C10BD0000F0B5034641
:10955000002426E0164E366824277E43154F3F68C8
:10956000F01946689E4203D94668F61A46601DE027
:1095700046689B1B466834190026466006750C4EEB
:1095800035680B4F066A3E600669002E08D00E193A
:109590003602360A86600669C6601668066215607D
:1095A00000BF03480068401C0028D3D100BFF0BDB5
:1095B000782000206C200020FEB5002501203549D0
:1095C000C8630020102302460421009001F056F8E1
:1095D000082001218140304A916000BF00BF02A9EC
:1095E000042001F07FF80028F9D12C480021016007
:1095F00041608160C1602A48016041608160C16052
:1096000000261EE002A9042001F06CF8002816D004
:109610006846027A2846691CCDB220490A54681E61
:10962000085C0A2801D0102D09DB1D480830831E74
:10963000021F1CA100901948FEF7E6FD03E0701C14
:10964000C6B2322EDEDB00BF00201249C8630820FC
:1096500000F038FB01A852DF154800681049086087
:109660001020FFF73FFC0E4948810198C860002395
:109670001022104800F0D4FD044600BF2346002B02
:1096800005D000BF002211461846FFF7D7FA00BFE9
:10969000FEBD0000C02F0040000500503821002012
:1096A000482100202568782568782568780A000018
:1096B0001C20002034200020F8B52948007800281C
:1096C00000D1F8BD27480068002801D1012000E042
:1096D0000020054624480068002801D1012000E050
:1096E0000020064600BF002D14D1684651DF044615
:1096F000052C01D101250CE0002C06D000BF002272
:1097000011462046FFF79AFA03E0164900980968C7
:10971000884700BF002E1AD114480088009069467F
:109720001348006861DF0446052C01D101260DE0D5
:10973000002C06D000BF002211462046FFF77EFA1B
:1097400004E00B48006808490968884700BF002DFD
:1097500002D0002E00D000E0C5E700BF00BFB0E798
:1097600098200020A8200020A4200020A020002075
:109770009C2000200C48008CC0B2012812D10A485D
:10978000808C0007000F00280CD10748806AF02168
:109790000840402806D10448C06A0840002801D18A
:1097A000012070470020FCE7C00F00F01948008C32
:1097B000C0B201282CD11748808C0007000F002868
:1097C00026D11448806AF0210840002806D11148AB
:1097D000C06A0840002801D1012070470D48806A06
:1097E000F0210840102806D10A48C06A0840002825
:1097F00001D10120F1E70748806AF02108403028B4
:1098000006D10448C06A0840002801D10120E4E7DD
:109810000020E2E7C00F00F001468807800F002813
:1098200001D1012070470020FCE70000FEB52B4865
:10983000006801902A480078009040E00098C0003D
:10984000284909684418257835E01820684361687C
:109850000F18681CC5B2A078A84200D1002538783E
:10986000022802D0032823D10EE02421786848433F
:109870001D4909684618307D002804D0786801F039
:1098800059F90020307514E00CE0144909682422CD
:109890005143154A12688818002101750F4A016A60
:1098A000116000BF0D480068401C0028EDD100E0A9
:1098B00000BF00BF00BF6078A842C6D100BF0098BB
:1098C000411EC9B200910028B8D10448016801982E
:1098D000814201D00120FEBD0020FCE7782000205D
:1098E00070200020742000206C200020FEB5074668
:1098F00043480068029043480078019071E0019865
:10990000C00041490968451863E0781C002807D069
:109910003E46242070433D4909684418276A29E0DF
:109920002978182359436A6850182978491C2970E6
:109930002978AA78914201D1002129704668242112
:109940007143324A12688C180178012902D1217DB5
:10995000002900D03DE08168A160C168E160016933
:1099600021614169E1612A490978002901D000217A
:10997000A16000BF2749A0680968401A0002000AD8
:109980002549884208D22349A068096801F00CF8EB
:10999000E1684018606011E01E48A168006801F0AD
:1099A00003F80090E1680098814204D9E1680098CA
:1099B000081A606001E00020606000BF0020A06025
:1099C000E06001202075801E2062304601F044F8DE
:1099D00000BF781C002898D128786978884294D1F3
:1099E00000BF0198411EC9B20191002887D10448E7
:1099F00001680298814201D00120FEBD0020FCE7F1
:109A00007820002070200020742000206C2000208E
:109A1000912000207C200020FFFF7F000EB500BFBA
:109A200000204D4B052203210090FFF765F9054604
:109A300000BF2B46002B05D000BF00221146184660
:109A4000FFF7FCF800BF00BF444A01214448FFF77C
:109A500019F9044600BF2346002B05D000BF0022A1
:109A600011461846FFF7EAF800BF3E4A00213E487B
:109A7000FFF708F9044600BF2346002B05D000BFBE
:109A8000002211461846FFF7D9F800BFFFF7AAFADF
:109A9000042077DF044600BF2346002B05D000BF1B
:109AA000002211461846FFF7C9F800BF0320052120
:109AB00009070722120289180862082000F002F93B
:109AC000C82000F0DDF800F045FA10216846018159
:109AD0008021418125480190254901A800F0FEFA26
:109AE000044600BF2346002B05D000BF00221146CC
:109AF0001846FFF7A3F800BF00201E4908601E4962
:109B00000860012189021A4800F0B2F9044600BF3A
:109B10002346002B05D000BF002211461846FFF750
:109B20008DF800BF0020C0431449086000220121C5
:109B3000C9030B480068FFF757F9044600BF48DF28
:109B4000044600BF2346002B05D000BF002211466B
:109B50001846FFF773F8F2E7A0210020F5AE0100E8
:109B600040200020D5AE01003C200020459501009A
:109B7000242000202C200020302000201C20002049
:109B8000F8B505460E4614462879801CC7B22078E1
:109B9000801CC0191F2801DD0C20F8BD781CC1B243
:109BA0002278501C2070B154FF212278501C207064
:109BB000B15422789119288801F0D7F821784018FB
:109BC0002070A88800280EDDA868002801D1072091
:109BD000E3E7AA8823789819A968FEF7F1FA2078B4
:109BE0002979401820700020D7E7F7B584B00446E3
:109BF0000F4606980678B01C1F2803DC6078801C8E
:109C00001F2802DD0C2007B0F0BD1F20801B801E26
:109C100085B20295B11C781802A97DDF03900398E4
:109C2000002801D00398EEE72078022808D1684682
:109C30000089A84204DC09200190684605890BE0F0
:109C4000082001906078002804D06078A84201DCE8
:109C5000657801E068460589681CC2B23046711C0F
:109C6000CEB23A543046721CD6B201993954069895
:109C70000178A81C0818C1B2069801700020C2E73C
:109C800001B505E00098401E00900348FEF732FA47
:109C900000980028F6D108BDE703000010B58A003F
:109CA00005231B07072424021B1984001A5110BD29
:109CB00003210522120707231B02D2188300D1506B
:109CC0007047000001218140014AD16070470000C7
:109CD0000005005070B5054628881E286DD1287AE9
:109CE000582869D1687A812866D135480068354995
:109CF0000968884257D2324800784106490E324AF4
:109D0000324800F06DF8044600BF2346002B05D012
:109D100000BF002211461846FEF790FF00BF002347
:109D2000102229492A4800F063F92648008824496E
:109D30000988401A2649091F4882FEF70FFF20486C
:109D40000068401C1E490860084600681D490968F3
:109D5000884209D374DF04461E480068FFF77AF88A
:109D600000201D49088027E01A480068FFF772F8B4
:109D700000221A4917480068FFF736F8164800888D
:109D8000C82819DD0F4800680D490968401A1028D5
:109D900012D974DFA0201049088064210E48008881
:109DA000FEF72AFF08E074DF04460A480068FFF760
:109DB00051F800200849088000E000BF00BF70BDD6
:109DC000302000202C2000203420002024200020DF
:109DD000B02000203C20002000200020CD8C00007E
:109DE0003CB5034600BF20480078002801D1082078
:109DF0003CBD00BF002B01D10E20F9E7002A01D1A4
:109E00000E20F5E71868022805D218680001174CE3
:109E10002058002801D10720EAE75C6818680194FF
:109E20000090019C18680001104D401900894843BA
:109E300020180190009800012C4600194089009CD0
:109E40002401641924896043009C24016419646816
:109E50000019019CA04201D80720C9E7019C009885
:109E6000546010600020C3E75A200020AC2400207A
:109E7000F8B504460D4600BF27480078002801D1F8
:109E80000820F8BD00BF002C01D10E20F9E72068A2
:109E9000022805D22068000120490858002801D175
:109EA0000720EEE7206800011C494018408921681E
:109EB00009011A4A89180989484321680901891842
:109EC000496840186168884201D80720D9E760686E
:109ED000FFF7A2FC002801D11020D2E723681B0164
:109EE0000E4FDB1962685B68D01A226812013B468C
:109EF000D2181189FEF73AF9002901D00720C0E7EE
:109F000000202B460246214600900420FFF7B0F9BE
:109F100006463046B5E700005A200020AC24002059
:109F200070B508484469601C002807D000F00CF8A0
:109F3000054629462046FEF719F970BD01200007A5
:109F40004069FAE70010001001200007006980B2A4
:109F500070470000F8B5FFF7D7F900201D490880C9
:109F6000FFF7DEFFC51EFFF7EFFF45431A48056008
:109F700000201A49088000BF0DE000210201184BA3
:109F800099500201D21811810201D2189181020167
:109F9000D2185181401C0228EFD3082011490870C3
:109FA000FFF7D2FF0090FFF7BBFF471EFFF7CCFF84
:109FB00047433E4630460099FEF7D8F8054628DF6D
:109FC0000446002C04D10120074988700749087015
:109FD0002046F8BD502000205420002058200020AA
:109FE000AC2400205B200020E02300205A20002029
:109FF000FFB581B00C4615461E4600BF35480078B7
:10A00000002802D1082005B0F0BD00BF002C01D10E
:10A010000E20F8E70198002801D10E20F3E7206810
:10A02000022805D2206800012B490858002801D1D8
:10A030000720E8E720680001274940184089216887
:10A040000901254A891809894843216809018918A5
:10A05000496840186168884201D80720D3E7002D7D
:10A0600006D0206800011C4940180089A84201DA86
:10A070000720C8E7A81921680901174A8918098922
:10A08000884201DD0720BEE70198FFF7C5FB0028E5
:10A0900004D03046FFF7C0FB002801D11020B2E702
:10A0A0006068FFF7B9FB002801D11020ABE76068BA
:10A0B00081192A460198FEF783F80095206800016F
:10A0C00005490F58002203212046019BB847002074
:10A0D00099E700005A200020AC240020F8B504467F
:10A0E0000D4600BF4A480078002801D10820F8BD7D
:10A0F00000BF002C01D10E20F9E7002D01D10E2068
:10A10000F5E72068002801D10E20F0E7FFF71CFFDB
:10A11000A188884202DBA088102801DA0720E6E740
:10A12000E08800281CD0FFF7FBFE471EFFF70CFF5E
:10A130004743E088A1884843364909684018874268
:10A140000ED3FFF701FFE188A2885143884209DA64
:10A15000FFF7FAFE0746A188FEF71EF8002901D096
:10A160000720C4E720798007800F002801D007204E
:10A17000BDE729480088022801D10420B7E7264816
:10A18000008828602348006868602349098809011D
:10A19000224A8918686848601F49098809012068AF
:10A1A0005050A0881C490988090189180881E08855
:10A1B0001949098809018918488100200090A6885A
:10A1C000E1884E4300BF0098401C80B20090FFF72A
:10A1D000BBFEB04203D2FFF7B7FE361A00E00026FE
:10A1E000FFF7B2FE0B49096840180A490860002EC3
:10A1F000E9D1094909880901084A89180098888124
:10A2000005480088401C0449088000206FE70000D2
:10A210005A2000205420002050200020AC24002090
:10A22000F8B504460E4615461F4600BF2F48007875
:10A23000002801D10820F8BD00BF002E01D10E205A
:10A24000F9E7002C01D10E20F5E72068022805D29D
:10A250002068000126490858002801D10720EAE7B4
:10A260002068000122494018408921680901204ADC
:10A2700089180989484321680901891849684018E3
:10A280006168884201D80720D5E7002D06D02068F4
:10A290000001174940180089A84201DA0720CAE7DF
:10A2A000E81921680901124A89180989884201DDE3
:10A2B0000720C0E73046FFF7AFFA002804D0384641
:10A2C000FFF7AAFA002801D11020B4E76068FFF771
:10A2D000A3FA002801D11020ADE72B4632462146D3
:10A2E00002200097FEF7C4FFA5E700005A200020D7
:10A2F000AC240020F0B585B0064600256A48807879
:10A3000001287DD1002068498870684800780828B5
:10A3100019D1022E03D100206449087002E0002008
:10A3200063490870FEF770FF0546002D09D05E48AE
:10A330000078142250435C4A121D81182846FEF70B
:10A340008DFC05B0F0BD022E02D0032E7ED183E03D
:10A3500055480078142148435349091D441855486D
:10A360000088401C534908802078022807D10846FD
:10A37000008880026188884201DB012000E0002023
:10A3800003902078052805D148480078072801D196
:10A39000012000E0002002902078042805D14348E5
:10A3A0000078072801D1012000E0002001902078EA
:10A3B00004280BD13F48008880026188884205DB71
:10A3C0003A480078002801D1012000E000200090E8
:10A3D0000298002808D10198002805D1009800288B
:10A3E00002D10398002825D02F48077800202F4954
:10A3F0000870304908802C484078401E2A4900E007
:10A4000050E0487008460078401C08700846007804
:10A410000A2803DB084600780A38087014207843BD
:10A42000214A121D81182846FEF718FC3846FEF70F
:10A4300001FF00BFFEF7E8FE0546002D0BD01A48CD
:10A44000007814225043184A121D00E027E08118BA
:10A450002846FEF703FC23E0134800781421484304
:10A460001149091D44186078401CC0B2607003286F
:10A4700009D1081F0078142250430A4681180D2084
:10A48000FEF7ECFB0AE0FEF70BFE0546002D05D0BB
:10A49000112D03D021462846FEF7E0FB00E000BF67
:10A4A00000BF00BF00BF4CE7E02300205B2000207E
:10A4B0005A200020582000200148406870470000C2
:10A4C0000015014010B504460348846003211120A3
:10A4D000FEF7F6F910BD00000015014010B501208F
:10A4E00000040A4948600949403948601120FEF7D4
:10A4F000C9F91120FEF7D0F90120054908602F2085
:10A50000FDF708FE01200349087010BD401301400B
:10A51000001001409020002010B511200121814041
:10A520000E4A116000BF012000040D4988600C49EB
:10A530004039886001200B4948602F20FDF7EAFD73
:10A540000120084988600020074908602F20FDF796
:10A55000E1FD00200549087010BD000080E100E029
:10A5600040130140001001407C200020902000207A
:10A57000F0B502460C46002037E00123834019461F
:10A5800023460B40002B2FD0D5680D40002D05D160
:10A5900001235B04D5680D43D56004E003231B044D
:10A5A000D5688D43D56005252D0707263602AD19E0
:10A5B0008600AD5903263604B5430526360707271E
:10A5C0003F02F6198700F55105252D0707263602AB
:10A5D000AD198600AD591D430526360707273F02F2
:10A5E000F6198700F55100BF401C2028C5D3F0BDE7
:10A5F000FEB507460E461446B86A002801D107206A
:10A60000FEBD0020019032E0B96A0C22019850434F
:10A610000D182879801CC0B200900098401CC1B26F
:10A620002278501C2070B15416212278501C2070C2
:10A63000B15422789119288800F097FB21784018AE
:10A640002070A88800280EDDA868002801D1072006
:10A65000D6E7AA8823789819A968FDF7B1FD207874
:10A660002979401820700198401CC0B201902C201C
:10A67000C15D01988142C7DC0020C1E7F8B50746FB
:10A680000C4615461E462046FFF712FB00213046B9
:10A69000FFF704FB1048C4604661069800280DD0FF
:10A6A0003846FFF705FB00212846FFF7F7FA0A486E
:10A6B00005618760012008494031C8624F200003CE
:10A6C0000549486204200860012004498860086048
:10A6D000002003498860F8BD0025004000200040AC
:10A6E0000021004070B504460D4601260AE02046D0
:10A6F000641E002804DB7D20C000FDF7EBFC01E0B8
:10A70000002603E0074880680128F0D100BF002C34
:10A7100005DB0020034988600348806928703046C3
:10A7200070BD0000002100400025004070B50646C5
:10A730000C46154629462046C046C04670BD00005E
:10A740000146002901D10E20704702480160002017
:10A75000FAE70000A4200020FFB581B00C461646A1
:10A760001F46002C02D1072005B0F0BD204681070E
:10A77000890F002901D1012100E00021002901D128
:10A780000720F1E709480460094806800948076086
:10A790000949019810DF0546002D01D02846E3E75E
:10A7A00001200649087016202EDFDDE79C200020DE
:10A7B000A0200020942000202DA701009820002038
:10A7C0000146002901D10E20704702480160002097
:10A7D000FAE70000A82000200146C878002801D030
:10A7E000072070470020FCE7FFB583B004461546FC
:10A7F00003266948007800280BD1002D06D1069861
:10A80000002803D102206449087002E00120624957
:10A810000870614800780300FEF7DEF807B80520ED
:10A820003D6186A1B800FFF78FFB80080290FFF71B
:10A830008BFB049948430190FFF772FB471EFFF71B
:10A8400083FB474300973846029A019929DF064661
:10A85000002E02D102205049087098E0049828DFA9
:10A860000646002E16D1002D11D1069800280AD1D7
:10A870002078042803D10720474908700AE0052002
:10A880004549087006E004204349087002E00320AF
:10A89000414908707BE0FFF743FB471EFFF754FB7D
:10A8A00047430297FFF750FB049948432A4601901B
:10A8B000029929DF0646002E10D1069800280AD1F9
:10A8C0002078042803D106203349087006E00520CB
:10A8D0003149087002E004202F49087057E0FFF763
:10A8E0001FFB471EFFF730FB4743A800381861885D
:10A8F00040180290FFF728FB04994843A90040182C
:10A90000618840180190069A029929DF0646002EB8
:10A9100009D12078042803D106201F49087002E0DD
:10A9200005201D49087032E0FFF70EFB04994843EB
:10A93000A9004718608882083846216929DF064641
:10A94000002E0BD1002D06D10698002803D1072038
:10A950001149087002E006200F49087017E0FFF760
:10A96000F3FA0190FFF7DCFA471EFFF7EDFA4743D1
:10A97000009738460199FDF7F9FB029028DF06465B
:10A98000002E02D107200449087000E000BF00BF7C
:10A99000304607B0F0BD00005B20002010B5044633
:10A9A0002046FFF7A7FC10BD0246501A0002000A1D
:10A9B0007047000070B504460D480068002812D0AA
:10A9C0000B4AE169A06912689047054600BF2E4610
:10A9D000002E06D000BF002211463046FEF72EF9A9
:10A9E00000BF00BF02E0A169E069884770BD0000B8
:10A9F0008C200020FEB50020C04301901048046860
:10AA0000104807686846FEF76BFD0546FEF70EFF27
:10AA10000646002D05D001AA21460098FEF796FDB6
:10AA200001260198FEF762FF002800D00126002EC3
:10AA300002D03846FEF782FC002003490870FEBDB4
:10AA40007C200020782000209120002010B51420C8
:10AA5000FDF72CFF10BD0000F0B502462420504346
:10AA6000324B1B68C11832480068401C002802D1D4
:10AA70002F48026059E02E484B6800682424604348
:10AA80002A4C246800194068834217D82848006877
:10AA900024235843254B1B68C01840684B68C31AD1
:10AAA0002348006824246043204C24680019436034
:10AAB0001F48006808621E48026036E04B681C4D63
:10AAC0002C6828680DE024254543184E3668AD19DA
:10AAD0006D685B1B044624254543144E3668AD194A
:10AAE000286A451C002D07D0242545430F4E3668A3
:10AAF000AD196D689D42E6D3451C002D0CD0242570
:10AB000045430A4E3668AD196D68EE1A2425454353
:10AB1000064F3F68ED196E604B600862242565435F
:10AB2000024E3668AD192A6200BFF0BD6C200020CD
:10AB30007820002070B502462C4C2168084609E0B8
:10AB4000904200D109E0014624244443284D2D6859
:10AB50006419206A441C002CF2D100BF441C002C54
:10AB600000D170BD814217D1204C246824256C434C
:10AB70001F4D2D686419246A1C4D2C602C462468D6
:10AB8000641C002C08D101241A4DAC6000241A4D1D
:10AB90002C600124194D2C7024244443144D2D683D
:10ABA0006419636824244443114D2D686419256A8F
:10ABB00024244C430E4E3668A419256224244C43A9
:10ABC0000B4D2D686419206A441C002C0CD02424E1
:10ABD0004443074D2D6864196468E51824244443F0
:10ABE000034E3668A419656000BFBAE778200020DC
:10ABF0006C200020001001407C20002091200020CB
:10AC0000FFB581B005460E461746E900104A1268A6
:10AC10008818694600F0C3F80446002C02D10420CD
:10AC200005B0F0BD012020706660FFF745FCA06014
:10AC3000E760049820610A986061E900044A12689C
:10AC40008818009900F0C1F8FFF700FF0020E7E73F
:10AC500074200020F8B504460E46E1000C4A126844
:10AC60008818694600F09BF80546002D01D10420A4
:10AC7000F8BD022028706E60E100054A126888184D
:10AC8000009900F0A2F8FFF7E1FE0020F0E70000D5
:10AC900074200020F8B520480068401C00283AD0F5
:10ACA0000027FFF709FC04461C4801682046FFF70F
:10ACB0007BFE06461848056811E0242068431849C1
:10ACC000096844186068B04200D90BE06068361A21
:10ACD0006068C719256A2046FFF76CFE00BF681C34
:10ACE0000028EAD100BF0F4800780F490978884250
:10ACF00009D10D480078401CC0B20B4908700228E9
:10AD000001D10020087008480078800007490F50E2
:10AD1000FFF79CFE00BFF8BD782000207C200020BB
:10AD20006C20002088200020892000208020002026
:10AD300010B51120FDF7BAFD10BD30B503461078EF
:10AD4000C01C1F2801DD0C2030BD02241578681CB2
:10AD500010704C550A241578681C10704C551578E5
:10AD6000681C10704B550020EEE702460A70FF2069
:10AD700000021040001248700220704710B5FEF724
:10AD800081FB012802D0032804D101E0002403E064
:10AD9000012401E0022400BF00BF204610BD70B5B1
:10ADA00002460B465078411C9078884200D1002121
:10ADB0001078884201D1002070BD196050781826A3
:10ADC000704355682C182046F6E741707047FFB570
:10ADD00081B0074615460A9E009602223846049B1B
:10ADE000029900F014F80446002C02D0204605B069
:10ADF000F0BD0096102229463846049B00F007F863
:10AE00000446002C01D02046F1E70020EFE7FFB513
:10AE100087B006461D46109C0020069020780590BD
:10AE2000002747E0B900706841180A886846028127
:10AE300049884181002203A902A865DF0490049893
:10AE4000002802D004980BB0F0BD6846017B099839
:10AE500081422ED10698002801D0002000E0022077
:10AE6000019020786946097B4118019808181F282D
:10AE700001DD0C20E7E70698002809D12078401C66
:10AE800020702278511C08982170A8540120069047
:10AE90002078421903A902A865DF049004980028CD
:10AEA00001D00498CFE720786946097B40182070CC
:10AEB00000BF7F1C3088B842B4DC0698002806D05A
:10AEC00021780598401C081AC1B205982954002021
:10AED000B9E7000010B5044674DF19208001044969
:10AEE00008800A2102480088FDF786FE10BD000098
:10AEF0000020002070B505463B480068401C3A49D8
:10AF000008603A48016838480068FDF72FF90029C1
:10AF100061D1374800784106490E364A3648FEF777
:10AF20005FFF84B200BF2346002B05D000BF002284
:10AF300011461846FDF782FE00BFFEF73DFB2C4888
:10AF40000068401C2A490860084600784106490EFE
:10AF5000284A2948FEF744FF84B200BF2346002B4D
:10AF600005D000BF002211461846FDF767FE00BF5E
:10AF7000204880888005800D002820D10121890289
:10AF80001C48FEF775FF00BF2346002B05D000BF0D
:10AF9000002211461846FDF751FE00BF1448007804
:10AFA0004006C00F154909784906C90F884206D1E5
:10AFB000124800688009401C800110490860FDF7B4
:10AFC000CDFD192080010E4908800A210C48008817
:10AFD000FDF712FE07E00A4800881921890188421E
:10AFE00001DBFDF7BBFD70BD1C20002018200020F8
:10AFF0002C2000203420002024200020302000209D
:10B0000000200020DDDDDDDDDCBBBBDDDDDDDDDDE9
:10B01000DDDDDDDD98888888888888887777777790
:10B02000778888888555555666666666666666665C
:10B030006668888883333332222222222222222207
:10B040002228888D64B0010000200020AC000000A0
:10B05000F489010010B10100AC200020240C000094
:10B06000048A0100400635543A0000000000000048
:10B070000000000000000000B0040000000100001B
:10B0800000000000000000000000000000000000C0
:10B0900000000000000000000000000000000000B0
:10B0A000000000000000000000000000060000009A
:10B0B0000024F40000000000000000000000000078
:10B0C0000000000000000000000000000000000080
:10B0D0000000000000000000000000000000000070
:10B0E0000000000000000000000000000000000060
:10B0F0000000000000000000000000000000000050
:10B10000000000000000000000000000000000003F
:04000005000180C1B5
:00000001FF
