:020000040001F9
:10800000683C0020158101002F81010031810100B1
:108010000000000000000000000000000000000060
:10802000000000000000000000000000338101009B
:1080300000000000000000003581010037810100D0
:108040003981010039810100398101003981010044
:10805000398101000000000005880100398101001C
:108060003981010039810100398101003981010024
:108070003981010039810100398101003981010014
:108080003981010001890100398101003981010034
:1080900021890100758901008D8901003981010064
:1080A000398101003981010000000000000000005A
:1080B00000000000000000000000000000000000C0
:1080C0000348854600F0D8F900480047ED950100C7
:1080D000683C0020401E00BF00BF00BF00BF00BFC3
:1080E00000BF00BF00BF00BF00BF00BF00BFF1D195
:1080F00070470000401E00BF00BF00BF00BF00BFB0
:1081000000BF00BF00BF00BF00BF00BF00BFF1D174
:10811000704700000321094802680A4302600848CA
:1081200002680A4302600748804707480047FEE7A5
:10813000FEE7FEE7FEE7FEE7FEE70000240500405D
:1081400054050040B1890100C180010030B50B46E3
:10815000014600202022012409E00D46D5409D4221
:1081600005D31D469540491B2546954040191546A7
:10817000521E002DF1DC30BDF0B51FB406460020C4
:1081800082B005464024019100901BE001992246EF
:108190000F46304600F017F9049A059B801A994162
:1081A00010D310461946224600F0FDF8361A8F41CA
:1081B0000197224601200021009F00F0F4F83818B2
:1081C0004D4100902046641E0028DFDC019B009892
:1081D0002946324607B0F0BD03460B439B0703D048
:1081E00009E008C9121F08C0042AFAD203E00B787C
:1081F0000370401C491C521EF9D27047D2B201E0F4
:108200000270401C491EFBD270470022F6E710B5F1
:1082100013460A4604461946FFF7F0FF204610BDF4
:108220000FB400B58DB009900B9010A900200091FB
:10823000C0430A9000200C9006480690064807901C
:108240006A4609A80F9900F0E5F80DB008BC04B023
:10825000184700003584010055840100FFB5002750
:10826000FF4383B000205C6801909E681D46A969A9
:108270007F1C049888470090296A88470028F6D117
:108280000098401C0CD0032040028443002E19DDCE
:10829000600614D500982B2809D02D280FD103E0B3
:1082A0000020C04307B0F0BD012080020443A9694B
:1082B0007F1C04988847761E0090002E02DD0098EF
:1082C000302803D00598002825D035E00120400251
:1082D0000443A969761E7F1C049888470090002EED
:1082E00003DD782805D0582803D00598002810D041
:1082F00022E00598002801D010281DD1012040025D
:108300008443A969761E7F1C04988847009010203A
:1083100002E0082000E00A2005900DE0012149025A
:108320000C43059A0199761E514308180190A969DA
:108330007F1C049888470090002E05DD0599009861
:1083400000F052F80028E9DAE96904988847A005A6
:1083500002D40120C043A5E7E00722D1600611D571
:108360006005019800D5404229680A1D2A60096805
:10837000220501D5087014E0220701D5088010E01D
:1083800008600EE02868011D29600068210502D5FB
:108390000199017005E02107019901D5018000E0F4
:1083A000016038467EE710B5202A04DB0146203AFA
:1083B0009140002010BD914020239C1A0346E340C9
:1083C0001943904010BD10B5202A04DB0846203A1E
:1083D000D040002110BD0B46D340D0402024A21A2B
:1083E00091400843194610BD3A2800D23038202366
:1083F00002469A43412A01D310463738884201D3B6
:108400000020C043704700000268137851180160D3
:108410001846704710B5D160044951610449116292
:1084200000211161114600F041F810BD09840100DE
:108430009D8401004268002A08D001680B78491C1D
:10844000002B03D0521E06C0184670470121C160A0
:10845000881E70474268002A0BD0C3680168002B51
:1084600007D183688B4204D0491E521C06C00020ED
:1084700070470020C0437047064C0125064E05E0BA
:10848000E36807CC2B430C3C98471034B442F7D335
:10849000FFF71AFE88A70100A8A7010010B50F2159
:1084A000C0B2490200F09CF910BD0000F3B58DB0D8
:1084B00000200A9001200B90002608460C300C4644
:1084C0000990626901210998904705002ED0252D59
:1084D0002DD0216A8847002818D0626901210998A7
:1084E0009047216A88470028F7D1411E62690998A0
:1084F000904700E0761CA1690D988847216A88475B
:108500000028F7D1E1690D988847DAE7A1690D984D
:1085100088470746A84201D1761CD2E7E1690D9849
:1085200088477F1C02D10A98002877D046E10027AF
:1085300062693D463946099890472A280CD16269FC
:10854000012109989047012506E00A214F433F1871
:10855000303FEBD410200543626901210998904710
:10856000014630390A2903D29A498F42DEDCECE712
:10857000E90600D4984F6C280AD04C2810D06828FF
:1085800024D06A282ED074280CD07A280AD00DE086
:1085900062690121099890476C2823D004211CE0CE
:1085A000202005436269012109989047A760656012
:1085B00065284FD026DC582839D01ADC452849D008
:1085C00012DC252834D04128B0D143E06269012172
:1085D00009989047682802D008210D43E6E701205A
:1085E000C002DEE70220DCE7462833D047282CD142
:1085F00030E05B287BD061282CD0632877D06428BA
:1086000023D15EE06F284CD009DC662822D0672891
:1086100020D0692826D06E2817D12EE0CAE0702815
:108620004AD073286CD075284BD078280DD150E0F3
:10863000A1690D9888470546252800D16CE7E169B6
:108640000D9888476D1C00D16DE7B7E00A2248E01D
:108650000A224FE0012023466A46C0430D99C046D6
:10866000C046A0E02846402108436060A807234692
:1086700001D5002235E000223CE02068011D216088
:108680000068290501D506701BE7290701D506807A
:1086900017E7A90703D5F1170660416011E70660E7
:1086A0000FE72846402108436060A807234601D50C
:1086B000082216E008221DE048492846084060606C
:1086C00016E02846402108436060A8072346BFD52E
:1086D000BCE72846402108436060A80708D5234628
:1086E00010220120C0430D99C046C0465BE007E060
:1086F000234610220120C0430D99FFF7AFFD52E041
:1087000000210C910B460091632802D05B2807D012
:1087100043E0E80601D40120A060012000903CE085
:1087200062690121099890475E2805D101200C90CB
:1087300001466269099890472169002906D10B46D4
:1087400001AA8F00491CD3510829FADB002835D033
:10875000216900290ED1C117C90E09184A119300C9
:1087600001AA9A1849094901411A01201368884051
:108770000343136062690121099890475D28E5D1A0
:108780000C98002808D0002001AB81005A58401CEA
:10879000D2435A500828F8DB01AB01202246C043DF
:1087A0000D99C046C04600280ADA401C06D10B9835
:1087B000002803D00020C0430FB0F0BD0A98FBE7AB
:1087C000E90702D10A99491C0A91361800200B903A
:1087D00077E60000CCCCCC0CFFFFFF7FF1F7FFFF6A
:1087E0007F2801D9002207E0054B42089A5CC007A8
:1087F00000D112091207120F012090400840704763
:1088000048A70100F0B52A4885B00469294800212D
:10881000C1630E46284F45E014207968704345181F
:108820000120B968B04008423AD00020009003907F
:10883000E8682968C0436040084001460290284625
:1088400001F0C6FB1A48006929686040084016D04C
:10885000224642400192E868C04350400840014629
:108860000090284601F0B4FB019A0098A968904353
:1088700001400391009869680240114000910298FC
:10888000A968A04301400398029A01436868224006
:108890001040009A104302460A4301D02A699047CB
:1088A000761CF6B278788642B6D305B0F0BD0000EB
:1088B0000005005040610040582000208307FF223F
:1088C000DB0E9A408907090E994000280BDA000751
:1088D000000F0838830808489B001818C3699343A1
:1088E0000B43C3617047830804489B001B1818683A
:1088F000904308431860704700ED00E000E400E09A
:1089000010B506490020086048608860C8600349C7
:1089100040390860486001F049FD10BD4011014038
:10892000FEB50020C043124D029068690190684670
:108930002E6900F0E1FC074600F096FD0446002F8A
:1089400008D002AA0199009800F0F8FC029800F003
:10895000D5FD06E0029800F0D1FD002801D1002CE1
:1089600002D0304600F034FC00206871FEBD0000EB
:1089700064200020044901220878504008704968AA
:10898000002900D0084770474420002010B5074850
:108990004068002807D08047002803D000221146F5
:1089A00000F05EF910BD00F0F5FC10BD882000203D
:1089B00010B500F02FFD002805D00E490C48486086
:1089C000C8130D4988610D48018CC9B201290ED127
:1089D000818C09070BD1018D0906090F042906D1E5
:1089E000808D0006000F02D105490120886010BD6E
:1089F000DFFF07C000050040006C0040C00F00F022
:108A00000006004030B47446641E2578641CAB42F6
:108A100000D21D46635D5B00E31830BC184702E0DE
:108A200008C8121F08C1002AFAD1704770470020F9
:108A300001E001C1121F002AFBD17047F7B582B0D7
:108A400000260546167000781446002805D02846F2
:108A5000039900F0E1FE060008D1A87800281ED096
:108A60002078039F001D1F2802D90C2005B0F0BDFF
:108A7000684679DF0028F9D121780322481C20704C
:108A80007A5421781922481C20707A542078C11910
:108A90006846008801F0CAFC217840182070E87808
:108AA0000223002810D02078039A411C217013540F
:108AB00020780399471C012227700A542078EA780D
:108AC000471C039927700A546868002815D00021B4
:108AD000415620788C460246C01C03991F28C4D8F2
:108AE000501C20708B5422780A23501C20708B5409
:108AF00020786246431C23700A542889002809D034
:108B000028460094062202210830039B01F0D0FC85
:108B10000600ABD1288A002809D0284600940722F5
:108B200003211030039B01F0C3FC06009ED1288B6B
:108B3000002809D028460094152214211830039BE0
:108B400001F0B6FC060091D1286A002805D0224623
:108B5000039900F08FFB060088D1686A002805D0D1
:108B60002246039900F026FE060084D12C20405DA9
:108B7000002806D022462846039901F04BFA060049
:108B8000C7D1304672E7000070B530211E48FFF7AC
:108B90003CFB1D480121017010211C4D41702978BA
:108BA000C17030213030FFF730FB174E68886036D7
:108BB00030801820B080164C1921B4608901E86813
:108BC000FFF7C4FA696940182060304630384662C1
:108BD00035202075542060754D20A0753A20E07531
:108BE000A888608131463039074800F075F9A861DE
:108BF000002807D0BFF34F8F07490648C860BFF36E
:108C00004F8FFEE770BD00009C2000200020002058
:108C1000B02300200400FA0500ED00E030B587B075
:108C20000C46054618216846FFF7EFFA02206A460F
:108C3000107000200190107215825482684673DF14
:108C4000002807D0BFF34F8F04490348C860BFF323
:108C50004F8FFEE707B030BD0400FA0500ED00E0DD
:108C6000BFF34F8F03490248C860BFF34F8FFEE741
:108C70000400FA0500ED00E038B50C46A268064B8A
:108C800012019D58097862880092024620460830F9
:108C90002369A84738BD0000A42B002070B5114CF3
:108CA000A568002D06D0002A06D0002804D0002395
:108CB000247809E0082070BD072070BD24265E439B
:108CC000AE5D002E04D05B1CA342F7DB042070BD18
:108CD000242401265C432E5564196170A26103604F
:108CE000002070BD64200020FFB59807002481B0EB
:108CF0001E4615460F4600280BD1002E09D001F064
:108D000045F922490A9888610F70324600208E602A
:108D100008E0072005B0F0BD24234343D4549B183A
:108D20001C75401CB842F7DB24204743BB190320C5
:108D300048700F461846CB60194618300022182399
:108D40002E465E43D3005B181C705C709D705860AB
:108D50003018521C032AF5DB0020C0433861BC7078
:108D6000FC7001240A482405046003211420FFF745
:108D7000A5FD08480460084C0198A060032111205B
:108D8000FFF79CFD606878610020C3E76420002045
:108D900080E200E000E100E000150140FEB504467D
:108DA0001D48174682680D46002A0CD001788C4277
:108DB00001D2052D01D20720FEBD214624235943AF
:108DC000535C012B01D00820FEBD88184078012893
:108DD0001DD0002601F030FBC0000F490190C9688A
:108DE0004018694601F052FB002812D001210170A1
:108DF0000A49446049680830E2C007490198C968D7
:108E000041180098487001F05FFA0020FEBD2E4620
:108E1000E0E70420FEBD00006420002000150140B2
:108E2000F8B5144D0446A868002809D029788C426A
:108E300001D30720F8BD24216143405C012801D003
:108E40000820F8BD01F0F8FAC600E8686946301855
:108E500001F01CFB00280AD0022101704460E86880
:108E600031180098487001F02FFA0020F8BD042056
:108E7000F8BD00006420002070B5044649DF1248A8
:108E8000002242602002114C083060600123236000
:108E90000F4D2B600F490A60104601E0401CC0B224
:108EA0000E68002E01D1FF28F8D30A606B602260A3
:108EB0004ADFA0684B2109014843FF21FFF746F92B
:108EC0004100401880B270BD007300400075004042
:108ED000007000400071004070B50C4692B0002157
:108EE0006A46117007251171002809D0C178490719
:108EF0000CD502A9FFF7A2FD002808D102AE00E0C0
:108F00000026002C0ED0E078002802D0284612B0AF
:108F100070BD01AA0AA92046FFF790FD0028F6D1EE
:108F20000AAA00E00022684603790178304672DF21
:108F3000EDE710B500F0A6FC10BD000010B500284C
:108F400009D005488268C1688918C1608188491CB8
:108F50008180FFF719FE10BD0020002070B5054686
:108F600009480C464260152032DF00280BD1294603
:108F7000152033DF002806D115202EDF002802D16E
:108F8000214603204CDF70BD442000207FB5002324
:108F900048222149082001F0DBF8204C204D002810
:108FA00005D0BFF34F8FEC60BFF34F8FFEE700207B
:108FB0000090694601900870684660DF002805D07F
:108FC000BFF34F8FEC60BFF34F8FFEE70120694680
:108FD000087202A9242068DF002805D0BFF34F8F54
:108FE000EC60BFF34F8FFEE70E4801F0A7F80028B2
:108FF00005D0BFF34F8FEC60BFF34F8FFEE70A48F9
:1090000001F0BEF8002805D0BFF34F8FEC60BFF32E
:109010004F8FFEE77FBD0000082100200400FA0505
:1090200000ED00E0338F0100C1A201000007000F36
:109030000A2801D23030704737307047F8B53A49C6
:1090400014230A780F205A43541821792569374E82
:10905000241D02291AD004292ED0052963D100F03D
:10906000ABFD01462846FFF771F8064600F0A4FD67
:109070000146A08871434019401A870800F09CFD02
:10908000711C4843A1886288891835E0B08822693C
:10909000800261881318091AA28828181018012262
:1090A0009202914203D28A08194629DF36E0FF2254
:1090B0000132194629DF31E0A2681D481101091863
:1090C00008894B894968A94203D16188584388427D
:1090D0001BD08D2A19D000F06FFD01462846FFF7FE
:1090E00035F8064600F068FD7043281A870800F03E
:1090F00063FD711C484361883A464919401A830848
:109100003146204601F046F808E000F055FD0146E2
:109110002846FFF71BF8B188401828DF002802D145
:10912000014901228A70F8BDD02300204C20002084
:10913000A42B002010B5084900204A78002A09D045
:109140008978002906D1FFF779FF002802D011287D
:1091500000D1002010BD0000D02300201422504375
:10916000054A002180180171C1808C220161C26012
:109170004161018170470000D0230020F8B5134CF5
:10918000069E6578642D1FD027787D19EDB2642D79
:1091900001D3643DEDB214277D432D1928710020C1
:1091A00068716A6103C92961E860EB802E81A1784A
:1091B0000020002904D1FFF741FF112800D1002031
:1091C0006178491C6170F8BD0420F8BDD0230020EF
:1091D000F8B5224801694A1C3DD0242251438268D7
:1091E00089184E681E494C6847690079E11B0D02D9
:1091F0002D0AED1C002814D101201A4A00045060E9
:10920000184A403A50601849400008601749086001
:109210001749012008602F20FEF76CFF0F4901203D
:109220000871B54200D23546E81900020C49000A1F
:10923000403108600A494968001B091B0902090AF4
:109240000002000AC91C814204D9012006494004D9
:1092500080390860F8BD00F099FEF8BD6420002058
:10926000001501404013014080E200E000E100E011
:1092700000100140F8B50D4611780646881D1446C9
:109280001F2801D90C20F8BD33880720062BFAD3FC
:109290001927FF01BB4202D9164A9342F3D17288C3
:1092A000062AF0D3BA4202D9124FBA42EBD1114F7B
:1092B000BB4203D0BA4201D09342E4D8481C0522F5
:1092C00020706A5420781222411C21702A54207880
:1092D0004119308801F0AAF821784018C0B22070F6
:1092E0004119708801F0A2F8217840182070002000
:1092F000F8BD0000FFFF000010B50E4900238A787A
:10930000CC78A24212D0521CD2B28A70022A00D16A
:109310008B708A78074B92001C339A580260486918
:1093200010180002000A4861012010BD03600020EF
:1093300010BD00006420002070470000F7B5144CF9
:109340000025A76823691EE024215943C9194E68E6
:10935000864202D9301A486017E0801B7519002632
:109360004E600E750E699C460B6AB646002E0AD0FA
:10937000019E76193602360A8E607646CE601668F1
:109380000E6261461160591CDED12361FEBD0000F2
:1093900064200020F8B51E4C2078002837D02069C2
:1093A000002807D00026E068002805D00025002E00
:1093B00004D013E00126F6E70125F8E7684651DFFF
:1093C000052806D0002806D000221146FFF748FCE9
:1093D00004E0012602E0216900988847002D12D19F
:1093E000608869460880A06861DF052806D00028EB
:1093F00006D000221146FFF733FC04E0012502E00D
:10940000E168A0688847002ED8D0002DCFD0F8BDE5
:10941000882000201048018CC9B2012917D1818C05
:10942000090714D1018D09060A0F03D1828D120696
:10943000120F0ED0090F012903D1828D1206120FCF
:1094400007D0032903D1808D0006000F01D0002032
:109450007047012070470000C00F00F0800701D066
:109460000020704701207047F8B52348016900913A
:10947000457833E02048E900C0680E1834782AE0C7
:10948000182060437168641C0818B178E4B2A142E6
:1094900000D100240178022902D003291BD113E056
:1094A000154A40682421926841438F18397D00296C
:1094B00011D000F043FF002038750CE024277843DA
:1094C000C0180275006A03E00B4900228B68086926
:1094D000471CF3D108617078A042D1D128466D1E97
:1094E000EDB20028C6D1044801690098814201D03C
:1094F0000120F8BD0020F8BD64200020F8B5044626
:10950000384800270169009146785CE03548F10051
:10951000C2688D1851E0601C07D0324A242092683E
:10952000604321468018046A24E0287818214143CA
:109530006A68401CC0B252182870A978884200D1CD
:109540002F70284B516824209B684843C01813781B
:10955000012B34D1037D002B31D193688360D36814
:10956000C360136903615269C2611E4A5279002ABD
:1095700000D087601B4B82685B6996469C46D31A75
:109580001A02194B120A9A4202D2C368D21808E092
:10959000724663469A1A1202C368120A934202D9AB
:1095A0009A1A426000E0476087600122C760027536
:1095B000921E0262084600F08FFE601CABD1287834
:1095C00069788842A7D13046761EF6B200289DD130
:1095D000044801690098814201D00120F8BD0020B3
:1095E000F8BD000064200020FFFF7F008AB000204B
:1095F0000090644B05220321FF20FFF775FB624CAE
:10960000624D002805D0BFF34F8FEC60BFF34F8F42
:10961000FEE75F4A01215F48FFF740FB002805D0C5
:10962000BFF34F8FEC60BFF34F8FFEE759485A4AA4
:109630000021001FFFF732FB002805D0BFF34F8F3A
:10964000EC60BFF34F8FFEE7FFF7A0FC042077DF4D
:10965000002805D0BFF34F8FEC60BFF34F8FFEE7BC
:109660004E490320886101204D498005C86000F003
:10967000A9FA10206946888423200002C88449483A
:1096800044490890091D08A800F030FB002805D0C7
:10969000BFF34F8FEC60BFF34F8FFEE7424A0221CA
:1096A0000320FFF75BFC002805D0BFF34F8FEC6071
:1096B000BFF34F8FFEE73D480FC8069303AB07C3C8
:1096C00001A871DF6946887A0009FFF7AFFC694697
:1096D0000874887AFFF7AAFC69464874487A00093A
:1096E000FFF7A4FC69468874487AFFF79FFC694637
:1096F000C874087A0009FFF799FC69460875087A6A
:10970000FFF794FC69464875C8790009FFF78EFC9D
:1097100069468875C879FFF789FC6946C8758879F4
:109720000009FFF783FC694608768879FFF77EFC1D
:109730006946487648790009FFF778FC69468876DB
:109740004879FFF773FC6946C87611200877102224
:1097500003A907A87CDF0F4E192080012C3EB060C2
:1097600013487080FFF710FA3089002180B2FFF7AC
:1097700055FA48DF0028FCD0BFF34F8FEC60BFF3F1
:109780004F8FFEE7702100200400FA0500ED00E095
:1097900091A501002C20002079A501004007005070
:1097A00000050050399301003D8F010038A70100EA
:1097B0008F58000070B5054600790E46801C14468F
:1097C000C0B21178821C8A181F2A01D90C2070BDE2
:1097D0000A46491C2170401CB0542078FF22411CCD
:1097E0002170325420788119288800F01FFE2178DA
:1097F0004018C0B22070AA88002A09D0A9680029A0
:1098000008D08019FEF7E8FC2078297940182070EC
:10981000002070BD072070BDF8B514780746A01C65
:1098200015460E461F2803D87878801C1F2801D9BA
:109830000C20F8BD1D20001B80B2694686460880BA
:109840003019801C7DDF0028F3D13878022805D13B
:1098500068460088704501D8092107E0787808211A
:10986000002801D0704501D968460088421C325555
:10987000641CE2B2B1542978801C081828700020BA
:10988000F8BD0000F8B50188894C192975D01E294A
:1098900074D1017A582971D1417A81296ED16188B8
:1098A000844A854D854E914269D1827A417B120668
:1098B0008918C27A007B1204000210180F18A8053C
:1098C000E76187427DD9206A87427AD0381A10280A
:1098D00077D219218901E068FEF738FC381A6061F7
:1098E00074DF21696069FEF731FC23210902401C05
:1098F000FEF72CFC224638321046083800F0E2F819
:10990000002805D0BFF34F8FF560BFF34F8FFEE700
:1099100067496B4F002310223831381D00F092F94F
:109920007868B968C043C943084329D02169606990
:10993000FEF70CFC23210902401CFEF707FC5C4AE1
:109940008909383210468901083800F0BBF8002830
:1099500005D0BFF34F8FF560BFF34F8FFEE754483C
:1099600001218902383000F0D7F8002808D0BFF371
:109970004F8FF560BFF34F8FFEE792E02BE02BE0B7
:109980004C487D210E386080606960622069C900A2
:109990004843410C7D23C0039B020022C018514163
:1099A0005A000023FEF7E8FB01460022E06AFFF7B9
:1099B000F5F9002806D0BFF34F8FF560BFF34F8F46
:1099C000FEE707E001204003A060FFF7DDF82089F3
:1099D00080B25AE02762F8BD36480E388142FAD18B
:1099E0006169606A7D270A1A21693F018A4250D362
:1099F00040186062FEF7AAFB23210902FEF7A6FBCE
:109A00002B4A38321046083800F05CF8002805D0A0
:109A1000BFF34F8FF560BFF34F8FFEE72449284D0A
:109A2000002310223831281D00F00CF90020A080FE
:109A3000616A6069401A2169FEF788FB6882A06A42
:109A4000FFF7EEF9FF2100220E31A06AFFF7A6F919
:109A5000A568BD420BD9616A6069401A2169FEF7A9
:109A600075FB042803D974DFFF2041301EE0BD429E
:109A7000B1D9616A6069401A2169FEF767FB042861
:109A8000A9D974DF1920800110E00021FFF7C6F882
:109A9000F8BD0848C01F6080A068B842F8D274DFE3
:109AA00002E080790028F3D101204003A060ECE7B8
:109AB000002000208F5800000400FA0500ED00E0AF
:109AC000B023002070B5124B1B78002B18D0002853
:109AD00018D0002A16D003688C2B0FD20D4C1E0113
:109AE000A559002D0AD045683019048961436918C9
:109AF0004589406865432818884205D8072070BD0D
:109B0000082070BD0E2070BD13600020516070BD34
:109B10004C200020A42B0020F8B504461B480E461C
:109B20000078002823D0002C23D020688C281CD259
:109B3000174D00012958002917D040194189028981
:109B4000406851430918606881420ED9FFF786FCCE
:109B5000002810D021686068090149194A680989FC
:109B6000801AFEF7F3FA002907D00720F8BD082075
:109B7000F8BD0E20F8BD1020F8BD00200246009070
:109B8000334621460420FFF7F9FAF8BD4C200020A7
:109B9000A42B002010B507484469601C06D000F0D3
:109BA0000BF801462046FEF7D1FA10BD0120000750
:109BB000406910BD0010001001200007006980B24C
:109BC00070470000F8B500241B4D1C4EAC806C7033
:109BD00034707470B47027463846FFF7BFFA7F1CA4
:109BE000642FF9D36C80FFF7D5FF07468D3FFFF751
:109BF000E3FF4743AF601249AC80002002018C5064
:109C0000521814819481401C54818C28F6D308206A
:109C10006870FFF7D1FF0746FFF7BCFF441EFFF750
:109C2000CBFF60433946FEF791FA28DF002802D1C6
:109C30000121B1702970F8BD4C200020D0230020F4
:109C4000A42B0020FFB5274881B000781F46164698
:109C50000C4600281FD0002C1FD0019800281CD0D3
:109C600020688C2814D2204D0001295800290FD0DB
:109C700041194A89088949684243511862689142EA
:109C800006D9002E04D0B04202D3F119814206D980
:109C9000072005B0F0BD0820FBE70E20F9E701988A
:109CA000FFF7DCFB00281AD03846FFF7D7FB002867
:109CB00015D06068FFF7D2FB002810D060683246EC
:109CC000C1190198FEF788FA009620680022000169
:109CD0002D5803212046019BA8470020D9E71020DA
:109CE000D7E700004C200020A42B0020F8B5374D0A
:109CF000044628780E4600282ED0002C2ED0002EA8
:109D00002CD02068002829D0FFF756FF0146A088F4
:109D1000814228D3102826D3E088002823D0FFF7DB
:109D200039FF471EFFF748FF4743E088A1884843B3
:109D3000A9684018874216D3FFF73EFF0146E08826
:109D4000A288504381420BDAFFF736FFA188FEF765
:109D5000FDF9002907D103E00820F8BD0E20F8BD69
:109D60002079800701D00720F8BD68888C281BD097
:109D70003060174FA9680201D019716041602168F5
:109D8000B950A1880181E1884181A088E18800263D
:109D900048430446761CB6B2FFF70EFFA04205D238
:109DA000FFF70AFF241A02E00420F8BD0024FFF7A1
:109DB00003FFA9684018A860002CEBD16888010156
:109DC000C9198E81401C68800020F8BD4C200020FD
:109DD000A42B0020F8B5044620481E4600781546FE
:109DE0000F4600281DD0002F1DD0002C1BD020684E
:109DF0008C2814D201011A484258002A0FD00918A1
:109E00004A8908894968424351186268914206D9D3
:109E1000002D04D0A84202D3A919814205D90720F8
:109E2000F8BD0820F8BD0E20F8BD3846FFF716FB38
:109E3000002811D03046FFF711FB00280CD06068D5
:109E4000FFF70CFB002807D02B463A46214602209C
:109E50000096FFF793F9F8BD1020F8BD4C200020C4
:109E6000A42B0020F8B507460020464E8646B07861
:109E700001281ED10020444BB0705A78082A19D00E
:109E800034462578142169430C19022F20D0032F62
:109E90000FD16079401CC0B26071241D03286AD0C4
:109EA000FFF7CCF8002804D0112802D02146FEF795
:109EB000E3FEF8BD022F09D01870FFF73BF9002828
:109EC000F7D0317814225143891959E05870F4E7DA
:109ED0002D498B885B1C9EB28E802379241D022B1A
:109EE00005D16788B102B94201D3012100E0002108
:109EF0008C46052B01D1072A03D00021042B02D068
:109F000003E00121FAE7072A03D00027042B02D03F
:109F100007E00127FAE76488B302A34201D3002ACD
:109F200027D00022394311436246114317D0164A05
:109F30001449507090804878401E4870681CC0B228
:109F40000870642801D364380870142068434118ED
:109F50007046091DFEF790FE2846FFF7FFF8FFF751
:109F6000E9F80028A5D0074914230A785A43511864
:109F700006E00122D6E730781421484381190D20EC
:109F8000091D94E7D02300204C20002070B5012447
:109F90000B49600408600B4940108860094940394A
:109FA0008860094D6C602F20FEF7A4F8AC60074D67
:109FB00000242F206C61FEF79DF82C7170BD00000D
:109FC00080E100E0401301400010014064200020C7
:109FD000F0B500220123032636041F46974039427C
:109FE00012D0C5683D4203D1012464043D4301E021
:109FF0003446BD43C560064D97007D192F68B743B1
:10A000002F602F6827432F60521C202AE5D3F0BD14
:10A0100000070050F7B582B002981446806A0F46D8
:10A02000002833D0029800252030009028E00298C4
:10A03000816A0C2068430E18217830794A1C2270FE
:10A04000C01C785420781622411C21703A54207884
:10A05000C119308800F0EAF921784018C0B22070A8
:10A06000B288002A09D0B16800290FD0C019FEF7C4
:10A07000B3F820783179401820706D1C0098EDB24B
:10A08000007BA842D3D8002005B0F0BD0720FBE735
:10A09000F0B5134C03278D002D192F6000259E006D
:10A0A000361935600F4EF1607361059B0121002B5D
:10A0B0000AD083001B191F6093001B191D603261B9
:10A0C000B06008484030C1624F2000037062042035
:10A0D000306005488160016004488560F0BD000083
:10A0E00000070050002500400020004000210040F3
:10A0F000F8B50F46044601250B4E07E02046641EC6
:10A1000000280FDB7D20C000FDF7E4FFB0680128C8
:10A11000F4D1002C04DB0020B06004488069387062
:10A120002846F8BD0025F4E7002100400025004046
:10A1300010B508461146C046C04610BD002803D0E1
:10A140000249C860002070470E2070478820002018
:10A1500070B5002901D08C0701D0072070BD064CD6
:10A160000125A16062800549636010DF0028F5D1F8
:10A17000257016202EDF70BD8820002031A101003F
:10A18000002803D002490861002070470E20704764
:10A1900088200020FFB581B0484C0E46039F049AEA
:10A1A0000546617803201743002903D1002F0DD005
:10A1B00001216170039AC9B2920000920B00FEF770
:10A1C00021FC072C071B2E465D6C2C000221F0E7BA
:10A1D000FFF7F2FC8708FFF7EFFC70430546FFF737
:10A1E000D9FC461EFFF7E8FC70433A46294629DFB2
:10A1F000002812D102210FE0304628DF00280CD1C0
:10A200000399002901D0032106E00499002917D100
:10A210002978042950D018E0617005B0F0BDFFF72F
:10A22000B9FC471EFFF7C8FC4743FFF7C5FC704366
:10A230003946039A29DF0028EFD10499002901D07B
:10A240000421E9E72978042925D00521E4E7FFF76F
:10A25000A1FC471EFFF7B0FC4743688839180098F7
:10A260000F18FFF7A9FC6988704341180098049AF9
:10A270000818394629DF0028E4D0CEE7FFF79CFC18
:10A2800000997043401869888A08296929DF0028E5
:10A29000C3D1002F10D00621BEE7FFF78DFC064684
:10A2A000FFF778FC451EFFF787FC68433146FDF752
:10A2B0004DFF28DF0028B0D10721ADE74C2000205A
:10A2C00010B5FFF7CFFD10BD012002490005086061
:10A2D0007047000000E200E0F0B5174F2421BC6891
:10A2E00041430D1939694A1C09D024224A431619E1
:10A2F0006B687268934204D8D21A7260296238611E
:10A30000F0BD0A4602E00A46396A9B1B4E1C0BD080
:10A3100024264E4337197E689E42F4D324264E43AA
:10A3200036197768FF1A77606B60296224214A43E7
:10A3300011190862F0BD00006420002070B5194CAE
:10A340002269A5681346114606E0814207D00A46F5
:10A35000242671434919096A4E1CF6D170BD002E9E
:10A36000FCD08A420CD1242043435819006A206152
:10A37000401C05D10C4B0120986000236361607183
:10A38000242041434819242341685A43006A521942
:10A390001062421CE2D024225043401942685118F6
:10A3A000416070BD6420002000100140F8B51D4CD4
:10A3B0002569681C35D01C48002640686169401A30
:10A3C00007023F0A19E024204543A0682A18506874
:10A3D000B84214D8A3693F1A8619156A002B09D010
:10A3E000D16990699847002807D000221146FEF7EE
:10A3F00037FC02E09169D0698847681CE3D1A178F5
:10A40000E078814206D1401CC0B2E070022801D140
:10A410000020E07003490006800D1C310E50FFF74C
:10A4200053FFF8BD64200020001501400870000AA9
:10A43000487002207047000012494868C005C00DEE
:10A4400019D0103840B2002807DA0207120F083A74
:10A45000920892005118C96904E081080A4A8900EB
:10A46000891809688007C00EC1400806800F0128BE
:10A4700003D0032803D0022070470020704701203A
:10A480007047000000ED00E000E400E042788378CF
:10A49000521C934200D100220378934201D1002044
:10A4A00070470A6041684078182250430818704786
:10A4B000F8B51546069C1E4607460222009400F099
:10A4C0000AF8002806D1334610222946384600945F
:10A4D00000F001F8F8BDFFB583B0074600200C9CE2
:10A4E0008646267805463AE07868A90041180A8829
:10A4F000684682804988C1800022694601A865DFDC
:10A50000002810D1684601780598814226D170460E
:10A51000002801D0002200E002222078891841188A
:10A520001F2902D90C2007B0F0BD7146002908D1BF
:10A53000401CC0B2411C069B049A21701A54012091
:10A540008646217806980A18694601A865DF002822
:10A55000E9D1694620780978401820706D1C388848
:10A56000A842C1DC7046002804D020780699801BE0
:10A57000401E88550020D6E710B574DF012003493E
:10A58000400388600021FEF749FB10BD0020002039
:10A59000FEB55E4C002521696069E5604018012127
:10A5A0000906606188426ED974DF0026584901208F
:10A5B000C86303463246102130460095FFF768FD18
:10A5C000012054498005886001A90420FFF790FD0F
:10A5D0000028F9D15048002745638563C5630564A9
:10A5E00045648564C564056501A90420FFF780FD05
:10A5F000002819D068460179474834308155761CC7
:10A60000F6B280192038C07F0A2801D0102E0BD353
:10A61000414842A14C300246083A931D0090183838
:10A62000121DFDF7FDFD03E07F1CFFB2322FDBD3CF
:10A6300037480021C163012036498005C86002A85F
:10A6400052DF354D6069443528600820FEF714FC60
:10A6500068810298E86021696069FDF777FD232130
:10A660000902FDF773FD294A383210460838FFF712
:10A6700029FA2D4E2D4F002806D0BFF34F8FFE60D4
:10A68000BFF34F8FFEE73FE02048383080888005D9
:10A6900010D11E48012189023830FFF73DFA616967
:10A6A000606A8B230A1A20699B015843824201D3B6
:10A6B000081A6062184915480023102244313830C6
:10A6C000FFF788FB002805D0BFF34F8FFE60BFF374
:10A6D0004F8FFEE76088164988420FD11549002048
:10A6E0002A5C0B18401CC0B21A711028F8D3002045
:10A6F0004882606960620E48C01F6080012040038C
:10A700000021A060FEF78AFAFEBD000000200020B4
:10A71000C02F0040000500501C210020256878252E
:10A7200068782568780A00000400FA0500ED00E06A
:10A7300088580000B023002035544D3A0000000036
:10A740000000000000000000DDDDDDDDDCBBBBDD66
:10A75000DDDDDDDDDDDDDDDD9888888888888888C1
:10A7600077777777778888888555555666666666E1
:10A7700066666666666888888333333222222222C0
:10A78000222222222228888DA8A701000020002052
:10A790009C0000001E8A010044A801009C200020AB
:10A7A000CC1B00002E8A0100060088580000000023
:10A7B00040060000000000008403000000000000CC
:10A7C0000000000000000000000000000000000089
:10A7D0000000000000000000000000000000000079
:10A7E00000000000000000000024F4000000000051
:10A7F0000000000000000000000000000000000059
:10A800000000000000000000000000000000000048
:10A810000000000000000000000000000000000038
:10A820000000000000000000000000000000000028
:10A830000000000000000000000000000000000018
:04A840000000000014
:04000005000180C1B5
:00000001FF
